{
  "_format": "hh-sol-artifact-1",
  "contractName": "ReserveFund",
  "sourceName": "contracts/ReserveFund.sol",
  "abi": [
    {
      "inputs": [],
      "stateMutability": "nonpayable",
      "type": "constructor"
    },
    {
      "inputs": [],
      "name": "AccessControlBadConfirmation",
      "type": "error"
    },
    {
      "inputs": [
        {
          "internalType": "address",
          "name": "account",
          "type": "address"
        },
        {
          "internalType": "bytes32",
          "name": "neededRole",
          "type": "bytes32"
        }
      ],
      "name": "AccessControlUnauthorizedAccount",
      "type": "error"
    },
    {
      "inputs": [
        {
          "internalType": "address",
          "name": "target",
          "type": "address"
        }
      ],
      "name": "AddressEmptyCode",
      "type": "error"
    },
    {
      "inputs": [
        {
          "internalType": "address",
          "name": "implementation",
          "type": "address"
        }
      ],
      "name": "ERC1967InvalidImplementation",
      "type": "error"
    },
    {
      "inputs": [],
      "name": "ERC1967NonPayable",
      "type": "error"
    },
    {
      "inputs": [],
      "name": "EnforcedPause",
      "type": "error"
    },
    {
      "inputs": [],
      "name": "ExpectedPause",
      "type": "error"
    },
    {
      "inputs": [],
      "name": "FailedCall",
      "type": "error"
    },
    {
      "inputs": [],
      "name": "InvalidInitialization",
      "type": "error"
    },
    {
      "inputs": [],
      "name": "NotInitializing",
      "type": "error"
    },
    {
      "inputs": [
        {
          "internalType": "address",
          "name": "token",
          "type": "address"
        }
      ],
      "name": "SafeERC20FailedOperation",
      "type": "error"
    },
    {
      "inputs": [],
      "name": "UUPSUnauthorizedCallContext",
      "type": "error"
    },
    {
      "inputs": [
        {
          "internalType": "bytes32",
          "name": "slot",
          "type": "bytes32"
        }
      ],
      "name": "UUPSUnsupportedProxiableUUID",
      "type": "error"
    },
    {
      "inputs": [],
      "name": "ZeroAddress",
      "type": "error"
    },
    {
      "inputs": [],
      "name": "ZeroAmount",
      "type": "error"
    },
    {
      "anonymous": false,
      "inputs": [
        {
          "indexed": true,
          "internalType": "address",
          "name": "token",
          "type": "address"
        },
        {
          "indexed": true,
          "internalType": "address",
          "name": "to",
          "type": "address"
        },
        {
          "indexed": false,
          "internalType": "uint256",
          "name": "amount",
          "type": "uint256"
        },
        {
          "indexed": false,
          "internalType": "string",
          "name": "reason",
          "type": "string"
        }
      ],
      "name": "FundsDistributed",
      "type": "event"
    },
    {
      "anonymous": false,
      "inputs": [
        {
          "indexed": false,
          "internalType": "uint64",
          "name": "version",
          "type": "uint64"
        }
      ],
      "name": "Initialized",
      "type": "event"
    },
    {
      "anonymous": false,
      "inputs": [
        {
          "indexed": false,
          "internalType": "address",
          "name": "account",
          "type": "address"
        }
      ],
      "name": "Paused",
      "type": "event"
    },
    {
      "anonymous": false,
      "inputs": [
        {
          "indexed": true,
          "internalType": "bytes32",
          "name": "role",
          "type": "bytes32"
        },
        {
          "indexed": true,
          "internalType": "bytes32",
          "name": "previousAdminRole",
          "type": "bytes32"
        },
        {
          "indexed": true,
          "internalType": "bytes32",
          "name": "newAdminRole",
          "type": "bytes32"
        }
      ],
      "name": "RoleAdminChanged",
      "type": "event"
    },
    {
      "anonymous": false,
      "inputs": [
        {
          "indexed": true,
          "internalType": "bytes32",
          "name": "role",
          "type": "bytes32"
        },
        {
          "indexed": true,
          "internalType": "address",
          "name": "account",
          "type": "address"
        },
        {
          "indexed": true,
          "internalType": "address",
          "name": "sender",
          "type": "address"
        }
      ],
      "name": "RoleGranted",
      "type": "event"
    },
    {
      "anonymous": false,
      "inputs": [
        {
          "indexed": true,
          "internalType": "bytes32",
          "name": "role",
          "type": "bytes32"
        },
        {
          "indexed": true,
          "internalType": "address",
          "name": "account",
          "type": "address"
        },
        {
          "indexed": true,
          "internalType": "address",
          "name": "sender",
          "type": "address"
        }
      ],
      "name": "RoleRevoked",
      "type": "event"
    },
    {
      "anonymous": false,
      "inputs": [
        {
          "indexed": false,
          "internalType": "address",
          "name": "account",
          "type": "address"
        }
      ],
      "name": "Unpaused",
      "type": "event"
    },
    {
      "anonymous": false,
      "inputs": [
        {
          "indexed": true,
          "internalType": "address",
          "name": "implementation",
          "type": "address"
        }
      ],
      "name": "Upgraded",
      "type": "event"
    },
    {
      "inputs": [],
      "name": "DEFAULT_ADMIN_ROLE",
      "outputs": [
        {
          "internalType": "bytes32",
          "name": "",
          "type": "bytes32"
        }
      ],
      "stateMutability": "view",
      "type": "function"
    },
    {
      "inputs": [],
      "name": "EMERGENCY_ROLE",
      "outputs": [
        {
          "internalType": "bytes32",
          "name": "",
          "type": "bytes32"
        }
      ],
      "stateMutability": "view",
      "type": "function"
    },
    {
      "inputs": [],
      "name": "UPGRADE_INTERFACE_VERSION",
      "outputs": [
        {
          "internalType": "string",
          "name": "",
          "type": "string"
        }
      ],
      "stateMutability": "view",
      "type": "function"
    },
    {
      "inputs": [
        {
          "internalType": "address",
          "name": "token",
          "type": "address"
        },
        {
          "internalType": "address",
          "name": "to",
          "type": "address"
        },
        {
          "internalType": "uint256",
          "name": "amount",
          "type": "uint256"
        },
        {
          "internalType": "string",
          "name": "reason",
          "type": "string"
        }
      ],
      "name": "distribute",
      "outputs": [],
      "stateMutability": "nonpayable",
      "type": "function"
    },
    {
      "inputs": [
        {
          "internalType": "address",
          "name": "token",
          "type": "address"
        }
      ],
      "name": "getBalance",
      "outputs": [
        {
          "internalType": "uint256",
          "name": "",
          "type": "uint256"
        }
      ],
      "stateMutability": "view",
      "type": "function"
    },
    {
      "inputs": [
        {
          "internalType": "bytes32",
          "name": "role",
          "type": "bytes32"
        }
      ],
      "name": "getRoleAdmin",
      "outputs": [
        {
          "internalType": "bytes32",
          "name": "",
          "type": "bytes32"
        }
      ],
      "stateMutability": "view",
      "type": "function"
    },
    {
      "inputs": [
        {
          "internalType": "bytes32",
          "name": "role",
          "type": "bytes32"
        },
        {
          "internalType": "address",
          "name": "account",
          "type": "address"
        }
      ],
      "name": "grantRole",
      "outputs": [],
      "stateMutability": "nonpayable",
      "type": "function"
    },
    {
      "inputs": [
        {
          "internalType": "bytes32",
          "name": "role",
          "type": "bytes32"
        },
        {
          "internalType": "address",
          "name": "account",
          "type": "address"
        }
      ],
      "name": "hasRole",
      "outputs": [
        {
          "internalType": "bool",
          "name": "",
          "type": "bool"
        }
      ],
      "stateMutability": "view",
      "type": "function"
    },
    {
      "inputs": [
        {
          "internalType": "address",
          "name": "_admin",
          "type": "address"
        }
      ],
      "name": "initialize",
      "outputs": [],
      "stateMutability": "nonpayable",
      "type": "function"
    },
    {
      "inputs": [],
      "name": "pause",
      "outputs": [],
      "stateMutability": "nonpayable",
      "type": "function"
    },
    {
      "inputs": [],
      "name": "paused",
      "outputs": [
        {
          "internalType": "bool",
          "name": "",
          "type": "bool"
        }
      ],
      "stateMutability": "view",
      "type": "function"
    },
    {
      "inputs": [],
      "name": "proxiableUUID",
      "outputs": [
        {
          "internalType": "bytes32",
          "name": "",
          "type": "bytes32"
        }
      ],
      "stateMutability": "view",
      "type": "function"
    },
    {
      "inputs": [
        {
          "internalType": "bytes32",
          "name": "role",
          "type": "bytes32"
        },
        {
          "internalType": "address",
          "name": "callerConfirmation",
          "type": "address"
        }
      ],
      "name": "renounceRole",
      "outputs": [],
      "stateMutability": "nonpayable",
      "type": "function"
    },
    {
      "inputs": [
        {
          "internalType": "bytes32",
          "name": "role",
          "type": "bytes32"
        },
        {
          "internalType": "address",
          "name": "account",
          "type": "address"
        }
      ],
      "name": "revokeRole",
      "outputs": [],
      "stateMutability": "nonpayable",
      "type": "function"
    },
    {
      "inputs": [
        {
          "internalType": "bytes4",
          "name": "interfaceId",
          "type": "bytes4"
        }
      ],
      "name": "supportsInterface",
      "outputs": [
        {
          "internalType": "bool",
          "name": "",
          "type": "bool"
        }
      ],
      "stateMutability": "view",
      "type": "function"
    },
    {
      "inputs": [],
      "name": "unpause",
      "outputs": [],
      "stateMutability": "nonpayable",
      "type": "function"
    },
    {
      "inputs": [
        {
          "internalType": "address",
          "name": "newImplementation",
          "type": "address"
        },
        {
          "internalType": "bytes",
          "name": "data",
          "type": "bytes"
        }
      ],
      "name": "upgradeToAndCall",
      "outputs": [],
      "stateMutability": "payable",
      "type": "function"
    }
  ],
  "bytecode": "0x60a06040523073ffffffffffffffffffffffffffffffffffffffff1660809073ffffffffffffffffffffffffffffffffffffffff1681525034801561004357600080fd5b5061005261005760201b60201c565b6101de565b600061006761015b60201b60201c565b90508060000160089054906101000a900460ff16156100b2576040517ff92ee8a900000000000000000000000000000000000000000000000000000000815260040160405180910390fd5b67ffffffffffffffff80168160000160009054906101000a900467ffffffffffffffff1667ffffffffffffffff16146101585767ffffffffffffffff8160000160006101000a81548167ffffffffffffffff021916908367ffffffffffffffff1602179055507fc7f505b2f371ae2175ee4913f4499e1f2633a7b5936321eed1cdaeb6115181d267ffffffffffffffff60405161014f91906101c3565b60405180910390a15b50565b60008061016c61017560201b60201c565b90508091505090565b60007ff0c57e16840df040f15088dc2f81fe391c3923bec73e23a9662efc9c229c6a0060001b905090565b600067ffffffffffffffff82169050919050565b6101bd816101a0565b82525050565b60006020820190506101d860008301846101b4565b92915050565b608051611fbc61020760003960008181610e8901528181610ede015261109f0152611fbc6000f3fe6080604052600436106100fe5760003560e01c80635c975abb11610095578063ad3cb1cc11610064578063ad3cb1cc14610302578063c4d66de81461032d578063d547741f14610356578063e3accff91461037f578063f8b2cb4f146103a8576100fe565b80635c975abb146102585780638456cb591461028357806391d148541461029a578063a217fddf146102d7576100fe565b806336568abe116100d157806336568abe146101d15780633f4ba83a146101fa5780634f1ef2861461021157806352d1902d1461022d576100fe565b806301ffc9a71461010357806320df435914610140578063248a9ca31461016b5780632f2ff15d146101a8575b600080fd5b34801561010f57600080fd5b5061012a6004803603810190610125919061180f565b6103e5565b6040516101379190611857565b60405180910390f35b34801561014c57600080fd5b5061015561045f565b604051610162919061188b565b60405180910390f35b34801561017757600080fd5b50610192600480360381019061018d91906118d2565b610483565b60405161019f919061188b565b60405180910390f35b3480156101b457600080fd5b506101cf60048036038101906101ca919061195d565b6104b1565b005b3480156101dd57600080fd5b506101f860048036038101906101f3919061195d565b6104d3565b005b34801561020657600080fd5b5061020f61054e565b005b61022b60048036038101906102269190611ae3565b610566565b005b34801561023957600080fd5b50610242610585565b60405161024f919061188b565b60405180910390f35b34801561026457600080fd5b5061026d6105b8565b60405161027a9190611857565b60405180910390f35b34801561028f57600080fd5b506102986105dd565b005b3480156102a657600080fd5b506102c160048036038101906102bc919061195d565b610612565b6040516102ce9190611857565b60405180910390f35b3480156102e357600080fd5b506102ec61068b565b6040516102f9919061188b565b60405180910390f35b34801561030e57600080fd5b50610317610692565b6040516103249190611bbe565b60405180910390f35b34801561033957600080fd5b50610354600480360381019061034f9190611be0565b6106cb565b005b34801561036257600080fd5b5061037d6004803603810190610378919061195d565b610908565b005b34801561038b57600080fd5b506103a660048036038101906103a19190611ca3565b61092a565b005b3480156103b457600080fd5b506103cf60048036038101906103ca9190611be0565b610ae1565b6040516103dc9190611d3a565b60405180910390f35b60007f7965db0b000000000000000000000000000000000000000000000000000000007bffffffffffffffffffffffffffffffffffffffffffffffffffffffff1916827bffffffffffffffffffffffffffffffffffffffffffffffffffffffff19161480610458575061045782610b64565b5b9050919050565b7fbf233dd2aafeb4d50879c4aa5c81e96d92f6e6945c906a58f9f2d1c1631b4b2681565b60008061048e610bce565b905080600001600084815260200190815260200160002060010154915050919050565b6104ba82610483565b6104c381610bf6565b6104cd8383610c0a565b50505050565b6104db610d0b565b73ffffffffffffffffffffffffffffffffffffffff168173ffffffffffffffffffffffffffffffffffffffff161461053f576040517f6697b23200000000000000000000000000000000000000000000000000000000815260040160405180910390fd5b6105498282610d13565b505050565b6000801b61055b81610bf6565b610563610e15565b50565b61056e610e87565b61057782610f6d565b6105818282610f7e565b5050565b600061058f61109d565b7f360894a13ba1a3210667c828492db98dca3e2076cc3735a920a3ca505d382bbc60001b905090565b6000806105c3611124565b90508060000160009054906101000a900460ff1691505090565b7fbf233dd2aafeb4d50879c4aa5c81e96d92f6e6945c906a58f9f2d1c1631b4b2661060781610bf6565b61060f61114c565b50565b60008061061d610bce565b905080600001600085815260200190815260200160002060000160008473ffffffffffffffffffffffffffffffffffffffff1673ffffffffffffffffffffffffffffffffffffffff16815260200190815260200160002060009054906101000a900460ff1691505092915050565b6000801b81565b6040518060400160405280600581526020017f352e302e3000000000000000000000000000000000000000000000000000000081525081565b60006106d56111be565b905060008160000160089054906101000a900460ff1615905060008260000160009054906101000a900467ffffffffffffffff1690506000808267ffffffffffffffff161480156107235750825b9050600060018367ffffffffffffffff16148015610758575060003073ffffffffffffffffffffffffffffffffffffffff163b145b905081158015610766575080155b1561079d576040517ff92ee8a900000000000000000000000000000000000000000000000000000000815260040160405180910390fd5b60018560000160006101000a81548167ffffffffffffffff021916908367ffffffffffffffff16021790555083156107ed5760018560000160086101000a81548160ff0219169083151502179055505b600073ffffffffffffffffffffffffffffffffffffffff168673ffffffffffffffffffffffffffffffffffffffff1603610853576040517fd92e233d00000000000000000000000000000000000000000000000000000000815260040160405180910390fd5b61085b6111d2565b6108636111dc565b61086b6111e6565b6108786000801b87610c0a565b506108a37fbf233dd2aafeb4d50879c4aa5c81e96d92f6e6945c906a58f9f2d1c1631b4b2687610c0a565b5083156109005760008560000160086101000a81548160ff0219169083151502179055507fc7f505b2f371ae2175ee4913f4499e1f2633a7b5936321eed1cdaeb6115181d260016040516108f79190611dae565b60405180910390a15b505050505050565b61091182610483565b61091a81610bf6565b6109248383610d13565b50505050565b6000801b61093781610bf6565b61093f6111f0565b600073ffffffffffffffffffffffffffffffffffffffff168673ffffffffffffffffffffffffffffffffffffffff16036109a5576040517fd92e233d00000000000000000000000000000000000000000000000000000000815260040160405180910390fd5b600073ffffffffffffffffffffffffffffffffffffffff168573ffffffffffffffffffffffffffffffffffffffff1603610a0b576040517fd92e233d00000000000000000000000000000000000000000000000000000000815260040160405180910390fd5b60008403610a45576040517f1f2a200500000000000000000000000000000000000000000000000000000000815260040160405180910390fd5b610a7085858873ffffffffffffffffffffffffffffffffffffffff166112319092919063ffffffff16565b8473ffffffffffffffffffffffffffffffffffffffff168673ffffffffffffffffffffffffffffffffffffffff167f8cf17419ff0a8c77630613532ebb3112bf4adf5f95adeb16794fc57028e7dd58868686604051610ad193929190611df6565b60405180910390a3505050505050565b60008173ffffffffffffffffffffffffffffffffffffffff166370a08231306040518263ffffffff1660e01b8152600401610b1c9190611e37565b602060405180830381865afa158015610b39573d6000803e3d6000fd5b505050506040513d601f19601f82011682018060405250810190610b5d9190611e67565b9050919050565b60007f01ffc9a7000000000000000000000000000000000000000000000000000000007bffffffffffffffffffffffffffffffffffffffffffffffffffffffff1916827bffffffffffffffffffffffffffffffffffffffffffffffffffffffff1916149050919050565b60007f02dd7bc7dec4dceedda775e58dd541e08a116c6c53815c0bd028192f7b626800905090565b610c0781610c02610d0b565b6112b0565b50565b600080610c15610bce565b9050610c218484610612565b610cff57600181600001600086815260200190815260200160002060000160008573ffffffffffffffffffffffffffffffffffffffff1673ffffffffffffffffffffffffffffffffffffffff16815260200190815260200160002060006101000a81548160ff021916908315150217905550610c9b610d0b565b73ffffffffffffffffffffffffffffffffffffffff168373ffffffffffffffffffffffffffffffffffffffff16857f2f8788117e7eff1d82e926ec794901d17c78024a50270940304540a733656f0d60405160405180910390a46001915050610d05565b60009150505b92915050565b600033905090565b600080610d1e610bce565b9050610d2a8484610612565b15610e0957600081600001600086815260200190815260200160002060000160008573ffffffffffffffffffffffffffffffffffffffff1673ffffffffffffffffffffffffffffffffffffffff16815260200190815260200160002060006101000a81548160ff021916908315150217905550610da5610d0b565b73ffffffffffffffffffffffffffffffffffffffff168373ffffffffffffffffffffffffffffffffffffffff16857ff6391f5c32d9c69d2a47ea670b442974b53935d1edc7fd64eb21e047a839171b60405160405180910390a46001915050610e0f565b60009150505b92915050565b610e1d611301565b6000610e27611124565b905060008160000160006101000a81548160ff0219169083151502179055507f5db9ee0a495bf2e6ff9c91a7834c1ba4fdd244a5e8aa4e537bd38aeae4b073aa610e6f610d0b565b604051610e7c9190611e37565b60405180910390a150565b7f000000000000000000000000000000000000000000000000000000000000000073ffffffffffffffffffffffffffffffffffffffff163073ffffffffffffffffffffffffffffffffffffffff161480610f3457507f000000000000000000000000000000000000000000000000000000000000000073ffffffffffffffffffffffffffffffffffffffff16610f1b611341565b73ffffffffffffffffffffffffffffffffffffffff1614155b15610f6b576040517fe07c8dba00000000000000000000000000000000000000000000000000000000815260040160405180910390fd5b565b6000801b610f7a81610bf6565b5050565b8173ffffffffffffffffffffffffffffffffffffffff166352d1902d6040518163ffffffff1660e01b8152600401602060405180830381865afa925050508015610fe657506040513d601f19601f82011682018060405250810190610fe39190611ea9565b60015b61102757816040517f4c9c8ce300000000000000000000000000000000000000000000000000000000815260040161101e9190611e37565b60405180910390fd5b7f360894a13ba1a3210667c828492db98dca3e2076cc3735a920a3ca505d382bbc60001b811461108e57806040517faa1d49a4000000000000000000000000000000000000000000000000000000008152600401611085919061188b565b60405180910390fd5b6110988383611398565b505050565b7f000000000000000000000000000000000000000000000000000000000000000073ffffffffffffffffffffffffffffffffffffffff163073ffffffffffffffffffffffffffffffffffffffff1614611122576040517fe07c8dba00000000000000000000000000000000000000000000000000000000815260040160405180910390fd5b565b60007fcd5ed15c6e187e77e9aee88184c21f4f2182ab5827cb3b7e07fbedcd63f03300905090565b6111546111f0565b600061115e611124565b905060018160000160006101000a81548160ff0219169083151502179055507f62e78cea01bee320cd4e420270b5ea74000d11b0c9f74754ebdbfc544b05a2586111a6610d0b565b6040516111b39190611e37565b60405180910390a150565b6000806111c961140b565b90508091505090565b6111da611436565b565b6111e4611436565b565b6111ee611436565b565b6111f86105b8565b1561122f576040517fd93c066500000000000000000000000000000000000000000000000000000000815260040160405180910390fd5b565b6112ab838473ffffffffffffffffffffffffffffffffffffffff1663a9059cbb8585604051602401611264929190611ed6565b604051602081830303815290604052915060e01b6020820180517bffffffffffffffffffffffffffffffffffffffffffffffffffffffff8381831617835250505050611476565b505050565b6112ba8282610612565b6112fd5780826040517fe2517d3f0000000000000000000000000000000000000000000000000000000081526004016112f4929190611eff565b60405180910390fd5b5050565b6113096105b8565b61133f576040517f8dfc202b00000000000000000000000000000000000000000000000000000000815260040160405180910390fd5b565b600061136f7f360894a13ba1a3210667c828492db98dca3e2076cc3735a920a3ca505d382bbc60001b611518565b60000160009054906101000a900473ffffffffffffffffffffffffffffffffffffffff16905090565b6113a182611522565b8173ffffffffffffffffffffffffffffffffffffffff167fbc7cd75a20ee27fd9adebab32041f755214dbc6bffa90cc0225b39da2e5c2d3b60405160405180910390a26000815111156113fe576113f882826115ef565b50611407565b611406611673565b5b5050565b60007ff0c57e16840df040f15088dc2f81fe391c3923bec73e23a9662efc9c229c6a0060001b905090565b61143e6116b0565b611474576040517fd7e6bcf800000000000000000000000000000000000000000000000000000000815260040160405180910390fd5b565b600080602060008451602086016000885af180611499576040513d6000823e3d81fd5b3d9250600051915050600082146114b45760018114156114d0565b60008473ffffffffffffffffffffffffffffffffffffffff163b145b1561151257836040517f5274afe70000000000000000000000000000000000000000000000000000000081526004016115099190611e37565b60405180910390fd5b50505050565b6000819050919050565b60008173ffffffffffffffffffffffffffffffffffffffff163b0361157e57806040517f4c9c8ce30000000000000000000000000000000000000000000000000000000081526004016115759190611e37565b60405180910390fd5b806115ab7f360894a13ba1a3210667c828492db98dca3e2076cc3735a920a3ca505d382bbc60001b611518565b60000160006101000a81548173ffffffffffffffffffffffffffffffffffffffff021916908373ffffffffffffffffffffffffffffffffffffffff16021790555050565b60606000808473ffffffffffffffffffffffffffffffffffffffff16846040516116199190611f6f565b600060405180830381855af49150503d8060008114611654576040519150601f19603f3d011682016040523d82523d6000602084013e611659565b606091505b50915091506116698583836116d0565b9250505092915050565b60003411156116ae576040517fb398979f00000000000000000000000000000000000000000000000000000000815260040160405180910390fd5b565b60006116ba6111be565b60000160089054906101000a900460ff16905090565b6060826116e5576116e08261175f565b611757565b6000825114801561170d575060008473ffffffffffffffffffffffffffffffffffffffff163b145b1561174f57836040517f9996b3150000000000000000000000000000000000000000000000000000000081526004016117469190611e37565b60405180910390fd5b819050611758565b5b9392505050565b60008151111561177157805160208201fd5b6040517fd6bda27500000000000000000000000000000000000000000000000000000000815260040160405180910390fd5b6000604051905090565b600080fd5b600080fd5b60007fffffffff0000000000000000000000000000000000000000000000000000000082169050919050565b6117ec816117b7565b81146117f757600080fd5b50565b600081359050611809816117e3565b92915050565b600060208284031215611825576118246117ad565b5b6000611833848285016117fa565b91505092915050565b60008115159050919050565b6118518161183c565b82525050565b600060208201905061186c6000830184611848565b92915050565b6000819050919050565b61188581611872565b82525050565b60006020820190506118a0600083018461187c565b92915050565b6118af81611872565b81146118ba57600080fd5b50565b6000813590506118cc816118a6565b92915050565b6000602082840312156118e8576118e76117ad565b5b60006118f6848285016118bd565b91505092915050565b600073ffffffffffffffffffffffffffffffffffffffff82169050919050565b600061192a826118ff565b9050919050565b61193a8161191f565b811461194557600080fd5b50565b60008135905061195781611931565b92915050565b60008060408385031215611974576119736117ad565b5b6000611982858286016118bd565b925050602061199385828601611948565b9150509250929050565b600080fd5b600080fd5b6000601f19601f8301169050919050565b7f4e487b7100000000000000000000000000000000000000000000000000000000600052604160045260246000fd5b6119f0826119a7565b810181811067ffffffffffffffff82111715611a0f57611a0e6119b8565b5b80604052505050565b6000611a226117a3565b9050611a2e82826119e7565b919050565b600067ffffffffffffffff821115611a4e57611a4d6119b8565b5b611a57826119a7565b9050602081019050919050565b82818337600083830152505050565b6000611a86611a8184611a33565b611a18565b905082815260208101848484011115611aa257611aa16119a2565b5b611aad848285611a64565b509392505050565b600082601f830112611aca57611ac961199d565b5b8135611ada848260208601611a73565b91505092915050565b60008060408385031215611afa57611af96117ad565b5b6000611b0885828601611948565b925050602083013567ffffffffffffffff811115611b2957611b286117b2565b5b611b3585828601611ab5565b9150509250929050565b600081519050919050565b600082825260208201905092915050565b60005b83811015611b79578082015181840152602081019050611b5e565b60008484015250505050565b6000611b9082611b3f565b611b9a8185611b4a565b9350611baa818560208601611b5b565b611bb3816119a7565b840191505092915050565b60006020820190508181036000830152611bd88184611b85565b905092915050565b600060208284031215611bf657611bf56117ad565b5b6000611c0484828501611948565b91505092915050565b6000819050919050565b611c2081611c0d565b8114611c2b57600080fd5b50565b600081359050611c3d81611c17565b92915050565b600080fd5b600080fd5b60008083601f840112611c6357611c6261199d565b5b8235905067ffffffffffffffff811115611c8057611c7f611c43565b5b602083019150836001820283011115611c9c57611c9b611c48565b5b9250929050565b600080600080600060808688031215611cbf57611cbe6117ad565b5b6000611ccd88828901611948565b9550506020611cde88828901611948565b9450506040611cef88828901611c2e565b935050606086013567ffffffffffffffff811115611d1057611d0f6117b2565b5b611d1c88828901611c4d565b92509250509295509295909350565b611d3481611c0d565b82525050565b6000602082019050611d4f6000830184611d2b565b92915050565b6000819050919050565b600067ffffffffffffffff82169050919050565b6000819050919050565b6000611d98611d93611d8e84611d55565b611d73565b611d5f565b9050919050565b611da881611d7d565b82525050565b6000602082019050611dc36000830184611d9f565b92915050565b6000611dd58385611b4a565b9350611de2838584611a64565b611deb836119a7565b840190509392505050565b6000604082019050611e0b6000830186611d2b565b8181036020830152611e1e818486611dc9565b9050949350505050565b611e318161191f565b82525050565b6000602082019050611e4c6000830184611e28565b92915050565b600081519050611e6181611c17565b92915050565b600060208284031215611e7d57611e7c6117ad565b5b6000611e8b84828501611e52565b91505092915050565b600081519050611ea3816118a6565b92915050565b600060208284031215611ebf57611ebe6117ad565b5b6000611ecd84828501611e94565b91505092915050565b6000604082019050611eeb6000830185611e28565b611ef86020830184611d2b565b9392505050565b6000604082019050611f146000830185611e28565b611f21602083018461187c565b9392505050565b600081519050919050565b600081905092915050565b6000611f4982611f28565b611f538185611f33565b9350611f63818560208601611b5b565b80840191505092915050565b6000611f7b8284611f3e565b91508190509291505056fea26469706673582212202bfec7fa9d5eaec72c2d31d8beffdede9fd284b03cd3f9f27b28f8da6cb45c8f64736f6c634300081b0033",
  "linkReferences": {},
  "deployedLinkReferences": {}
}