{
  "_format": "hh-sol-artifact-1",
  "contractName": "RewardEngine",
  "sourceName": "contracts/RewardEngine.sol",
  "abi": [
    {
      "inputs": [],
      "stateMutability": "nonpayable",
      "type": "constructor"
    },
    {
      "inputs": [],
      "name": "AccessControlBadConfirmation",
      "type": "error"
    },
    {
      "inputs": [
        {
          "internalType": "address",
          "name": "account",
          "type": "address"
        },
        {
          "internalType": "bytes32",
          "name": "neededRole",
          "type": "bytes32"
        }
      ],
      "name": "AccessControlUnauthorizedAccount",
      "type": "error"
    },
    {
      "inputs": [
        {
          "internalType": "address",
          "name": "target",
          "type": "address"
        }
      ],
      "name": "AddressEmptyCode",
      "type": "error"
    },
    {
      "inputs": [
        {
          "internalType": "address",
          "name": "implementation",
          "type": "address"
        }
      ],
      "name": "ERC1967InvalidImplementation",
      "type": "error"
    },
    {
      "inputs": [],
      "name": "ERC1967NonPayable",
      "type": "error"
    },
    {
      "inputs": [],
      "name": "EnforcedPause",
      "type": "error"
    },
    {
      "inputs": [],
      "name": "ExpectedPause",
      "type": "error"
    },
    {
      "inputs": [],
      "name": "FailedCall",
      "type": "error"
    },
    {
      "inputs": [
        {
          "internalType": "uint256",
          "name": "requested",
          "type": "uint256"
        },
        {
          "internalType": "uint256",
          "name": "available",
          "type": "uint256"
        }
      ],
      "name": "InsufficientRewardPool",
      "type": "error"
    },
    {
      "inputs": [],
      "name": "InvalidInitialization",
      "type": "error"
    },
    {
      "inputs": [],
      "name": "InvalidPercentage",
      "type": "error"
    },
    {
      "inputs": [],
      "name": "NoRewardsToClaim",
      "type": "error"
    },
    {
      "inputs": [],
      "name": "NotInitializing",
      "type": "error"
    },
    {
      "inputs": [],
      "name": "NotUserOrOperator",
      "type": "error"
    },
    {
      "inputs": [],
      "name": "ReentrancyGuardReentrantCall",
      "type": "error"
    },
    {
      "inputs": [
        {
          "internalType": "address",
          "name": "token",
          "type": "address"
        }
      ],
      "name": "SafeERC20FailedOperation",
      "type": "error"
    },
    {
      "inputs": [],
      "name": "StakingVaultNotSet",
      "type": "error"
    },
    {
      "inputs": [],
      "name": "UUPSUnauthorizedCallContext",
      "type": "error"
    },
    {
      "inputs": [
        {
          "internalType": "bytes32",
          "name": "slot",
          "type": "bytes32"
        }
      ],
      "name": "UUPSUnsupportedProxiableUUID",
      "type": "error"
    },
    {
      "inputs": [],
      "name": "VaultNotActive",
      "type": "error"
    },
    {
      "inputs": [],
      "name": "VestingPoolNotSet",
      "type": "error"
    },
    {
      "inputs": [],
      "name": "WithdrawalWalletNotSet",
      "type": "error"
    },
    {
      "inputs": [],
      "name": "ZeroAddress",
      "type": "error"
    },
    {
      "inputs": [],
      "name": "ZeroAmount",
      "type": "error"
    },
    {
      "anonymous": false,
      "inputs": [
        {
          "indexed": true,
          "internalType": "address",
          "name": "oldAddr",
          "type": "address"
        },
        {
          "indexed": true,
          "internalType": "address",
          "name": "newAddr",
          "type": "address"
        }
      ],
      "name": "BonusEngineUpdated",
      "type": "event"
    },
    {
      "anonymous": false,
      "inputs": [
        {
          "indexed": false,
          "internalType": "uint256",
          "name": "oldPct",
          "type": "uint256"
        },
        {
          "indexed": false,
          "internalType": "uint256",
          "name": "newPct",
          "type": "uint256"
        }
      ],
      "name": "BonusLiquidSplitUpdated",
      "type": "event"
    },
    {
      "anonymous": false,
      "inputs": [
        {
          "indexed": false,
          "internalType": "uint256",
          "name": "oldBps",
          "type": "uint256"
        },
        {
          "indexed": false,
          "internalType": "uint256",
          "name": "newBps",
          "type": "uint256"
        }
      ],
      "name": "CompoundingBoostBpsUpdated",
      "type": "event"
    },
    {
      "anonymous": false,
      "inputs": [
        {
          "indexed": true,
          "internalType": "address",
          "name": "user",
          "type": "address"
        },
        {
          "indexed": false,
          "internalType": "bool",
          "name": "enabled",
          "type": "bool"
        }
      ],
      "name": "CompoundingBoostUpdated",
      "type": "event"
    },
    {
      "anonymous": false,
      "inputs": [
        {
          "indexed": false,
          "internalType": "uint64",
          "name": "version",
          "type": "uint64"
        }
      ],
      "name": "Initialized",
      "type": "event"
    },
    {
      "anonymous": false,
      "inputs": [
        {
          "indexed": false,
          "internalType": "uint8",
          "name": "programType",
          "type": "uint8"
        },
        {
          "indexed": false,
          "internalType": "uint256",
          "name": "oldPct",
          "type": "uint256"
        },
        {
          "indexed": false,
          "internalType": "uint256",
          "name": "newPct",
          "type": "uint256"
        }
      ],
      "name": "LiquidSplitUpdated",
      "type": "event"
    },
    {
      "anonymous": false,
      "inputs": [
        {
          "indexed": false,
          "internalType": "address",
          "name": "account",
          "type": "address"
        }
      ],
      "name": "Paused",
      "type": "event"
    },
    {
      "anonymous": false,
      "inputs": [
        {
          "indexed": true,
          "internalType": "address",
          "name": "user",
          "type": "address"
        },
        {
          "indexed": false,
          "internalType": "uint256",
          "name": "amount",
          "type": "uint256"
        }
      ],
      "name": "RewardAccrued",
      "type": "event"
    },
    {
      "anonymous": false,
      "inputs": [
        {
          "indexed": true,
          "internalType": "address",
          "name": "user",
          "type": "address"
        },
        {
          "indexed": false,
          "internalType": "uint256",
          "name": "totalReward",
          "type": "uint256"
        },
        {
          "indexed": false,
          "internalType": "uint256",
          "name": "liquidAmount",
          "type": "uint256"
        },
        {
          "indexed": false,
          "internalType": "uint256",
          "name": "shortVestedAmount",
          "type": "uint256"
        },
        {
          "indexed": false,
          "internalType": "uint256",
          "name": "longVestedAmount",
          "type": "uint256"
        }
      ],
      "name": "RewardSettled",
      "type": "event"
    },
    {
      "anonymous": false,
      "inputs": [
        {
          "indexed": true,
          "internalType": "address",
          "name": "funder",
          "type": "address"
        },
        {
          "indexed": false,
          "internalType": "uint256",
          "name": "amount",
          "type": "uint256"
        }
      ],
      "name": "RewardsFunded",
      "type": "event"
    },
    {
      "anonymous": false,
      "inputs": [
        {
          "indexed": true,
          "internalType": "bytes32",
          "name": "role",
          "type": "bytes32"
        },
        {
          "indexed": true,
          "internalType": "bytes32",
          "name": "previousAdminRole",
          "type": "bytes32"
        },
        {
          "indexed": true,
          "internalType": "bytes32",
          "name": "newAdminRole",
          "type": "bytes32"
        }
      ],
      "name": "RoleAdminChanged",
      "type": "event"
    },
    {
      "anonymous": false,
      "inputs": [
        {
          "indexed": true,
          "internalType": "bytes32",
          "name": "role",
          "type": "bytes32"
        },
        {
          "indexed": true,
          "internalType": "address",
          "name": "account",
          "type": "address"
        },
        {
          "indexed": true,
          "internalType": "address",
          "name": "sender",
          "type": "address"
        }
      ],
      "name": "RoleGranted",
      "type": "event"
    },
    {
      "anonymous": false,
      "inputs": [
        {
          "indexed": true,
          "internalType": "bytes32",
          "name": "role",
          "type": "bytes32"
        },
        {
          "indexed": true,
          "internalType": "address",
          "name": "account",
          "type": "address"
        },
        {
          "indexed": true,
          "internalType": "address",
          "name": "sender",
          "type": "address"
        }
      ],
      "name": "RoleRevoked",
      "type": "event"
    },
    {
      "anonymous": false,
      "inputs": [
        {
          "indexed": true,
          "internalType": "address",
          "name": "oldAddr",
          "type": "address"
        },
        {
          "indexed": true,
          "internalType": "address",
          "name": "newAddr",
          "type": "address"
        }
      ],
      "name": "StakingVaultUpdated",
      "type": "event"
    },
    {
      "anonymous": false,
      "inputs": [
        {
          "indexed": false,
          "internalType": "address",
          "name": "account",
          "type": "address"
        }
      ],
      "name": "Unpaused",
      "type": "event"
    },
    {
      "anonymous": false,
      "inputs": [
        {
          "indexed": true,
          "internalType": "address",
          "name": "implementation",
          "type": "address"
        }
      ],
      "name": "Upgraded",
      "type": "event"
    },
    {
      "anonymous": false,
      "inputs": [
        {
          "indexed": true,
          "internalType": "address",
          "name": "oldAddr",
          "type": "address"
        },
        {
          "indexed": true,
          "internalType": "address",
          "name": "newAddr",
          "type": "address"
        }
      ],
      "name": "VaultManagerUpdated",
      "type": "event"
    },
    {
      "anonymous": false,
      "inputs": [
        {
          "indexed": true,
          "internalType": "address",
          "name": "oldAddr",
          "type": "address"
        },
        {
          "indexed": true,
          "internalType": "address",
          "name": "newAddr",
          "type": "address"
        }
      ],
      "name": "VestingPoolUpdated",
      "type": "event"
    },
    {
      "anonymous": false,
      "inputs": [
        {
          "indexed": true,
          "internalType": "address",
          "name": "oldAddr",
          "type": "address"
        },
        {
          "indexed": true,
          "internalType": "address",
          "name": "newAddr",
          "type": "address"
        }
      ],
      "name": "WithdrawalWalletUpdated",
      "type": "event"
    },
    {
      "inputs": [],
      "name": "DEFAULT_ADMIN_ROLE",
      "outputs": [
        {
          "internalType": "bytes32",
          "name": "",
          "type": "bytes32"
        }
      ],
      "stateMutability": "view",
      "type": "function"
    },
    {
      "inputs": [],
      "name": "EMERGENCY_ROLE",
      "outputs": [
        {
          "internalType": "bytes32",
          "name": "",
          "type": "bytes32"
        }
      ],
      "stateMutability": "view",
      "type": "function"
    },
    {
      "inputs": [],
      "name": "OPERATOR_ROLE",
      "outputs": [
        {
          "internalType": "bytes32",
          "name": "",
          "type": "bytes32"
        }
      ],
      "stateMutability": "view",
      "type": "function"
    },
    {
      "inputs": [],
      "name": "UPGRADE_INTERFACE_VERSION",
      "outputs": [
        {
          "internalType": "string",
          "name": "",
          "type": "string"
        }
      ],
      "stateMutability": "view",
      "type": "function"
    },
    {
      "inputs": [
        {
          "internalType": "address",
          "name": "user",
          "type": "address"
        },
        {
          "internalType": "uint256",
          "name": "amount",
          "type": "uint256"
        }
      ],
      "name": "addPendingReward",
      "outputs": [],
      "stateMutability": "nonpayable",
      "type": "function"
    },
    {
      "inputs": [],
      "name": "bonusEngine",
      "outputs": [
        {
          "internalType": "address",
          "name": "",
          "type": "address"
        }
      ],
      "stateMutability": "view",
      "type": "function"
    },
    {
      "inputs": [],
      "name": "bonusLiquidPct",
      "outputs": [
        {
          "internalType": "uint256",
          "name": "",
          "type": "uint256"
        }
      ],
      "stateMutability": "view",
      "type": "function"
    },
    {
      "inputs": [],
      "name": "btnToken",
      "outputs": [
        {
          "internalType": "contract IERC20",
          "name": "",
          "type": "address"
        }
      ],
      "stateMutability": "view",
      "type": "function"
    },
    {
      "inputs": [
        {
          "internalType": "address",
          "name": "user",
          "type": "address"
        },
        {
          "internalType": "uint256",
          "name": "stakeIndex",
          "type": "uint256"
        }
      ],
      "name": "calculateReward",
      "outputs": [
        {
          "internalType": "uint256",
          "name": "",
          "type": "uint256"
        }
      ],
      "stateMutability": "view",
      "type": "function"
    },
    {
      "inputs": [
        {
          "internalType": "address",
          "name": "",
          "type": "address"
        }
      ],
      "name": "compoundingBoost",
      "outputs": [
        {
          "internalType": "bool",
          "name": "",
          "type": "bool"
        }
      ],
      "stateMutability": "view",
      "type": "function"
    },
    {
      "inputs": [],
      "name": "compoundingBoostBps",
      "outputs": [
        {
          "internalType": "uint256",
          "name": "",
          "type": "uint256"
        }
      ],
      "stateMutability": "view",
      "type": "function"
    },
    {
      "inputs": [
        {
          "internalType": "uint256",
          "name": "amount",
          "type": "uint256"
        }
      ],
      "name": "fundRewards",
      "outputs": [],
      "stateMutability": "nonpayable",
      "type": "function"
    },
    {
      "inputs": [
        {
          "internalType": "bytes32",
          "name": "role",
          "type": "bytes32"
        }
      ],
      "name": "getRoleAdmin",
      "outputs": [
        {
          "internalType": "bytes32",
          "name": "",
          "type": "bytes32"
        }
      ],
      "stateMutability": "view",
      "type": "function"
    },
    {
      "inputs": [
        {
          "internalType": "address",
          "name": "user",
          "type": "address"
        }
      ],
      "name": "getTotalPending",
      "outputs": [
        {
          "internalType": "uint256",
          "name": "",
          "type": "uint256"
        }
      ],
      "stateMutability": "view",
      "type": "function"
    },
    {
      "inputs": [
        {
          "internalType": "bytes32",
          "name": "role",
          "type": "bytes32"
        },
        {
          "internalType": "address",
          "name": "account",
          "type": "address"
        }
      ],
      "name": "grantRole",
      "outputs": [],
      "stateMutability": "nonpayable",
      "type": "function"
    },
    {
      "inputs": [
        {
          "internalType": "bytes32",
          "name": "role",
          "type": "bytes32"
        },
        {
          "internalType": "address",
          "name": "account",
          "type": "address"
        }
      ],
      "name": "hasRole",
      "outputs": [
        {
          "internalType": "bool",
          "name": "",
          "type": "bool"
        }
      ],
      "stateMutability": "view",
      "type": "function"
    },
    {
      "inputs": [
        {
          "internalType": "address",
          "name": "_btnToken",
          "type": "address"
        },
        {
          "internalType": "address",
          "name": "_stakingVault",
          "type": "address"
        },
        {
          "internalType": "address",
          "name": "_vestingPool",
          "type": "address"
        },
        {
          "internalType": "address",
          "name": "_withdrawalWallet",
          "type": "address"
        },
        {
          "internalType": "address",
          "name": "_vaultManager",
          "type": "address"
        },
        {
          "internalType": "address",
          "name": "_admin",
          "type": "address"
        }
      ],
      "name": "initialize",
      "outputs": [],
      "stateMutability": "nonpayable",
      "type": "function"
    },
    {
      "inputs": [
        {
          "internalType": "address",
          "name": "",
          "type": "address"
        }
      ],
      "name": "lastSettlementTime",
      "outputs": [
        {
          "internalType": "uint256",
          "name": "",
          "type": "uint256"
        }
      ],
      "stateMutability": "view",
      "type": "function"
    },
    {
      "inputs": [
        {
          "internalType": "uint8",
          "name": "",
          "type": "uint8"
        }
      ],
      "name": "liquidSplitPct",
      "outputs": [
        {
          "internalType": "uint256",
          "name": "",
          "type": "uint256"
        }
      ],
      "stateMutability": "view",
      "type": "function"
    },
    {
      "inputs": [],
      "name": "pause",
      "outputs": [],
      "stateMutability": "nonpayable",
      "type": "function"
    },
    {
      "inputs": [],
      "name": "paused",
      "outputs": [
        {
          "internalType": "bool",
          "name": "",
          "type": "bool"
        }
      ],
      "stateMutability": "view",
      "type": "function"
    },
    {
      "inputs": [
        {
          "internalType": "address",
          "name": "",
          "type": "address"
        }
      ],
      "name": "pendingReward",
      "outputs": [
        {
          "internalType": "uint256",
          "name": "",
          "type": "uint256"
        }
      ],
      "stateMutability": "view",
      "type": "function"
    },
    {
      "inputs": [],
      "name": "proxiableUUID",
      "outputs": [
        {
          "internalType": "bytes32",
          "name": "",
          "type": "bytes32"
        }
      ],
      "stateMutability": "view",
      "type": "function"
    },
    {
      "inputs": [
        {
          "internalType": "bytes32",
          "name": "role",
          "type": "bytes32"
        },
        {
          "internalType": "address",
          "name": "callerConfirmation",
          "type": "address"
        }
      ],
      "name": "renounceRole",
      "outputs": [],
      "stateMutability": "nonpayable",
      "type": "function"
    },
    {
      "inputs": [
        {
          "internalType": "bytes32",
          "name": "role",
          "type": "bytes32"
        },
        {
          "internalType": "address",
          "name": "account",
          "type": "address"
        }
      ],
      "name": "revokeRole",
      "outputs": [],
      "stateMutability": "nonpayable",
      "type": "function"
    },
    {
      "inputs": [],
      "name": "rewardPoolBalance",
      "outputs": [
        {
          "internalType": "uint256",
          "name": "",
          "type": "uint256"
        }
      ],
      "stateMutability": "view",
      "type": "function"
    },
    {
      "inputs": [
        {
          "internalType": "address",
          "name": "_bonusEngine",
          "type": "address"
        }
      ],
      "name": "setBonusEngine",
      "outputs": [],
      "stateMutability": "nonpayable",
      "type": "function"
    },
    {
      "inputs": [
        {
          "internalType": "uint256",
          "name": "pct",
          "type": "uint256"
        }
      ],
      "name": "setBonusLiquidPct",
      "outputs": [],
      "stateMutability": "nonpayable",
      "type": "function"
    },
    {
      "inputs": [
        {
          "internalType": "address",
          "name": "user",
          "type": "address"
        },
        {
          "internalType": "bool",
          "name": "enabled",
          "type": "bool"
        }
      ],
      "name": "setCompoundingBoost",
      "outputs": [],
      "stateMutability": "nonpayable",
      "type": "function"
    },
    {
      "inputs": [
        {
          "internalType": "uint256",
          "name": "bps",
          "type": "uint256"
        }
      ],
      "name": "setCompoundingBoostBps",
      "outputs": [],
      "stateMutability": "nonpayable",
      "type": "function"
    },
    {
      "inputs": [
        {
          "internalType": "uint8",
          "name": "programType",
          "type": "uint8"
        },
        {
          "internalType": "uint256",
          "name": "pct",
          "type": "uint256"
        }
      ],
      "name": "setLiquidSplitPct",
      "outputs": [],
      "stateMutability": "nonpayable",
      "type": "function"
    },
    {
      "inputs": [
        {
          "internalType": "address",
          "name": "_stakingVault",
          "type": "address"
        }
      ],
      "name": "setStakingVault",
      "outputs": [],
      "stateMutability": "nonpayable",
      "type": "function"
    },
    {
      "inputs": [
        {
          "internalType": "address",
          "name": "_vaultManager",
          "type": "address"
        }
      ],
      "name": "setVaultManager",
      "outputs": [],
      "stateMutability": "nonpayable",
      "type": "function"
    },
    {
      "inputs": [
        {
          "internalType": "address",
          "name": "_vestingPool",
          "type": "address"
        }
      ],
      "name": "setVestingPool",
      "outputs": [],
      "stateMutability": "nonpayable",
      "type": "function"
    },
    {
      "inputs": [
        {
          "internalType": "address",
          "name": "_withdrawalWallet",
          "type": "address"
        }
      ],
      "name": "setWithdrawalWallet",
      "outputs": [],
      "stateMutability": "nonpayable",
      "type": "function"
    },
    {
      "inputs": [
        {
          "internalType": "address",
          "name": "user",
          "type": "address"
        }
      ],
      "name": "settleWeekly",
      "outputs": [],
      "stateMutability": "nonpayable",
      "type": "function"
    },
    {
      "inputs": [],
      "name": "stakingVault",
      "outputs": [
        {
          "internalType": "address",
          "name": "",
          "type": "address"
        }
      ],
      "stateMutability": "view",
      "type": "function"
    },
    {
      "inputs": [
        {
          "internalType": "bytes4",
          "name": "interfaceId",
          "type": "bytes4"
        }
      ],
      "name": "supportsInterface",
      "outputs": [
        {
          "internalType": "bool",
          "name": "",
          "type": "bool"
        }
      ],
      "stateMutability": "view",
      "type": "function"
    },
    {
      "inputs": [],
      "name": "unpause",
      "outputs": [],
      "stateMutability": "nonpayable",
      "type": "function"
    },
    {
      "inputs": [
        {
          "internalType": "address",
          "name": "newImplementation",
          "type": "address"
        },
        {
          "internalType": "bytes",
          "name": "data",
          "type": "bytes"
        }
      ],
      "name": "upgradeToAndCall",
      "outputs": [],
      "stateMutability": "payable",
      "type": "function"
    },
    {
      "inputs": [],
      "name": "vaultManager",
      "outputs": [
        {
          "internalType": "address",
          "name": "",
          "type": "address"
        }
      ],
      "stateMutability": "view",
      "type": "function"
    },
    {
      "inputs": [],
      "name": "vestingPool",
      "outputs": [
        {
          "internalType": "address",
          "name": "",
          "type": "address"
        }
      ],
      "stateMutability": "view",
      "type": "function"
    },
    {
      "inputs": [],
      "name": "withdrawalWallet",
      "outputs": [
        {
          "internalType": "address",
          "name": "",
          "type": "address"
        }
      ],
      "stateMutability": "view",
      "type": "function"
    }
  ],
  "bytecode": "0x60a06040523073ffffffffffffffffffffffffffffffffffffffff1660809073ffffffffffffffffffffffffffffffffffffffff1681525034801561004357600080fd5b5061005261005760201b60201c565b6101de565b600061006761015b60201b60201c565b90508060000160089054906101000a900460ff16156100b2576040517ff92ee8a900000000000000000000000000000000000000000000000000000000815260040160405180910390fd5b67ffffffffffffffff80168160000160009054906101000a900467ffffffffffffffff1667ffffffffffffffff16146101585767ffffffffffffffff8160000160006101000a81548167ffffffffffffffff021916908367ffffffffffffffff1602179055507fc7f505b2f371ae2175ee4913f4499e1f2633a7b5936321eed1cdaeb6115181d267ffffffffffffffff60405161014f91906101c3565b60405180910390a15b50565b60008061016c61017560201b60201c565b90508091505090565b60007ff0c57e16840df040f15088dc2f81fe391c3923bec73e23a9662efc9c229c6a0060001b905090565b600067ffffffffffffffff82169050919050565b6101bd816101a0565b82525050565b60006020820190506101d860008301846101b4565b92915050565b60805161482a6102076000396000818161316a015281816131bf0152613380015261482a6000f3fe60806040526004361061025c5760003560e01c80637bde4dfb11610144578063b543503e116100b6578063d547741f1161007a578063d547741f146108d9578063e17483dd14610902578063f40f0f521461092b578063f5b541a614610968578063f5c62d6114610993578063fe560792146109bc5761025c565b8063b543503e14610808578063bbf45c9214610831578063c4070a371461085c578063caf3e66714610887578063cc2a9a5b146108b05761025c565b806393707a191161010857806393707a19146106f657806398d7a7ea1461071f578063a217fddf1461075c578063a525e70a14610787578063ad3cb1cc146107b2578063b43095a5146107dd5761025c565b80637bde4dfb146106115780638456cb591461063a57806386361de4146106515780638a4adf241461068e57806391d14854146106b95761025c565b806336568abe116101dd5780634f1ef286116101a15780634f1ef2861461052257806352d1902d1461053e5780635c975abb14610569578063705776c51461059457806375796f76146105bd5780637a5c08ae146105e65761025c565b806336568abe146104655780633f4ba83a1461048e5780634270f54a146104a557806344c9c469146104ce5780634a7d80b3146104f75761025c565b8063248a9ca311610224578063248a9ca31461036c57806324e7964a146103a95780632f2ff15d146103d45780633154b10e146103fd57806331ec4446146104285761025c565b806301ffc9a7146102615780630f30b8941461029e5780631852e8d9146102c75780631db5b2db1461030457806320df435914610341575b600080fd5b34801561026d57600080fd5b5061028860048036038101906102839190613b0d565b6109e5565b6040516102959190613b55565b60405180910390f35b3480156102aa57600080fd5b506102c560048036038101906102c09190613bce565b610a5f565b005b3480156102d357600080fd5b506102ee60048036038101906102e99190613c31565b610b33565b6040516102fb9190613c80565b60405180910390f35b34801561031057600080fd5b5061032b60048036038101906103269190613bce565b610c62565b6040516103389190613c80565b60405180910390f35b34801561034d57600080fd5b50610356610c7a565b6040516103639190613cb4565b60405180910390f35b34801561037857600080fd5b50610393600480360381019061038e9190613cfb565b610c9e565b6040516103a09190613cb4565b60405180910390f35b3480156103b557600080fd5b506103be610ccc565b6040516103cb9190613d37565b60405180910390f35b3480156103e057600080fd5b506103fb60048036038101906103f69190613d52565b610cf2565b005b34801561040957600080fd5b50610412610d14565b60405161041f9190613d37565b60405180910390f35b34801561043457600080fd5b5061044f600480360381019061044a9190613bce565b610d3a565b60405161045c9190613b55565b60405180910390f35b34801561047157600080fd5b5061048c60048036038101906104879190613d52565b610d5a565b005b34801561049a57600080fd5b506104a3610dd5565b005b3480156104b157600080fd5b506104cc60048036038101906104c79190613dcb565b610ded565b005b3480156104da57600080fd5b506104f560048036038101906104f09190613bce565b610eb2565b005b34801561050357600080fd5b5061050c611bc9565b6040516105199190613d37565b60405180910390f35b61053c60048036038101906105379190613f51565b611bef565b005b34801561054a57600080fd5b50610553611c0e565b6040516105609190613cb4565b60405180910390f35b34801561057557600080fd5b5061057e611c41565b60405161058b9190613b55565b60405180910390f35b3480156105a057600080fd5b506105bb60048036038101906105b69190613fad565b611c66565b005b3480156105c957600080fd5b506105e460048036038101906105df9190613bce565b611cfa565b005b3480156105f257600080fd5b506105fb611dce565b6040516106089190613c80565b60405180910390f35b34801561061d57600080fd5b5061063860048036038101906106339190613fad565b611dd4565b005b34801561064657600080fd5b5061064f611e69565b005b34801561065d57600080fd5b5061067860048036038101906106739190613fda565b611e9e565b6040516106859190613c80565b60405180910390f35b34801561069a57600080fd5b506106a3611eb6565b6040516106b09190613d37565b60405180910390f35b3480156106c557600080fd5b506106e060048036038101906106db9190613d52565b611edc565b6040516106ed9190613b55565b60405180910390f35b34801561070257600080fd5b5061071d60048036038101906107189190613fad565b611f55565b005b34801561072b57600080fd5b5061074660048036038101906107419190613bce565b61205e565b6040516107539190613c80565b60405180910390f35b34801561076857600080fd5b506107716122d8565b60405161077e9190613cb4565b60405180910390f35b34801561079357600080fd5b5061079c6122df565b6040516107a99190613d37565b60405180910390f35b3480156107be57600080fd5b506107c7612305565b6040516107d49190614086565b60405180910390f35b3480156107e957600080fd5b506107f261233e565b6040516107ff9190613c80565b60405180910390f35b34801561081457600080fd5b5061082f600480360381019061082a9190613bce565b612344565b005b34801561083d57600080fd5b50610846612418565b6040516108539190614107565b60405180910390f35b34801561086857600080fd5b5061087161243c565b60405161087e9190613c80565b60405180910390f35b34801561089357600080fd5b506108ae60048036038101906108a9919061414e565b612442565b005b3480156108bc57600080fd5b506108d760048036038101906108d2919061418e565b612516565b005b3480156108e557600080fd5b5061090060048036038101906108fb9190613d52565b61299c565b005b34801561090e57600080fd5b5061092960048036038101906109249190613bce565b6129be565b005b34801561093757600080fd5b50610952600480360381019061094d9190613bce565b612a92565b60405161095f9190613c80565b60405180910390f35b34801561097457600080fd5b5061097d612aaa565b60405161098a9190613cb4565b60405180910390f35b34801561099f57600080fd5b506109ba60048036038101906109b59190613c31565b612ace565b005b3480156109c857600080fd5b506109e360048036038101906109de9190613bce565b612c41565b005b60007f7965db0b000000000000000000000000000000000000000000000000000000007bffffffffffffffffffffffffffffffffffffffffffffffffffffffff1916827bffffffffffffffffffffffffffffffffffffffffffffffffffffffff19161480610a585750610a5782612d15565b5b9050919050565b6000801b610a6c81612d7f565b6000600460009054906101000a900473ffffffffffffffffffffffffffffffffffffffff16905082600460006101000a81548173ffffffffffffffffffffffffffffffffffffffff021916908373ffffffffffffffffffffffffffffffffffffffff1602179055508273ffffffffffffffffffffffffffffffffffffffff168173ffffffffffffffffffffffffffffffffffffffff167f1947dfccefbc89128d738af601d8ae7698be629ae10480e4b6591e0747eb5ce060405160405180910390a3505050565b60008073ffffffffffffffffffffffffffffffffffffffff16600160009054906101000a900473ffffffffffffffffffffffffffffffffffffffff1673ffffffffffffffffffffffffffffffffffffffff1603610bbc576040517f3a840be400000000000000000000000000000000000000000000000000000000815260040160405180910390fd5b600160009054906101000a900473ffffffffffffffffffffffffffffffffffffffff1673ffffffffffffffffffffffffffffffffffffffff1663e4e7c6b484846040518363ffffffff1660e01b8152600401610c1992919061421b565b602060405180830381865afa158015610c36573d6000803e3d6000fd5b505050506040513d601f19601f82011682018060405250810190610c5a9190614259565b905092915050565b60086020528060005260406000206000915090505481565b7fbf233dd2aafeb4d50879c4aa5c81e96d92f6e6945c906a58f9f2d1c1631b4b2681565b600080610ca9612d93565b905080600001600084815260200190815260200160002060010154915050919050565b600160009054906101000a900473ffffffffffffffffffffffffffffffffffffffff1681565b610cfb82610c9e565b610d0481612d7f565b610d0e8383612dbb565b50505050565b600260009054906101000a900473ffffffffffffffffffffffffffffffffffffffff1681565b600b6020528060005260406000206000915054906101000a900460ff1681565b610d62612ebc565b73ffffffffffffffffffffffffffffffffffffffff168173ffffffffffffffffffffffffffffffffffffffff1614610dc6576040517f6697b23200000000000000000000000000000000000000000000000000000000815260040160405180910390fd5b610dd08282612ec4565b505050565b6000801b610de281612d7f565b610dea612fc6565b50565b6000801b610dfa81612d7f565b6064821115610e35576040517f1f3b85d300000000000000000000000000000000000000000000000000000000815260040160405180910390fd5b6000600960008560ff1660ff16815260200190815260200160002054905082600960008660ff1660ff168152602001908152602001600020819055507f4422424d2aa57a216c589b695e2c3caa3df39bc23d26b19c0ae5f084a3fcb8cf848285604051610ea493929190614295565b60405180910390a150505050565b610eba613038565b610ec261308f565b8073ffffffffffffffffffffffffffffffffffffffff163373ffffffffffffffffffffffffffffffffffffffff1614158015610f255750610f237f97667070c54ef182b0f5858b034beac1b6f3089aa2d3188bb1e8929f4fa9b92933611edc565b155b15610f5c576040517fe22a1c4800000000000000000000000000000000000000000000000000000000815260040160405180910390fd5b600073ffffffffffffffffffffffffffffffffffffffff16600160009054906101000a900473ffffffffffffffffffffffffffffffffffffffff1673ffffffffffffffffffffffffffffffffffffffff1603610fe4576040517f3a840be400000000000000000000000000000000000000000000000000000000815260040160405180910390fd5b600073ffffffffffffffffffffffffffffffffffffffff16600260009054906101000a900473ffffffffffffffffffffffffffffffffffffffff1673ffffffffffffffffffffffffffffffffffffffff160361106c576040517f0ee4ff2200000000000000000000000000000000000000000000000000000000815260040160405180910390fd5b600073ffffffffffffffffffffffffffffffffffffffff16600360009054906101000a900473ffffffffffffffffffffffffffffffffffffffff1673ffffffffffffffffffffffffffffffffffffffff16036110f4576040517f08a46ecc00000000000000000000000000000000000000000000000000000000815260040160405180910390fd5b600073ffffffffffffffffffffffffffffffffffffffff16600560009054906101000a900473ffffffffffffffffffffffffffffffffffffffff1673ffffffffffffffffffffffffffffffffffffffff161461121d57600560009054906101000a900473ffffffffffffffffffffffffffffffffffffffff1673ffffffffffffffffffffffffffffffffffffffff16630c5aed57826040518263ffffffff1660e01b81526004016111a59190613d37565b602060405180830381865afa1580156111c2573d6000803e3d6000fd5b505050506040513d601f19601f820116820180604052508101906111e691906142e1565b61121c576040517f1103b9d400000000000000000000000000000000000000000000000000000000815260040160405180910390fd5b5b6000600160009054906101000a900473ffffffffffffffffffffffffffffffffffffffff16905060008173ffffffffffffffffffffffffffffffffffffffff1663cf57ee69846040518263ffffffff1660e01b815260040161127f9190613d37565b602060405180830381865afa15801561129c573d6000803e3d6000fd5b505050506040513d601f19601f820116820180604052508101906112c09190614259565b905060008060008060005b858110156115955760008773ffffffffffffffffffffffffffffffffffffffff1663cfd476638a846040518363ffffffff1660e01b815260040161131092919061421b565b60e060405180830381865afa15801561132d573d6000803e3d6000fd5b505050506040513d601f19601f8201168201806040525081019061135191906143dc565b90508060a001516113625750611588565b60008873ffffffffffffffffffffffffffffffffffffffff1663e4e7c6b48b856040518363ffffffff1660e01b815260040161139f92919061421b565b602060405180830381865afa1580156113bc573d6000803e3d6000fd5b505050506040513d601f19601f820116820180604052508101906113e09190614259565b9050600081036113f1575050611588565b600b60008b73ffffffffffffffffffffffffffffffffffffffff1673ffffffffffffffffffffffffffffffffffffffff16815260200190815260200160002060009054906101000a900460ff16801561144c57506000600c54115b1561147a57612710600c54826114629190614438565b61146c91906144a9565b8161147791906144da565b90505b808761148691906144da565b96508873ffffffffffffffffffffffffffffffffffffffff1663485d4d448b856040518363ffffffff1660e01b81526004016114c392919061421b565b600060405180830381600087803b1580156114dd57600080fd5b505af11580156114f1573d6000803e3d6000fd5b50505050600060096000846060015160ff1660ff1681526020019081526020016000205490506000606482846115279190614438565b61153191906144a9565b905060008184611541919061450e565b9050818961154f91906144da565b98506000856060015160ff160361157357808861156c91906144da565b9750611582565b808761157f91906144da565b96505b50505050505b80806001019150506112cb565b506000600660008973ffffffffffffffffffffffffffffffffffffffff1673ffffffffffffffffffffffffffffffffffffffff168152602001908152602001600020549050600081111561163e5780856115ef91906144da565b945060006064600a54836116039190614438565b61160d91906144a9565b90506000818361161d919061450e565b9050818661162b91906144da565b9550808461163991906144da565b935050505b60008503611678576040517f73380d9900000000000000000000000000000000000000000000000000000000815260040160405180910390fd5b6007548511156116c357846007546040517f230208bb0000000000000000000000000000000000000000000000000000000081526004016116ba929190614542565b60405180910390fd5b84600760008282546116d5919061450e565b925050819055506000600660008a73ffffffffffffffffffffffffffffffffffffffff1673ffffffffffffffffffffffffffffffffffffffff1681526020019081526020016000208190555042600860008a73ffffffffffffffffffffffffffffffffffffffff1673ffffffffffffffffffffffffffffffffffffffff16815260200190815260200160002081905550600084111561186b576117db600360009054906101000a900473ffffffffffffffffffffffffffffffffffffffff168560008054906101000a900473ffffffffffffffffffffffffffffffffffffffff1673ffffffffffffffffffffffffffffffffffffffff166130d09092919063ffffffff16565b600360009054906101000a900473ffffffffffffffffffffffffffffffffffffffff1673ffffffffffffffffffffffffffffffffffffffff16638d780bf589866040518363ffffffff1660e01b815260040161183892919061421b565b600060405180830381600087803b15801561185257600080fd5b505af1158015611866573d6000803e3d6000fd5b505050505b6000831115611974576118e1600260009054906101000a900473ffffffffffffffffffffffffffffffffffffffff168460008054906101000a900473ffffffffffffffffffffffffffffffffffffffff1673ffffffffffffffffffffffffffffffffffffffff166130d09092919063ffffffff16565b600260009054906101000a900473ffffffffffffffffffffffffffffffffffffffff1673ffffffffffffffffffffffffffffffffffffffff16635ded8158898560006040518463ffffffff1660e01b8152600401611941939291906145a6565b600060405180830381600087803b15801561195b57600080fd5b505af115801561196f573d6000803e3d6000fd5b505050505b6000821115611a7d576119ea600260009054906101000a900473ffffffffffffffffffffffffffffffffffffffff168360008054906101000a900473ffffffffffffffffffffffffffffffffffffffff1673ffffffffffffffffffffffffffffffffffffffff166130d09092919063ffffffff16565b600260009054906101000a900473ffffffffffffffffffffffffffffffffffffffff1673ffffffffffffffffffffffffffffffffffffffff16635ded8158898460016040518463ffffffff1660e01b8152600401611a4a93929190614618565b600060405180830381600087803b158015611a6457600080fd5b505af1158015611a78573d6000803e3d6000fd5b505050505b600073ffffffffffffffffffffffffffffffffffffffff16600460009054906101000a900473ffffffffffffffffffffffffffffffffffffffff1673ffffffffffffffffffffffffffffffffffffffff1614611b6357600460009054906101000a900473ffffffffffffffffffffffffffffffffffffffff1673ffffffffffffffffffffffffffffffffffffffff166314c85e7289876040518363ffffffff1660e01b8152600401611b3092919061421b565b600060405180830381600087803b158015611b4a57600080fd5b505af1158015611b5e573d6000803e3d6000fd5b505050505b8773ffffffffffffffffffffffffffffffffffffffff167fd3b3f419e889242884f1c5a66cf27881448d7ae70af585414008f19a0d0afd8686868686604051611baf949392919061464f565b60405180910390a250505050505050611bc661314f565b50565b600360009054906101000a900473ffffffffffffffffffffffffffffffffffffffff1681565b611bf7613168565b611c008261324e565b611c0a828261325f565b5050565b6000611c1861337e565b7f360894a13ba1a3210667c828492db98dca3e2076cc3735a920a3ca505d382bbc60001b905090565b600080611c4c613405565b90508060000160009054906101000a900460ff1691505090565b6000801b611c7381612d7f565b6064821115611cae576040517f1f3b85d300000000000000000000000000000000000000000000000000000000815260040160405180910390fd5b6000600a54905082600a819055507f92e3308cba2beda7d62c6a690872985d3dc319c5a5ba56cda24daed7ce9457858184604051611ced929190614542565b60405180910390a1505050565b6000801b611d0781612d7f565b6000600360009054906101000a900473ffffffffffffffffffffffffffffffffffffffff16905082600360006101000a81548173ffffffffffffffffffffffffffffffffffffffff021916908373ffffffffffffffffffffffffffffffffffffffff1602179055508273ffffffffffffffffffffffffffffffffffffffff168173ffffffffffffffffffffffffffffffffffffffff167f4a19ec3f0b447f69733fc71ae5de1a2747f99590b576d59f94cf1141d920bcb360405160405180910390a3505050565b60075481565b6000801b611de181612d7f565b611388821115611e1d576040517f1f3b85d300000000000000000000000000000000000000000000000000000000815260040160405180910390fd5b6000600c54905082600c819055507f2750ce0da26c6ee3cdd1ac2023196234499c4c0dfc0a3761f2ab071ff1a029dd8184604051611e5c929190614542565b60405180910390a1505050565b7fbf233dd2aafeb4d50879c4aa5c81e96d92f6e6945c906a58f9f2d1c1631b4b26611e9381612d7f565b611e9b61342d565b50565b60096020528060005260406000206000915090505481565b600560009054906101000a900473ffffffffffffffffffffffffffffffffffffffff1681565b600080611ee7612d93565b905080600001600085815260200190815260200160002060000160008473ffffffffffffffffffffffffffffffffffffffff1673ffffffffffffffffffffffffffffffffffffffff16815260200190815260200160002060009054906101000a900460ff1691505092915050565b611f5d613038565b611f6561308f565b60008103611f9f576040517f1f2a200500000000000000000000000000000000000000000000000000000000815260040160405180910390fd5b611fec33308360008054906101000a900473ffffffffffffffffffffffffffffffffffffffff1673ffffffffffffffffffffffffffffffffffffffff1661349f909392919063ffffffff16565b8060076000828254611ffe91906144da565b925050819055503373ffffffffffffffffffffffffffffffffffffffff167fd53214ca07be5520e229c395f05a3e5c0697ec6279184ffbe2758d304fd322cc8260405161204b9190613c80565b60405180910390a261205b61314f565b50565b600080600660008473ffffffffffffffffffffffffffffffffffffffff1673ffffffffffffffffffffffffffffffffffffffff168152602001908152602001600020549050600073ffffffffffffffffffffffffffffffffffffffff16600160009054906101000a900473ffffffffffffffffffffffffffffffffffffffff1673ffffffffffffffffffffffffffffffffffffffff16146122cf576000600160009054906101000a900473ffffffffffffffffffffffffffffffffffffffff16905060008173ffffffffffffffffffffffffffffffffffffffff1663cf57ee69866040518263ffffffff1660e01b815260040161215b9190613d37565b602060405180830381865afa158015612178573d6000803e3d6000fd5b505050506040513d601f19601f8201168201806040525081019061219c9190614259565b905060005b818110156122cb5760008373ffffffffffffffffffffffffffffffffffffffff1663cfd4766388846040518363ffffffff1660e01b81526004016121e692919061421b565b60e060405180830381865afa158015612203573d6000803e3d6000fd5b505050506040513d601f19601f8201168201806040525081019061222791906143dc565b90508060a00151156122bd578373ffffffffffffffffffffffffffffffffffffffff1663e4e7c6b488846040518363ffffffff1660e01b815260040161226e92919061421b565b602060405180830381865afa15801561228b573d6000803e3d6000fd5b505050506040513d601f19601f820116820180604052508101906122af9190614259565b856122ba91906144da565b94505b5080806001019150506121a1565b5050505b80915050919050565b6000801b81565b600460009054906101000a900473ffffffffffffffffffffffffffffffffffffffff1681565b6040518060400160405280600581526020017f352e302e3000000000000000000000000000000000000000000000000000000081525081565b600c5481565b6000801b61235181612d7f565b6000600560009054906101000a900473ffffffffffffffffffffffffffffffffffffffff16905082600560006101000a81548173ffffffffffffffffffffffffffffffffffffffff021916908373ffffffffffffffffffffffffffffffffffffffff1602179055508273ffffffffffffffffffffffffffffffffffffffff168173ffffffffffffffffffffffffffffffffffffffff167f8cfaacab0869ad5307d9175b1a62164d7c9630958cbbc7bc9918133cd6fbb02d60405160405180910390a3505050565b60008054906101000a900473ffffffffffffffffffffffffffffffffffffffff1681565b600a5481565b7f97667070c54ef182b0f5858b034beac1b6f3089aa2d3188bb1e8929f4fa9b92961246c81612d7f565b81600b60008573ffffffffffffffffffffffffffffffffffffffff1673ffffffffffffffffffffffffffffffffffffffff16815260200190815260200160002060006101000a81548160ff0219169083151502179055508273ffffffffffffffffffffffffffffffffffffffff167f15e8ef3dcaf838aab183bae28793597f4d82a1aeefe75b5c4d3c84a9ca6c4f58836040516125099190613b55565b60405180910390a2505050565b6000612520613521565b905060008160000160089054906101000a900460ff1615905060008260000160009054906101000a900467ffffffffffffffff1690506000808267ffffffffffffffff1614801561256e5750825b9050600060018367ffffffffffffffff161480156125a3575060003073ffffffffffffffffffffffffffffffffffffffff163b145b9050811580156125b1575080155b156125e8576040517ff92ee8a900000000000000000000000000000000000000000000000000000000815260040160405180910390fd5b60018560000160006101000a81548167ffffffffffffffff021916908367ffffffffffffffff16021790555083156126385760018560000160086101000a81548160ff0219169083151502179055505b600073ffffffffffffffffffffffffffffffffffffffff168b73ffffffffffffffffffffffffffffffffffffffff160361269e576040517fd92e233d00000000000000000000000000000000000000000000000000000000815260040160405180910390fd5b600073ffffffffffffffffffffffffffffffffffffffff168673ffffffffffffffffffffffffffffffffffffffff1603612704576040517fd92e233d00000000000000000000000000000000000000000000000000000000815260040160405180910390fd5b61270c613535565b61271461353f565b61271c613549565b61272461355b565b6127316000801b87612dbb565b5061275c7f97667070c54ef182b0f5858b034beac1b6f3089aa2d3188bb1e8929f4fa9b92987612dbb565b506127877fbf233dd2aafeb4d50879c4aa5c81e96d92f6e6945c906a58f9f2d1c1631b4b2687612dbb565b508a6000806101000a81548173ffffffffffffffffffffffffffffffffffffffff021916908373ffffffffffffffffffffffffffffffffffffffff16021790555089600160006101000a81548173ffffffffffffffffffffffffffffffffffffffff021916908373ffffffffffffffffffffffffffffffffffffffff16021790555088600260006101000a81548173ffffffffffffffffffffffffffffffffffffffff021916908373ffffffffffffffffffffffffffffffffffffffff16021790555087600360006101000a81548173ffffffffffffffffffffffffffffffffffffffff021916908373ffffffffffffffffffffffffffffffffffffffff16021790555086600560006101000a81548173ffffffffffffffffffffffffffffffffffffffff021916908373ffffffffffffffffffffffffffffffffffffffff1602179055506032600960008060ff16815260200190815260200160002081905550601460096000600160ff16815260200190815260200160002081905550600f60096000600260ff168152602001908152602001600020819055506014600a819055506105dc600c81905550831561298f5760008560000160086101000a81548160ff0219169083151502179055507fc7f505b2f371ae2175ee4913f4499e1f2633a7b5936321eed1cdaeb6115181d2600160405161298691906146d9565b60405180910390a15b5050505050505050505050565b6129a582610c9e565b6129ae81612d7f565b6129b88383612ec4565b50505050565b6000801b6129cb81612d7f565b6000600260009054906101000a900473ffffffffffffffffffffffffffffffffffffffff16905082600260006101000a81548173ffffffffffffffffffffffffffffffffffffffff021916908373ffffffffffffffffffffffffffffffffffffffff1602179055508273ffffffffffffffffffffffffffffffffffffffff168173ffffffffffffffffffffffffffffffffffffffff167fa6a33460f345aef682d16ce7900e36f5a8b46744f753b0670b90a99be28c1aad60405160405180910390a3505050565b60066020528060005260406000206000915090505481565b7f97667070c54ef182b0f5858b034beac1b6f3089aa2d3188bb1e8929f4fa9b92981565b7f97667070c54ef182b0f5858b034beac1b6f3089aa2d3188bb1e8929f4fa9b929612af881612d7f565b600073ffffffffffffffffffffffffffffffffffffffff168373ffffffffffffffffffffffffffffffffffffffff1603612b5e576040517fd92e233d00000000000000000000000000000000000000000000000000000000815260040160405180910390fd5b60008203612b98576040517f1f2a200500000000000000000000000000000000000000000000000000000000815260040160405180910390fd5b81600660008573ffffffffffffffffffffffffffffffffffffffff1673ffffffffffffffffffffffffffffffffffffffff1681526020019081526020016000206000828254612be791906144da565b925050819055508273ffffffffffffffffffffffffffffffffffffffff167f578afab8065b30a5e9827120e4905b8a1810e180d2f793ca54af6f7633f4e57a83604051612c349190613c80565b60405180910390a2505050565b6000801b612c4e81612d7f565b6000600160009054906101000a900473ffffffffffffffffffffffffffffffffffffffff16905082600160006101000a81548173ffffffffffffffffffffffffffffffffffffffff021916908373ffffffffffffffffffffffffffffffffffffffff1602179055508273ffffffffffffffffffffffffffffffffffffffff168173ffffffffffffffffffffffffffffffffffffffff167feb2fc1909a6a635749f12f94e5b3f346570dec1dc72f47b4a383d9ad414c700760405160405180910390a3505050565b60007f01ffc9a7000000000000000000000000000000000000000000000000000000007bffffffffffffffffffffffffffffffffffffffffffffffffffffffff1916827bffffffffffffffffffffffffffffffffffffffffffffffffffffffff1916149050919050565b612d9081612d8b612ebc565b613565565b50565b60007f02dd7bc7dec4dceedda775e58dd541e08a116c6c53815c0bd028192f7b626800905090565b600080612dc6612d93565b9050612dd28484611edc565b612eb057600181600001600086815260200190815260200160002060000160008573ffffffffffffffffffffffffffffffffffffffff1673ffffffffffffffffffffffffffffffffffffffff16815260200190815260200160002060006101000a81548160ff021916908315150217905550612e4c612ebc565b73ffffffffffffffffffffffffffffffffffffffff168373ffffffffffffffffffffffffffffffffffffffff16857f2f8788117e7eff1d82e926ec794901d17c78024a50270940304540a733656f0d60405160405180910390a46001915050612eb6565b60009150505b92915050565b600033905090565b600080612ecf612d93565b9050612edb8484611edc565b15612fba57600081600001600086815260200190815260200160002060000160008573ffffffffffffffffffffffffffffffffffffffff1673ffffffffffffffffffffffffffffffffffffffff16815260200190815260200160002060006101000a81548160ff021916908315150217905550612f56612ebc565b73ffffffffffffffffffffffffffffffffffffffff168373ffffffffffffffffffffffffffffffffffffffff16857ff6391f5c32d9c69d2a47ea670b442974b53935d1edc7fd64eb21e047a839171b60405160405180910390a46001915050612fc0565b60009150505b92915050565b612fce6135b6565b6000612fd8613405565b905060008160000160006101000a81548160ff0219169083151502179055507f5db9ee0a495bf2e6ff9c91a7834c1ba4fdd244a5e8aa4e537bd38aeae4b073aa613020612ebc565b60405161302d9190613d37565b60405180910390a150565b60006130426135f6565b90506002816000015403613082576040517f3ee5aeb500000000000000000000000000000000000000000000000000000000815260040160405180910390fd5b6002816000018190555050565b613097611c41565b156130ce576040517fd93c066500000000000000000000000000000000000000000000000000000000815260040160405180910390fd5b565b61314a838473ffffffffffffffffffffffffffffffffffffffff1663a9059cbb858560405160240161310392919061421b565b604051602081830303815290604052915060e01b6020820180517bffffffffffffffffffffffffffffffffffffffffffffffffffffffff838183161783525050505061361e565b505050565b60006131596135f6565b90506001816000018190555050565b7f000000000000000000000000000000000000000000000000000000000000000073ffffffffffffffffffffffffffffffffffffffff163073ffffffffffffffffffffffffffffffffffffffff16148061321557507f000000000000000000000000000000000000000000000000000000000000000073ffffffffffffffffffffffffffffffffffffffff166131fc6136c0565b73ffffffffffffffffffffffffffffffffffffffff1614155b1561324c576040517fe07c8dba00000000000000000000000000000000000000000000000000000000815260040160405180910390fd5b565b6000801b61325b81612d7f565b5050565b8173ffffffffffffffffffffffffffffffffffffffff166352d1902d6040518163ffffffff1660e01b8152600401602060405180830381865afa9250505080156132c757506040513d601f19601f820116820180604052508101906132c49190614709565b60015b61330857816040517f4c9c8ce30000000000000000000000000000000000000000000000000000000081526004016132ff9190613d37565b60405180910390fd5b7f360894a13ba1a3210667c828492db98dca3e2076cc3735a920a3ca505d382bbc60001b811461336f57806040517faa1d49a40000000000000000000000000000000000000000000000000000000081526004016133669190613cb4565b60405180910390fd5b6133798383613717565b505050565b7f000000000000000000000000000000000000000000000000000000000000000073ffffffffffffffffffffffffffffffffffffffff163073ffffffffffffffffffffffffffffffffffffffff1614613403576040517fe07c8dba00000000000000000000000000000000000000000000000000000000815260040160405180910390fd5b565b60007fcd5ed15c6e187e77e9aee88184c21f4f2182ab5827cb3b7e07fbedcd63f03300905090565b61343561308f565b600061343f613405565b905060018160000160006101000a81548160ff0219169083151502179055507f62e78cea01bee320cd4e420270b5ea74000d11b0c9f74754ebdbfc544b05a258613487612ebc565b6040516134949190613d37565b60405180910390a150565b61351b848573ffffffffffffffffffffffffffffffffffffffff166323b872dd8686866040516024016134d493929190614736565b604051602081830303815290604052915060e01b6020820180517bffffffffffffffffffffffffffffffffffffffffffffffffffffffff838183161783525050505061361e565b50505050565b60008061352c61378a565b90508091505090565b61353d6137b5565b565b6135476137b5565b565b6135516137b5565b6135596137f5565b565b6135636137b5565b565b61356f8282611edc565b6135b25780826040517fe2517d3f0000000000000000000000000000000000000000000000000000000081526004016135a992919061476d565b60405180910390fd5b5050565b6135be611c41565b6135f4576040517f8dfc202b00000000000000000000000000000000000000000000000000000000815260040160405180910390fd5b565b60007f9b779b17422d0df92223018b32b4d1fa46e071723d6817e2486d003becc55f00905090565b600080602060008451602086016000885af180613641576040513d6000823e3d81fd5b3d92506000519150506000821461365c576001811415613678565b60008473ffffffffffffffffffffffffffffffffffffffff163b145b156136ba57836040517f5274afe70000000000000000000000000000000000000000000000000000000081526004016136b19190613d37565b60405180910390fd5b50505050565b60006136ee7f360894a13ba1a3210667c828492db98dca3e2076cc3735a920a3ca505d382bbc60001b613816565b60000160009054906101000a900473ffffffffffffffffffffffffffffffffffffffff16905090565b61372082613820565b8173ffffffffffffffffffffffffffffffffffffffff167fbc7cd75a20ee27fd9adebab32041f755214dbc6bffa90cc0225b39da2e5c2d3b60405160405180910390a260008151111561377d5761377782826138ed565b50613786565b613785613971565b5b5050565b60007ff0c57e16840df040f15088dc2f81fe391c3923bec73e23a9662efc9c229c6a0060001b905090565b6137bd6139ae565b6137f3576040517fd7e6bcf800000000000000000000000000000000000000000000000000000000815260040160405180910390fd5b565b6137fd6137b5565b60006138076135f6565b90506001816000018190555050565b6000819050919050565b60008173ffffffffffffffffffffffffffffffffffffffff163b0361387c57806040517f4c9c8ce30000000000000000000000000000000000000000000000000000000081526004016138739190613d37565b60405180910390fd5b806138a97f360894a13ba1a3210667c828492db98dca3e2076cc3735a920a3ca505d382bbc60001b613816565b60000160006101000a81548173ffffffffffffffffffffffffffffffffffffffff021916908373ffffffffffffffffffffffffffffffffffffffff16021790555050565b60606000808473ffffffffffffffffffffffffffffffffffffffff168460405161391791906147dd565b600060405180830381855af49150503d8060008114613952576040519150601f19603f3d011682016040523d82523d6000602084013e613957565b606091505b50915091506139678583836139ce565b9250505092915050565b60003411156139ac576040517fb398979f00000000000000000000000000000000000000000000000000000000815260040160405180910390fd5b565b60006139b8613521565b60000160089054906101000a900460ff16905090565b6060826139e3576139de82613a5d565b613a55565b60008251148015613a0b575060008473ffffffffffffffffffffffffffffffffffffffff163b145b15613a4d57836040517f9996b315000000000000000000000000000000000000000000000000000000008152600401613a449190613d37565b60405180910390fd5b819050613a56565b5b9392505050565b600081511115613a6f57805160208201fd5b6040517fd6bda27500000000000000000000000000000000000000000000000000000000815260040160405180910390fd5b6000604051905090565b600080fd5b600080fd5b60007fffffffff0000000000000000000000000000000000000000000000000000000082169050919050565b613aea81613ab5565b8114613af557600080fd5b50565b600081359050613b0781613ae1565b92915050565b600060208284031215613b2357613b22613aab565b5b6000613b3184828501613af8565b91505092915050565b60008115159050919050565b613b4f81613b3a565b82525050565b6000602082019050613b6a6000830184613b46565b92915050565b600073ffffffffffffffffffffffffffffffffffffffff82169050919050565b6000613b9b82613b70565b9050919050565b613bab81613b90565b8114613bb657600080fd5b50565b600081359050613bc881613ba2565b92915050565b600060208284031215613be457613be3613aab565b5b6000613bf284828501613bb9565b91505092915050565b6000819050919050565b613c0e81613bfb565b8114613c1957600080fd5b50565b600081359050613c2b81613c05565b92915050565b60008060408385031215613c4857613c47613aab565b5b6000613c5685828601613bb9565b9250506020613c6785828601613c1c565b9150509250929050565b613c7a81613bfb565b82525050565b6000602082019050613c956000830184613c71565b92915050565b6000819050919050565b613cae81613c9b565b82525050565b6000602082019050613cc96000830184613ca5565b92915050565b613cd881613c9b565b8114613ce357600080fd5b50565b600081359050613cf581613ccf565b92915050565b600060208284031215613d1157613d10613aab565b5b6000613d1f84828501613ce6565b91505092915050565b613d3181613b90565b82525050565b6000602082019050613d4c6000830184613d28565b92915050565b60008060408385031215613d6957613d68613aab565b5b6000613d7785828601613ce6565b9250506020613d8885828601613bb9565b9150509250929050565b600060ff82169050919050565b613da881613d92565b8114613db357600080fd5b50565b600081359050613dc581613d9f565b92915050565b60008060408385031215613de257613de1613aab565b5b6000613df085828601613db6565b9250506020613e0185828601613c1c565b9150509250929050565b600080fd5b600080fd5b6000601f19601f8301169050919050565b7f4e487b7100000000000000000000000000000000000000000000000000000000600052604160045260246000fd5b613e5e82613e15565b810181811067ffffffffffffffff82111715613e7d57613e7c613e26565b5b80604052505050565b6000613e90613aa1565b9050613e9c8282613e55565b919050565b600067ffffffffffffffff821115613ebc57613ebb613e26565b5b613ec582613e15565b9050602081019050919050565b82818337600083830152505050565b6000613ef4613eef84613ea1565b613e86565b905082815260208101848484011115613f1057613f0f613e10565b5b613f1b848285613ed2565b509392505050565b600082601f830112613f3857613f37613e0b565b5b8135613f48848260208601613ee1565b91505092915050565b60008060408385031215613f6857613f67613aab565b5b6000613f7685828601613bb9565b925050602083013567ffffffffffffffff811115613f9757613f96613ab0565b5b613fa385828601613f23565b9150509250929050565b600060208284031215613fc357613fc2613aab565b5b6000613fd184828501613c1c565b91505092915050565b600060208284031215613ff057613fef613aab565b5b6000613ffe84828501613db6565b91505092915050565b600081519050919050565b600082825260208201905092915050565b60005b83811015614041578082015181840152602081019050614026565b60008484015250505050565b600061405882614007565b6140628185614012565b9350614072818560208601614023565b61407b81613e15565b840191505092915050565b600060208201905081810360008301526140a0818461404d565b905092915050565b6000819050919050565b60006140cd6140c86140c384613b70565b6140a8565b613b70565b9050919050565b60006140df826140b2565b9050919050565b60006140f1826140d4565b9050919050565b614101816140e6565b82525050565b600060208201905061411c60008301846140f8565b92915050565b61412b81613b3a565b811461413657600080fd5b50565b60008135905061414881614122565b92915050565b6000806040838503121561416557614164613aab565b5b600061417385828601613bb9565b925050602061418485828601614139565b9150509250929050565b60008060008060008060c087890312156141ab576141aa613aab565b5b60006141b989828a01613bb9565b96505060206141ca89828a01613bb9565b95505060406141db89828a01613bb9565b94505060606141ec89828a01613bb9565b93505060806141fd89828a01613bb9565b92505060a061420e89828a01613bb9565b9150509295509295509295565b60006040820190506142306000830185613d28565b61423d6020830184613c71565b9392505050565b60008151905061425381613c05565b92915050565b60006020828403121561426f5761426e613aab565b5b600061427d84828501614244565b91505092915050565b61428f81613d92565b82525050565b60006060820190506142aa6000830186614286565b6142b76020830185613c71565b6142c46040830184613c71565b949350505050565b6000815190506142db81614122565b92915050565b6000602082840312156142f7576142f6613aab565b5b6000614305848285016142cc565b91505092915050565b600080fd5b60008151905061432281613d9f565b92915050565b600060e0828403121561433e5761433d61430e565b5b61434860e0613e86565b9050600061435884828501614244565b600083015250602061436c84828501614244565b602083015250604061438084828501614244565b604083015250606061439484828501614313565b60608301525060806143a884828501614244565b60808301525060a06143bc848285016142cc565b60a08301525060c06143d0848285016142cc565b60c08301525092915050565b600060e082840312156143f2576143f1613aab565b5b600061440084828501614328565b91505092915050565b7f4e487b7100000000000000000000000000000000000000000000000000000000600052601160045260246000fd5b600061444382613bfb565b915061444e83613bfb565b925082820261445c81613bfb565b9150828204841483151761447357614472614409565b5b5092915050565b7f4e487b7100000000000000000000000000000000000000000000000000000000600052601260045260246000fd5b60006144b482613bfb565b91506144bf83613bfb565b9250826144cf576144ce61447a565b5b828204905092915050565b60006144e582613bfb565b91506144f083613bfb565b925082820190508082111561450857614507614409565b5b92915050565b600061451982613bfb565b915061452483613bfb565b925082820390508181111561453c5761453b614409565b5b92915050565b60006040820190506145576000830185613c71565b6145646020830184613c71565b9392505050565b6000819050919050565b600061459061458b6145868461456b565b6140a8565b613d92565b9050919050565b6145a081614575565b82525050565b60006060820190506145bb6000830186613d28565b6145c86020830185613c71565b6145d56040830184614597565b949350505050565b6000819050919050565b60006146026145fd6145f8846145dd565b6140a8565b613d92565b9050919050565b614612816145e7565b82525050565b600060608201905061462d6000830186613d28565b61463a6020830185613c71565b6146476040830184614609565b949350505050565b60006080820190506146646000830187613c71565b6146716020830186613c71565b61467e6040830185613c71565b61468b6060830184613c71565b95945050505050565b600067ffffffffffffffff82169050919050565b60006146c36146be6146b9846145dd565b6140a8565b614694565b9050919050565b6146d3816146a8565b82525050565b60006020820190506146ee60008301846146ca565b92915050565b60008151905061470381613ccf565b92915050565b60006020828403121561471f5761471e613aab565b5b600061472d848285016146f4565b91505092915050565b600060608201905061474b6000830186613d28565b6147586020830185613d28565b6147656040830184613c71565b949350505050565b60006040820190506147826000830185613d28565b61478f6020830184613ca5565b9392505050565b600081519050919050565b600081905092915050565b60006147b782614796565b6147c181856147a1565b93506147d1818560208601614023565b80840191505092915050565b60006147e982846147ac565b91508190509291505056fea2646970667358221220edb8439027654f3827aa05ecab8311065b4d665abdb838bcfc5cc7e4db286cd364736f6c634300081b0033",
  "linkReferences": {},
  "deployedLinkReferences": {}
}