{
  "_format": "hh-sol-artifact-1",
  "contractName": "StakingVault",
  "sourceName": "contracts/StakingVault.sol",
  "abi": [
    {
      "inputs": [],
      "stateMutability": "nonpayable",
      "type": "constructor"
    },
    {
      "inputs": [],
      "name": "AccessControlBadConfirmation",
      "type": "error"
    },
    {
      "inputs": [
        {
          "internalType": "address",
          "name": "account",
          "type": "address"
        },
        {
          "internalType": "bytes32",
          "name": "neededRole",
          "type": "bytes32"
        }
      ],
      "name": "AccessControlUnauthorizedAccount",
      "type": "error"
    },
    {
      "inputs": [
        {
          "internalType": "address",
          "name": "target",
          "type": "address"
        }
      ],
      "name": "AddressEmptyCode",
      "type": "error"
    },
    {
      "inputs": [],
      "name": "BtnStakingDisabled",
      "type": "error"
    },
    {
      "inputs": [
        {
          "internalType": "address",
          "name": "implementation",
          "type": "address"
        }
      ],
      "name": "ERC1967InvalidImplementation",
      "type": "error"
    },
    {
      "inputs": [],
      "name": "ERC1967NonPayable",
      "type": "error"
    },
    {
      "inputs": [],
      "name": "EnforcedPause",
      "type": "error"
    },
    {
      "inputs": [],
      "name": "ExpectedPause",
      "type": "error"
    },
    {
      "inputs": [],
      "name": "FailedCall",
      "type": "error"
    },
    {
      "inputs": [],
      "name": "InvalidInitialization",
      "type": "error"
    },
    {
      "inputs": [],
      "name": "InvalidPrice",
      "type": "error"
    },
    {
      "inputs": [
        {
          "internalType": "uint8",
          "name": "programType",
          "type": "uint8"
        }
      ],
      "name": "InvalidProgramType",
      "type": "error"
    },
    {
      "inputs": [],
      "name": "InvalidRate",
      "type": "error"
    },
    {
      "inputs": [
        {
          "internalType": "uint256",
          "name": "index",
          "type": "uint256"
        },
        {
          "internalType": "uint256",
          "name": "length",
          "type": "uint256"
        }
      ],
      "name": "InvalidStakeIndex",
      "type": "error"
    },
    {
      "inputs": [
        {
          "internalType": "uint256",
          "name": "elapsed",
          "type": "uint256"
        },
        {
          "internalType": "uint256",
          "name": "required",
          "type": "uint256"
        }
      ],
      "name": "LockPeriodNotMet",
      "type": "error"
    },
    {
      "inputs": [],
      "name": "NotInitializing",
      "type": "error"
    },
    {
      "inputs": [],
      "name": "PenaltyDestNotSet",
      "type": "error"
    },
    {
      "inputs": [],
      "name": "ReentrancyGuardReentrantCall",
      "type": "error"
    },
    {
      "inputs": [
        {
          "internalType": "address",
          "name": "token",
          "type": "address"
        }
      ],
      "name": "SafeERC20FailedOperation",
      "type": "error"
    },
    {
      "inputs": [],
      "name": "StakeNotActive",
      "type": "error"
    },
    {
      "inputs": [],
      "name": "StakeTooSmall",
      "type": "error"
    },
    {
      "inputs": [],
      "name": "TreasuryNotSet",
      "type": "error"
    },
    {
      "inputs": [],
      "name": "UUPSUnauthorizedCallContext",
      "type": "error"
    },
    {
      "inputs": [
        {
          "internalType": "bytes32",
          "name": "slot",
          "type": "bytes32"
        }
      ],
      "name": "UUPSUnsupportedProxiableUUID",
      "type": "error"
    },
    {
      "inputs": [],
      "name": "VaultNotActive",
      "type": "error"
    },
    {
      "inputs": [],
      "name": "ZeroAddress",
      "type": "error"
    },
    {
      "inputs": [],
      "name": "ZeroAmount",
      "type": "error"
    },
    {
      "anonymous": false,
      "inputs": [
        {
          "indexed": false,
          "internalType": "uint256",
          "name": "oldPrice",
          "type": "uint256"
        },
        {
          "indexed": false,
          "internalType": "uint256",
          "name": "newPrice",
          "type": "uint256"
        }
      ],
      "name": "BtnPriceUpdated",
      "type": "event"
    },
    {
      "anonymous": false,
      "inputs": [
        {
          "indexed": false,
          "internalType": "bool",
          "name": "enabled",
          "type": "bool"
        }
      ],
      "name": "BtnStakingToggled",
      "type": "event"
    },
    {
      "anonymous": false,
      "inputs": [
        {
          "indexed": false,
          "internalType": "uint8",
          "name": "programType",
          "type": "uint8"
        },
        {
          "indexed": false,
          "internalType": "uint256",
          "name": "oldRate",
          "type": "uint256"
        },
        {
          "indexed": false,
          "internalType": "uint256",
          "name": "newRate",
          "type": "uint256"
        }
      ],
      "name": "DailyRateUpdated",
      "type": "event"
    },
    {
      "anonymous": false,
      "inputs": [
        {
          "indexed": false,
          "internalType": "uint256",
          "name": "oldBps",
          "type": "uint256"
        },
        {
          "indexed": false,
          "internalType": "uint256",
          "name": "newBps",
          "type": "uint256"
        }
      ],
      "name": "EarlyExitPenaltyUpdated",
      "type": "event"
    },
    {
      "anonymous": false,
      "inputs": [
        {
          "indexed": false,
          "internalType": "uint64",
          "name": "version",
          "type": "uint64"
        }
      ],
      "name": "Initialized",
      "type": "event"
    },
    {
      "anonymous": false,
      "inputs": [
        {
          "indexed": true,
          "internalType": "address",
          "name": "user",
          "type": "address"
        },
        {
          "indexed": false,
          "internalType": "uint256",
          "name": "stakeIndex",
          "type": "uint256"
        },
        {
          "indexed": false,
          "internalType": "uint256",
          "name": "newTime",
          "type": "uint256"
        }
      ],
      "name": "LastRewardTimeReset",
      "type": "event"
    },
    {
      "anonymous": false,
      "inputs": [
        {
          "indexed": false,
          "internalType": "address",
          "name": "account",
          "type": "address"
        }
      ],
      "name": "Paused",
      "type": "event"
    },
    {
      "anonymous": false,
      "inputs": [
        {
          "indexed": true,
          "internalType": "address",
          "name": "oldAddr",
          "type": "address"
        },
        {
          "indexed": true,
          "internalType": "address",
          "name": "newAddr",
          "type": "address"
        }
      ],
      "name": "ReserveFundUpdated",
      "type": "event"
    },
    {
      "anonymous": false,
      "inputs": [
        {
          "indexed": true,
          "internalType": "bytes32",
          "name": "role",
          "type": "bytes32"
        },
        {
          "indexed": true,
          "internalType": "bytes32",
          "name": "previousAdminRole",
          "type": "bytes32"
        },
        {
          "indexed": true,
          "internalType": "bytes32",
          "name": "newAdminRole",
          "type": "bytes32"
        }
      ],
      "name": "RoleAdminChanged",
      "type": "event"
    },
    {
      "anonymous": false,
      "inputs": [
        {
          "indexed": true,
          "internalType": "bytes32",
          "name": "role",
          "type": "bytes32"
        },
        {
          "indexed": true,
          "internalType": "address",
          "name": "account",
          "type": "address"
        },
        {
          "indexed": true,
          "internalType": "address",
          "name": "sender",
          "type": "address"
        }
      ],
      "name": "RoleGranted",
      "type": "event"
    },
    {
      "anonymous": false,
      "inputs": [
        {
          "indexed": true,
          "internalType": "bytes32",
          "name": "role",
          "type": "bytes32"
        },
        {
          "indexed": true,
          "internalType": "address",
          "name": "account",
          "type": "address"
        },
        {
          "indexed": true,
          "internalType": "address",
          "name": "sender",
          "type": "address"
        }
      ],
      "name": "RoleRevoked",
      "type": "event"
    },
    {
      "anonymous": false,
      "inputs": [
        {
          "indexed": true,
          "internalType": "address",
          "name": "user",
          "type": "address"
        },
        {
          "indexed": false,
          "internalType": "uint256",
          "name": "amount",
          "type": "uint256"
        },
        {
          "indexed": false,
          "internalType": "uint8",
          "name": "programType",
          "type": "uint8"
        },
        {
          "indexed": false,
          "internalType": "uint256",
          "name": "stakeIndex",
          "type": "uint256"
        },
        {
          "indexed": false,
          "internalType": "bool",
          "name": "isUSDC",
          "type": "bool"
        }
      ],
      "name": "Staked",
      "type": "event"
    },
    {
      "anonymous": false,
      "inputs": [
        {
          "indexed": true,
          "internalType": "address",
          "name": "oldAddr",
          "type": "address"
        },
        {
          "indexed": true,
          "internalType": "address",
          "name": "newAddr",
          "type": "address"
        }
      ],
      "name": "TreasuryAddressUpdated",
      "type": "event"
    },
    {
      "anonymous": false,
      "inputs": [
        {
          "indexed": false,
          "internalType": "address",
          "name": "account",
          "type": "address"
        }
      ],
      "name": "Unpaused",
      "type": "event"
    },
    {
      "anonymous": false,
      "inputs": [
        {
          "indexed": true,
          "internalType": "address",
          "name": "user",
          "type": "address"
        },
        {
          "indexed": false,
          "internalType": "uint256",
          "name": "principal",
          "type": "uint256"
        },
        {
          "indexed": false,
          "internalType": "uint256",
          "name": "stakeIndex",
          "type": "uint256"
        },
        {
          "indexed": false,
          "internalType": "bool",
          "name": "isUSDC",
          "type": "bool"
        }
      ],
      "name": "Unstaked",
      "type": "event"
    },
    {
      "anonymous": false,
      "inputs": [
        {
          "indexed": true,
          "internalType": "address",
          "name": "user",
          "type": "address"
        },
        {
          "indexed": false,
          "internalType": "uint256",
          "name": "returned",
          "type": "uint256"
        },
        {
          "indexed": false,
          "internalType": "uint256",
          "name": "penalty",
          "type": "uint256"
        },
        {
          "indexed": false,
          "internalType": "uint256",
          "name": "stakeIndex",
          "type": "uint256"
        }
      ],
      "name": "UnstakedWithPenalty",
      "type": "event"
    },
    {
      "anonymous": false,
      "inputs": [
        {
          "indexed": true,
          "internalType": "address",
          "name": "implementation",
          "type": "address"
        }
      ],
      "name": "Upgraded",
      "type": "event"
    },
    {
      "anonymous": false,
      "inputs": [
        {
          "indexed": true,
          "internalType": "address",
          "name": "oldAddr",
          "type": "address"
        },
        {
          "indexed": true,
          "internalType": "address",
          "name": "newAddr",
          "type": "address"
        }
      ],
      "name": "VaultManagerUpdated",
      "type": "event"
    },
    {
      "inputs": [],
      "name": "BOOST180_LOCK",
      "outputs": [
        {
          "internalType": "uint256",
          "name": "",
          "type": "uint256"
        }
      ],
      "stateMutability": "view",
      "type": "function"
    },
    {
      "inputs": [],
      "name": "DEFAULT_ADMIN_ROLE",
      "outputs": [
        {
          "internalType": "bytes32",
          "name": "",
          "type": "bytes32"
        }
      ],
      "stateMutability": "view",
      "type": "function"
    },
    {
      "inputs": [],
      "name": "DEFAULT_PENALTY_BPS",
      "outputs": [
        {
          "internalType": "uint256",
          "name": "",
          "type": "uint256"
        }
      ],
      "stateMutability": "view",
      "type": "function"
    },
    {
      "inputs": [],
      "name": "EMERGENCY_ROLE",
      "outputs": [
        {
          "internalType": "bytes32",
          "name": "",
          "type": "bytes32"
        }
      ],
      "stateMutability": "view",
      "type": "function"
    },
    {
      "inputs": [],
      "name": "FLEX30_LOCK",
      "outputs": [
        {
          "internalType": "uint256",
          "name": "",
          "type": "uint256"
        }
      ],
      "stateMutability": "view",
      "type": "function"
    },
    {
      "inputs": [],
      "name": "MAX360_LOCK",
      "outputs": [
        {
          "internalType": "uint256",
          "name": "",
          "type": "uint256"
        }
      ],
      "stateMutability": "view",
      "type": "function"
    },
    {
      "inputs": [],
      "name": "MIN_STAKE",
      "outputs": [
        {
          "internalType": "uint256",
          "name": "",
          "type": "uint256"
        }
      ],
      "stateMutability": "view",
      "type": "function"
    },
    {
      "inputs": [],
      "name": "OPERATOR_ROLE",
      "outputs": [
        {
          "internalType": "bytes32",
          "name": "",
          "type": "bytes32"
        }
      ],
      "stateMutability": "view",
      "type": "function"
    },
    {
      "inputs": [],
      "name": "UPGRADE_INTERFACE_VERSION",
      "outputs": [
        {
          "internalType": "string",
          "name": "",
          "type": "string"
        }
      ],
      "stateMutability": "view",
      "type": "function"
    },
    {
      "inputs": [],
      "name": "btnPriceUSD",
      "outputs": [
        {
          "internalType": "uint256",
          "name": "",
          "type": "uint256"
        }
      ],
      "stateMutability": "view",
      "type": "function"
    },
    {
      "inputs": [],
      "name": "btnStakingEnabled",
      "outputs": [
        {
          "internalType": "bool",
          "name": "",
          "type": "bool"
        }
      ],
      "stateMutability": "view",
      "type": "function"
    },
    {
      "inputs": [],
      "name": "btnToken",
      "outputs": [
        {
          "internalType": "contract IERC20",
          "name": "",
          "type": "address"
        }
      ],
      "stateMutability": "view",
      "type": "function"
    },
    {
      "inputs": [
        {
          "internalType": "uint8",
          "name": "",
          "type": "uint8"
        }
      ],
      "name": "dailyRateBps",
      "outputs": [
        {
          "internalType": "uint256",
          "name": "",
          "type": "uint256"
        }
      ],
      "stateMutability": "view",
      "type": "function"
    },
    {
      "inputs": [],
      "name": "earlyExitPenaltyBps",
      "outputs": [
        {
          "internalType": "uint256",
          "name": "",
          "type": "uint256"
        }
      ],
      "stateMutability": "view",
      "type": "function"
    },
    {
      "inputs": [
        {
          "internalType": "address",
          "name": "user",
          "type": "address"
        },
        {
          "internalType": "uint256",
          "name": "stakeIndex",
          "type": "uint256"
        }
      ],
      "name": "getPendingRewards",
      "outputs": [
        {
          "internalType": "uint256",
          "name": "",
          "type": "uint256"
        }
      ],
      "stateMutability": "view",
      "type": "function"
    },
    {
      "inputs": [
        {
          "internalType": "bytes32",
          "name": "role",
          "type": "bytes32"
        }
      ],
      "name": "getRoleAdmin",
      "outputs": [
        {
          "internalType": "bytes32",
          "name": "",
          "type": "bytes32"
        }
      ],
      "stateMutability": "view",
      "type": "function"
    },
    {
      "inputs": [
        {
          "internalType": "address",
          "name": "user",
          "type": "address"
        },
        {
          "internalType": "uint256",
          "name": "stakeIndex",
          "type": "uint256"
        }
      ],
      "name": "getStake",
      "outputs": [
        {
          "components": [
            {
              "internalType": "uint256",
              "name": "amount",
              "type": "uint256"
            },
            {
              "internalType": "uint256",
              "name": "btnEquivalent",
              "type": "uint256"
            },
            {
              "internalType": "uint256",
              "name": "startTime",
              "type": "uint256"
            },
            {
              "internalType": "uint8",
              "name": "programType",
              "type": "uint8"
            },
            {
              "internalType": "uint256",
              "name": "lastRewardTime",
              "type": "uint256"
            },
            {
              "internalType": "bool",
              "name": "active",
              "type": "bool"
            },
            {
              "internalType": "bool",
              "name": "isUSDC",
              "type": "bool"
            }
          ],
          "internalType": "struct StakingVault.StakeInfo",
          "name": "",
          "type": "tuple"
        }
      ],
      "stateMutability": "view",
      "type": "function"
    },
    {
      "inputs": [
        {
          "internalType": "address",
          "name": "user",
          "type": "address"
        }
      ],
      "name": "getStakeCount",
      "outputs": [
        {
          "internalType": "uint256",
          "name": "",
          "type": "uint256"
        }
      ],
      "stateMutability": "view",
      "type": "function"
    },
    {
      "inputs": [
        {
          "internalType": "address",
          "name": "user",
          "type": "address"
        }
      ],
      "name": "getStakes",
      "outputs": [
        {
          "components": [
            {
              "internalType": "uint256",
              "name": "amount",
              "type": "uint256"
            },
            {
              "internalType": "uint256",
              "name": "btnEquivalent",
              "type": "uint256"
            },
            {
              "internalType": "uint256",
              "name": "startTime",
              "type": "uint256"
            },
            {
              "internalType": "uint8",
              "name": "programType",
              "type": "uint8"
            },
            {
              "internalType": "uint256",
              "name": "lastRewardTime",
              "type": "uint256"
            },
            {
              "internalType": "bool",
              "name": "active",
              "type": "bool"
            },
            {
              "internalType": "bool",
              "name": "isUSDC",
              "type": "bool"
            }
          ],
          "internalType": "struct StakingVault.StakeInfo[]",
          "name": "",
          "type": "tuple[]"
        }
      ],
      "stateMutability": "view",
      "type": "function"
    },
    {
      "inputs": [
        {
          "internalType": "address",
          "name": "user",
          "type": "address"
        }
      ],
      "name": "getUserTotalStaked",
      "outputs": [
        {
          "internalType": "uint256",
          "name": "",
          "type": "uint256"
        }
      ],
      "stateMutability": "view",
      "type": "function"
    },
    {
      "inputs": [
        {
          "internalType": "bytes32",
          "name": "role",
          "type": "bytes32"
        },
        {
          "internalType": "address",
          "name": "account",
          "type": "address"
        }
      ],
      "name": "grantRole",
      "outputs": [],
      "stateMutability": "nonpayable",
      "type": "function"
    },
    {
      "inputs": [
        {
          "internalType": "bytes32",
          "name": "role",
          "type": "bytes32"
        },
        {
          "internalType": "address",
          "name": "account",
          "type": "address"
        }
      ],
      "name": "hasRole",
      "outputs": [
        {
          "internalType": "bool",
          "name": "",
          "type": "bool"
        }
      ],
      "stateMutability": "view",
      "type": "function"
    },
    {
      "inputs": [
        {
          "internalType": "address",
          "name": "_btnToken",
          "type": "address"
        },
        {
          "internalType": "address",
          "name": "_usdcToken",
          "type": "address"
        },
        {
          "internalType": "address",
          "name": "_treasury",
          "type": "address"
        },
        {
          "internalType": "address",
          "name": "_reserveFund",
          "type": "address"
        },
        {
          "internalType": "address",
          "name": "_vaultMgr",
          "type": "address"
        },
        {
          "internalType": "address",
          "name": "_admin",
          "type": "address"
        }
      ],
      "name": "initialize",
      "outputs": [],
      "stateMutability": "nonpayable",
      "type": "function"
    },
    {
      "inputs": [],
      "name": "pause",
      "outputs": [],
      "stateMutability": "nonpayable",
      "type": "function"
    },
    {
      "inputs": [],
      "name": "paused",
      "outputs": [
        {
          "internalType": "bool",
          "name": "",
          "type": "bool"
        }
      ],
      "stateMutability": "view",
      "type": "function"
    },
    {
      "inputs": [],
      "name": "proxiableUUID",
      "outputs": [
        {
          "internalType": "bytes32",
          "name": "",
          "type": "bytes32"
        }
      ],
      "stateMutability": "view",
      "type": "function"
    },
    {
      "inputs": [
        {
          "internalType": "bytes32",
          "name": "role",
          "type": "bytes32"
        },
        {
          "internalType": "address",
          "name": "callerConfirmation",
          "type": "address"
        }
      ],
      "name": "renounceRole",
      "outputs": [],
      "stateMutability": "nonpayable",
      "type": "function"
    },
    {
      "inputs": [],
      "name": "reserveFund",
      "outputs": [
        {
          "internalType": "address",
          "name": "",
          "type": "address"
        }
      ],
      "stateMutability": "view",
      "type": "function"
    },
    {
      "inputs": [
        {
          "internalType": "address",
          "name": "user",
          "type": "address"
        },
        {
          "internalType": "uint256",
          "name": "stakeIndex",
          "type": "uint256"
        }
      ],
      "name": "resetLastRewardTime",
      "outputs": [],
      "stateMutability": "nonpayable",
      "type": "function"
    },
    {
      "inputs": [
        {
          "internalType": "bytes32",
          "name": "role",
          "type": "bytes32"
        },
        {
          "internalType": "address",
          "name": "account",
          "type": "address"
        }
      ],
      "name": "revokeRole",
      "outputs": [],
      "stateMutability": "nonpayable",
      "type": "function"
    },
    {
      "inputs": [
        {
          "internalType": "uint256",
          "name": "price",
          "type": "uint256"
        }
      ],
      "name": "setBtnPriceUSD",
      "outputs": [],
      "stateMutability": "nonpayable",
      "type": "function"
    },
    {
      "inputs": [
        {
          "internalType": "bool",
          "name": "enabled",
          "type": "bool"
        }
      ],
      "name": "setBtnStakingEnabled",
      "outputs": [],
      "stateMutability": "nonpayable",
      "type": "function"
    },
    {
      "inputs": [
        {
          "internalType": "uint8",
          "name": "programType",
          "type": "uint8"
        },
        {
          "internalType": "uint256",
          "name": "rateBps",
          "type": "uint256"
        }
      ],
      "name": "setDailyRateBps",
      "outputs": [],
      "stateMutability": "nonpayable",
      "type": "function"
    },
    {
      "inputs": [
        {
          "internalType": "uint256",
          "name": "_bps",
          "type": "uint256"
        }
      ],
      "name": "setEarlyExitPenaltyBps",
      "outputs": [],
      "stateMutability": "nonpayable",
      "type": "function"
    },
    {
      "inputs": [
        {
          "internalType": "address",
          "name": "_reserveFund",
          "type": "address"
        }
      ],
      "name": "setReserveFund",
      "outputs": [],
      "stateMutability": "nonpayable",
      "type": "function"
    },
    {
      "inputs": [
        {
          "internalType": "address",
          "name": "_treasury",
          "type": "address"
        }
      ],
      "name": "setTreasuryAddress",
      "outputs": [],
      "stateMutability": "nonpayable",
      "type": "function"
    },
    {
      "inputs": [
        {
          "internalType": "address",
          "name": "_vaultMgr",
          "type": "address"
        }
      ],
      "name": "setVaultManager",
      "outputs": [],
      "stateMutability": "nonpayable",
      "type": "function"
    },
    {
      "inputs": [
        {
          "internalType": "uint256",
          "name": "amount",
          "type": "uint256"
        },
        {
          "internalType": "uint8",
          "name": "programType",
          "type": "uint8"
        }
      ],
      "name": "stakeBTN",
      "outputs": [],
      "stateMutability": "nonpayable",
      "type": "function"
    },
    {
      "inputs": [
        {
          "internalType": "uint256",
          "name": "amount",
          "type": "uint256"
        },
        {
          "internalType": "uint8",
          "name": "programType",
          "type": "uint8"
        }
      ],
      "name": "stakeUSDC",
      "outputs": [],
      "stateMutability": "nonpayable",
      "type": "function"
    },
    {
      "inputs": [
        {
          "internalType": "bytes4",
          "name": "interfaceId",
          "type": "bytes4"
        }
      ],
      "name": "supportsInterface",
      "outputs": [
        {
          "internalType": "bool",
          "name": "",
          "type": "bool"
        }
      ],
      "stateMutability": "view",
      "type": "function"
    },
    {
      "inputs": [],
      "name": "totalStaked",
      "outputs": [
        {
          "internalType": "uint256",
          "name": "",
          "type": "uint256"
        }
      ],
      "stateMutability": "view",
      "type": "function"
    },
    {
      "inputs": [],
      "name": "totalStakedUSDC",
      "outputs": [
        {
          "internalType": "uint256",
          "name": "",
          "type": "uint256"
        }
      ],
      "stateMutability": "view",
      "type": "function"
    },
    {
      "inputs": [],
      "name": "treasuryAddress",
      "outputs": [
        {
          "internalType": "address",
          "name": "",
          "type": "address"
        }
      ],
      "stateMutability": "view",
      "type": "function"
    },
    {
      "inputs": [],
      "name": "unpause",
      "outputs": [],
      "stateMutability": "nonpayable",
      "type": "function"
    },
    {
      "inputs": [
        {
          "internalType": "uint256",
          "name": "stakeIndex",
          "type": "uint256"
        }
      ],
      "name": "unstake",
      "outputs": [],
      "stateMutability": "nonpayable",
      "type": "function"
    },
    {
      "inputs": [
        {
          "internalType": "address",
          "name": "newImplementation",
          "type": "address"
        },
        {
          "internalType": "bytes",
          "name": "data",
          "type": "bytes"
        }
      ],
      "name": "upgradeToAndCall",
      "outputs": [],
      "stateMutability": "payable",
      "type": "function"
    },
    {
      "inputs": [],
      "name": "usdcToken",
      "outputs": [
        {
          "internalType": "contract IERC20",
          "name": "",
          "type": "address"
        }
      ],
      "stateMutability": "view",
      "type": "function"
    },
    {
      "inputs": [],
      "name": "vaultManager",
      "outputs": [
        {
          "internalType": "address",
          "name": "",
          "type": "address"
        }
      ],
      "stateMutability": "view",
      "type": "function"
    }
  ],
  "bytecode": "0x60a06040523073ffffffffffffffffffffffffffffffffffffffff1660809073ffffffffffffffffffffffffffffffffffffffff1681525034801561004357600080fd5b5061005261005760201b60201c565b6101de565b600061006761015b60201b60201c565b90508060000160089054906101000a900460ff16156100b2576040517ff92ee8a900000000000000000000000000000000000000000000000000000000815260040160405180910390fd5b67ffffffffffffffff80168160000160009054906101000a900467ffffffffffffffff1667ffffffffffffffff16146101585767ffffffffffffffff8160000160006101000a81548167ffffffffffffffff021916908367ffffffffffffffff1602179055507fc7f505b2f371ae2175ee4913f4499e1f2633a7b5936321eed1cdaeb6115181d267ffffffffffffffff60405161014f91906101c3565b60405180910390a15b50565b60008061016c61017560201b60201c565b90508091505090565b60007ff0c57e16840df040f15088dc2f81fe391c3923bec73e23a9662efc9c229c6a0060001b905090565b600067ffffffffffffffff82169050919050565b6101bd816101a0565b82525050565b60006020820190506101d860008301846101b4565b92915050565b608051614cd361020760003960008181613392015281816133e701526135a80152614cd36000f3fe6080604052600436106102935760003560e01c80638456cb591161015a578063c5f956af116100c1578063d827b7e81161007a578063d827b7e8146109e3578063de58441f14610a0e578063e4e7c6b414610a39578063f498d8a614610a76578063f5b541a614610a9f578063fd0e6cb214610aca57610293565b8063c5f956af146108c1578063cb1c2b5c146108ec578063cc2a9a5b14610917578063cf57ee6914610940578063cfd476631461097d578063d547741f146109ba57610293565b8063a13aa85a11610113578063a13aa85a146107c1578063a217fddf146107ec578063ad3cb1cc14610817578063b543503e14610842578063b7f92b711461086b578063bbf45c921461089657610293565b80638456cb59146106c35780638a4adf24146106da5780638ae60700146107055780638da4d84c1461073057806391d148541461075b5780639e8b3a3b1461079857610293565b8063485d4d44116101fe5780635c975abb116101b75780635c975abb146105a15780636605bfda146105cc5780636e2f1696146105f55780637ba6f45814610632578063817b1cd21461066f57806381fca61b1461069a57610293565b8063485d4d44146104b45780634d9bd777146104dd5780634f1ef2861461050657806352d1902d1461052257806354dbaaf21461054d57806354ecc6491461057657610293565b80632f2ff15d116102505780632f2ff15d146103ba578063328d7c33146103e357806336568abe146104205780633ea99cdd146104495780633ee8a3ed146104745780633f4ba83a1461049d57610293565b806301ffc9a71461029857806311eac855146102d557806320df435914610300578063248a9ca31461032b57806328d17585146103685780632e17de7814610391575b600080fd5b3480156102a457600080fd5b506102bf60048036038101906102ba9190613eb3565b610af5565b6040516102cc9190613efb565b60405180910390f35b3480156102e157600080fd5b506102ea610b6f565b6040516102f79190613f95565b60405180910390f35b34801561030c57600080fd5b50610315610b95565b6040516103229190613fc9565b60405180910390f35b34801561033757600080fd5b50610352600480360381019061034d9190614010565b610bb9565b60405161035f9190613fc9565b60405180910390f35b34801561037457600080fd5b5061038f600480360381019061038a9190614073565b610be7565b005b34801561039d57600080fd5b506103b860048036038101906103b39190614073565b610c79565b005b3480156103c657600080fd5b506103e160048036038101906103dc91906140de565b6115bc565b005b3480156103ef57600080fd5b5061040a60048036038101906104059190614157565b6115de565b6040516104179190614193565b60405180910390f35b34801561042c57600080fd5b50610447600480360381019061044291906140de565b6115f6565b005b34801561045557600080fd5b5061045e611671565b60405161046b9190613efb565b60405180910390f35b34801561048057600080fd5b5061049b600480360381019061049691906141ae565b611684565b005b3480156104a957600080fd5b506104b26116f2565b005b3480156104c057600080fd5b506104db60048036038101906104d691906141ee565b61170a565b005b3480156104e957600080fd5b5061050460048036038101906104ff91906141ae565b611905565b005b610520600480360381019061051b9190614374565b61192d565b005b34801561052e57600080fd5b5061053761194c565b6040516105449190613fc9565b60405180910390f35b34801561055957600080fd5b50610574600480360381019061056f9190614073565b61197f565b005b34801561058257600080fd5b5061058b611a14565b6040516105989190614193565b60405180910390f35b3480156105ad57600080fd5b506105b6611a1b565b6040516105c39190613efb565b60405180910390f35b3480156105d857600080fd5b506105f360048036038101906105ee91906143d0565b611a40565b005b34801561060157600080fd5b5061061c600480360381019061061791906143d0565b611b7a565b6040516106299190614193565b60405180910390f35b34801561063e57600080fd5b50610659600480360381019061065491906143d0565b611c54565b6040516106669190614567565b60405180910390f35b34801561067b57600080fd5b50610684611d6c565b6040516106919190614193565b60405180910390f35b3480156106a657600080fd5b506106c160048036038101906106bc91906145b5565b611d72565b005b3480156106cf57600080fd5b506106d8611dd4565b005b3480156106e657600080fd5b506106ef611e09565b6040516106fc91906145f1565b60405180910390f35b34801561071157600080fd5b5061071a611e2f565b6040516107279190614193565b60405180910390f35b34801561073c57600080fd5b50610745611e35565b6040516107529190614193565b60405180910390f35b34801561076757600080fd5b50610782600480360381019061077d91906140de565b611e3d565b60405161078f9190613efb565b60405180910390f35b3480156107a457600080fd5b506107bf60048036038101906107ba919061460c565b611eb6565b005b3480156107cd57600080fd5b506107d6611fc3565b6040516107e39190614193565b60405180910390f35b3480156107f857600080fd5b50610801611fc9565b60405161080e9190613fc9565b60405180910390f35b34801561082357600080fd5b5061082c611fd0565b60405161083991906146cb565b60405180910390f35b34801561084e57600080fd5b50610869600480360381019061086491906143d0565b612009565b005b34801561087757600080fd5b506108806120dd565b60405161088d91906145f1565b60405180910390f35b3480156108a257600080fd5b506108ab612103565b6040516108b89190613f95565b60405180910390f35b3480156108cd57600080fd5b506108d6612129565b6040516108e391906145f1565b60405180910390f35b3480156108f857600080fd5b5061090161214f565b60405161090e9190614193565b60405180910390f35b34801561092357600080fd5b5061093e600480360381019061093991906146ed565b612156565b005b34801561094c57600080fd5b50610967600480360381019061096291906143d0565b612657565b6040516109749190614193565b60405180910390f35b34801561098957600080fd5b506109a4600480360381019061099f91906141ee565b6126a2565b6040516109b19190614808565b60405180910390f35b3480156109c657600080fd5b506109e160048036038101906109dc91906140de565b61285e565b005b3480156109ef57600080fd5b506109f8612880565b604051610a059190614193565b60405180910390f35b348015610a1a57600080fd5b50610a23612886565b604051610a309190614193565b60405180910390f35b348015610a4557600080fd5b50610a606004803603810190610a5b91906141ee565b61288c565b604051610a6d9190614193565b60405180910390f35b348015610a8257600080fd5b50610a9d6004803603810190610a9891906143d0565b612968565b005b348015610aab57600080fd5b50610ab4612a3c565b604051610ac19190613fc9565b60405180910390f35b348015610ad657600080fd5b50610adf612a60565b604051610aec9190614193565b60405180910390f35b60007f7965db0b000000000000000000000000000000000000000000000000000000007bffffffffffffffffffffffffffffffffffffffffffffffffffffffff1916827bffffffffffffffffffffffffffffffffffffffffffffffffffffffff19161480610b685750610b6782612a67565b5b9050919050565b600260009054906101000a900473ffffffffffffffffffffffffffffffffffffffff1681565b7fbf233dd2aafeb4d50879c4aa5c81e96d92f6e6945c906a58f9f2d1c1631b4b2681565b600080610bc4612ad1565b905080600001600084815260200190815260200160002060010154915050919050565b6000801b610bf481612af9565b60008203610c2d576040517ebfc92100000000000000000000000000000000000000000000000000000000815260040160405180910390fd5b60006009549050826009819055507f833e49e8716b45d344c5792ea0377f984d4a12a1cf13f24f0b0fd497491d24ee8184604051610c6c929190614823565b60405180910390a1505050565b610c81612b0d565b610c89612b64565b6000803373ffffffffffffffffffffffffffffffffffffffff1673ffffffffffffffffffffffffffffffffffffffff168152602001908152602001600020805490508110610d5157806000803373ffffffffffffffffffffffffffffffffffffffff1673ffffffffffffffffffffffffffffffffffffffff168152602001908152602001600020805490506040517f886adff2000000000000000000000000000000000000000000000000000000008152600401610d48929190614823565b60405180910390fd5b60008060003373ffffffffffffffffffffffffffffffffffffffff1673ffffffffffffffffffffffffffffffffffffffff1681526020019081526020016000208281548110610da357610da261484c565b5b906000526020600020906006020190508060050160009054906101000a900460ff16610dfb576040517fb0dd466e00000000000000000000000000000000000000000000000000000000815260040160405180910390fd5b6000816000015490506000826002015442610e1691906148aa565b905060008360050160019054906101000a900460ff16610e5857600160009054906101000a900473ffffffffffffffffffffffffffffffffffffffff16610e7c565b600260009054906101000a900473ffffffffffffffffffffffffffffffffffffffff165b905060008460030160009054906101000a900460ff1660ff16036111a65760008460050160006101000a81548160ff0219169083151502179055508360050160019054906101000a900460ff1615610eec578260076000828254610ee091906148aa565b92505081905550610f06565b8260066000828254610efe91906148aa565b925050819055505b62278d008210610fa357610f3b33848373ffffffffffffffffffffffffffffffffffffffff16612ba59092919063ffffffff16565b3373ffffffffffffffffffffffffffffffffffffffff167f6c42d2bb36ad42ac675a97c8627d2cd9e34346d5057bbc3a6ed3c5d1f0a8219b84878760050160019054906101000a900460ff16604051610f96939291906148de565b60405180910390a26111a1565b600080600a5411610fb6576105dc610fba565b600a545b905060006127108286610fcd9190614915565b610fd79190614986565b905060008186610fe791906148aa565b905060008073ffffffffffffffffffffffffffffffffffffffff16600460009054906101000a900473ffffffffffffffffffffffffffffffffffffffff1673ffffffffffffffffffffffffffffffffffffffff160361106857600360009054906101000a900473ffffffffffffffffffffffffffffffffffffffff1661108c565b600460009054906101000a900473ffffffffffffffffffffffffffffffffffffffff165b9050600073ffffffffffffffffffffffffffffffffffffffff168173ffffffffffffffffffffffffffffffffffffffff16036110f4576040517fe4ca3a1e00000000000000000000000000000000000000000000000000000000815260040160405180910390fd5b61111f33838773ffffffffffffffffffffffffffffffffffffffff16612ba59092919063ffffffff16565b61114a81848773ffffffffffffffffffffffffffffffffffffffff16612ba59092919063ffffffff16565b3373ffffffffffffffffffffffffffffffffffffffff167fc26ae46c762e438a9ed2c63cfe4615cdfe6c9dcc44e9f52b8eb26b42ae51006383858c604051611194939291906149b7565b60405180910390a2505050505b6115ad565b60018460030160009054906101000a900460ff1660ff16036113b85762ed4e0082101561120f578162ed4e006040517f5a156573000000000000000000000000000000000000000000000000000000008152600401611206929190614823565b60405180910390fd5b60008460050160006101000a81548160ff0219169083151502179055508360050160019054906101000a900460ff161561126157826007600082825461125591906148aa565b9250508190555061127b565b826006600082825461127391906148aa565b925050819055505b600073ffffffffffffffffffffffffffffffffffffffff16600360009054906101000a900473ffffffffffffffffffffffffffffffffffffffff1673ffffffffffffffffffffffffffffffffffffffff1603611303576040517fb2c4cce900000000000000000000000000000000000000000000000000000000815260040160405180910390fd5b611350600360009054906101000a900473ffffffffffffffffffffffffffffffffffffffff16848373ffffffffffffffffffffffffffffffffffffffff16612ba59092919063ffffffff16565b3373ffffffffffffffffffffffffffffffffffffffff167f6c42d2bb36ad42ac675a97c8627d2cd9e34346d5057bbc3a6ed3c5d1f0a8219b84878760050160019054906101000a900460ff166040516113ab939291906148de565b60405180910390a26115ac565b6301da9c0082101561140757816301da9c006040517f5a1565730000000000000000000000000000000000000000000000000000000081526004016113fe929190614823565b60405180910390fd5b60008460050160006101000a81548160ff0219169083151502179055508360050160019054906101000a900460ff161561145957826007600082825461144d91906148aa565b92505081905550611473565b826006600082825461146b91906148aa565b925050819055505b600073ffffffffffffffffffffffffffffffffffffffff16600360009054906101000a900473ffffffffffffffffffffffffffffffffffffffff1673ffffffffffffffffffffffffffffffffffffffff16036114fb576040517fb2c4cce900000000000000000000000000000000000000000000000000000000815260040160405180910390fd5b611548600360009054906101000a900473ffffffffffffffffffffffffffffffffffffffff16848373ffffffffffffffffffffffffffffffffffffffff16612ba59092919063ffffffff16565b3373ffffffffffffffffffffffffffffffffffffffff167f6c42d2bb36ad42ac675a97c8627d2cd9e34346d5057bbc3a6ed3c5d1f0a8219b84878760050160019054906101000a900460ff166040516115a3939291906148de565b60405180910390a25b5b505050506115b9612c24565b50565b6115c582610bb9565b6115ce81612af9565b6115d88383612c3d565b50505050565b60086020528060005260406000206000915090505481565b6115fe612d3e565b73ffffffffffffffffffffffffffffffffffffffff168173ffffffffffffffffffffffffffffffffffffffff1614611662576040517f6697b23200000000000000000000000000000000000000000000000000000000815260040160405180910390fd5b61166c8282612d46565b505050565b600b60009054906101000a900460ff1681565b61168c612b0d565b611694612b64565b600b60009054906101000a900460ff166116da576040517fa0da717e00000000000000000000000000000000000000000000000000000000815260040160405180910390fd5b6116e682826000612e48565b6116ee612c24565b5050565b6000801b6116ff81612af9565b61170761331e565b50565b7f97667070c54ef182b0f5858b034beac1b6f3089aa2d3188bb1e8929f4fa9b92961173481612af9565b6000808473ffffffffffffffffffffffffffffffffffffffff1673ffffffffffffffffffffffffffffffffffffffff1681526020019081526020016000208054905082106117fc57816000808573ffffffffffffffffffffffffffffffffffffffff1673ffffffffffffffffffffffffffffffffffffffff168152602001908152602001600020805490506040517f886adff20000000000000000000000000000000000000000000000000000000081526004016117f3929190614823565b60405180910390fd5b60008060008573ffffffffffffffffffffffffffffffffffffffff1673ffffffffffffffffffffffffffffffffffffffff168152602001908152602001600020838154811061184e5761184d61484c565b5b906000526020600020906006020190508060050160009054906101000a900460ff166118a6576040517fb0dd466e00000000000000000000000000000000000000000000000000000000815260040160405180910390fd5b4281600401819055508373ffffffffffffffffffffffffffffffffffffffff167f34e53cdc93d24c33f8a28e7930f52ca29828b42ff4897ef3bc33475a7221dd6684426040516118f7929190614823565b60405180910390a250505050565b61190d612b0d565b611915612b64565b61192182826001612e48565b611929612c24565b5050565b611935613390565b61193e82613476565b6119488282613487565b5050565b60006119566135a6565b7f360894a13ba1a3210667c828492db98dca3e2076cc3735a920a3ca505d382bbc60001b905090565b6000801b61198c81612af9565b6127108211156119c8576040517f6a43f8d100000000000000000000000000000000000000000000000000000000815260040160405180910390fd5b6000600a54905082600a819055507faca7a49c408c4bcabd67840f8e03e8d020733d29a851f11c17dbab8fd70174498184604051611a07929190614823565b60405180910390a1505050565b62278d0081565b600080611a2661362d565b90508060000160009054906101000a900460ff1691505090565b6000801b611a4d81612af9565b600073ffffffffffffffffffffffffffffffffffffffff168273ffffffffffffffffffffffffffffffffffffffff1603611ab3576040517fd92e233d00000000000000000000000000000000000000000000000000000000815260040160405180910390fd5b6000600360009054906101000a900473ffffffffffffffffffffffffffffffffffffffff16905082600360006101000a81548173ffffffffffffffffffffffffffffffffffffffff021916908373ffffffffffffffffffffffffffffffffffffffff1602179055508273ffffffffffffffffffffffffffffffffffffffff168173ffffffffffffffffffffffffffffffffffffffff167f430359a6d97ced2b6f93c77a91e7ce9dfd43252eb91e916adba170485cd8a6a460405160405180910390a3505050565b6000806000905060008060008573ffffffffffffffffffffffffffffffffffffffff1673ffffffffffffffffffffffffffffffffffffffff168152602001908152602001600020905060005b8180549050811015611c4957818181548110611be557611be461484c565b5b906000526020600020906006020160050160009054906101000a900460ff1615611c3c57818181548110611c1c57611c1b61484c565b5b90600052602060002090600602016001015483611c3991906149ee565b92505b8080600101915050611bc6565b508192505050919050565b60606000808373ffffffffffffffffffffffffffffffffffffffff1673ffffffffffffffffffffffffffffffffffffffff168152602001908152602001600020805480602002602001604051908101604052809291908181526020016000905b82821015611d6157838290600052602060002090600602016040518060e00160405290816000820154815260200160018201548152602001600282015481526020016003820160009054906101000a900460ff1660ff1660ff168152602001600482015481526020016005820160009054906101000a900460ff161515151581526020016005820160019054906101000a900460ff16151515158152505081526020019060010190611cb4565b505050509050919050565b60065481565b6000801b611d7f81612af9565b81600b60006101000a81548160ff0219169083151502179055507ffaf034991b7bf747e10be15c95e78df391eeaacbe56e7cdbda5f4ba863a721f182604051611dc89190613efb565b60405180910390a15050565b7fbf233dd2aafeb4d50879c4aa5c81e96d92f6e6945c906a58f9f2d1c1631b4b26611dfe81612af9565b611e06613655565b50565b600560009054906101000a900473ffffffffffffffffffffffffffffffffffffffff1681565b60075481565b6301da9c0081565b600080611e48612ad1565b905080600001600085815260200190815260200160002060000160008473ffffffffffffffffffffffffffffffffffffffff1673ffffffffffffffffffffffffffffffffffffffff16815260200190815260200160002060009054906101000a900460ff1691505092915050565b6000801b611ec381612af9565b60028360ff161115611f0c57826040517f5fa674b7000000000000000000000000000000000000000000000000000000008152600401611f039190614a31565b60405180910390fd5b60008203611f46576040517f6a43f8d100000000000000000000000000000000000000000000000000000000815260040160405180910390fd5b6000600860008560ff1660ff16815260200190815260200160002054905082600860008660ff1660ff168152602001908152602001600020819055507ff45acd2371823bc6ac4ef0447845769244a8d55861de7afe1d51f044da56d576848285604051611fb593929190614a4c565b60405180910390a150505050565b6105dc81565b6000801b81565b6040518060400160405280600581526020017f352e302e3000000000000000000000000000000000000000000000000000000081525081565b6000801b61201681612af9565b6000600560009054906101000a900473ffffffffffffffffffffffffffffffffffffffff16905082600560006101000a81548173ffffffffffffffffffffffffffffffffffffffff021916908373ffffffffffffffffffffffffffffffffffffffff1602179055508273ffffffffffffffffffffffffffffffffffffffff168173ffffffffffffffffffffffffffffffffffffffff167f8cfaacab0869ad5307d9175b1a62164d7c9630958cbbc7bc9918133cd6fbb02d60405160405180910390a3505050565b600460009054906101000a900473ffffffffffffffffffffffffffffffffffffffff1681565b600160009054906101000a900473ffffffffffffffffffffffffffffffffffffffff1681565b600360009054906101000a900473ffffffffffffffffffffffffffffffffffffffff1681565b620f424081565b60006121606136c7565b905060008160000160089054906101000a900460ff1615905060008260000160009054906101000a900467ffffffffffffffff1690506000808267ffffffffffffffff161480156121ae5750825b9050600060018367ffffffffffffffff161480156121e3575060003073ffffffffffffffffffffffffffffffffffffffff163b145b9050811580156121f1575080155b15612228576040517ff92ee8a900000000000000000000000000000000000000000000000000000000815260040160405180910390fd5b60018560000160006101000a81548167ffffffffffffffff021916908367ffffffffffffffff16021790555083156122785760018560000160086101000a81548160ff0219169083151502179055505b600073ffffffffffffffffffffffffffffffffffffffff168b73ffffffffffffffffffffffffffffffffffffffff16036122de576040517fd92e233d00000000000000000000000000000000000000000000000000000000815260040160405180910390fd5b600073ffffffffffffffffffffffffffffffffffffffff168a73ffffffffffffffffffffffffffffffffffffffff1603612344576040517fd92e233d00000000000000000000000000000000000000000000000000000000815260040160405180910390fd5b600073ffffffffffffffffffffffffffffffffffffffff168673ffffffffffffffffffffffffffffffffffffffff16036123aa576040517fd92e233d00000000000000000000000000000000000000000000000000000000815260040160405180910390fd5b6123b26136db565b6123ba6136e5565b6123c26136ef565b6123ca613701565b6123d76000801b87612c3d565b506124027f97667070c54ef182b0f5858b034beac1b6f3089aa2d3188bb1e8929f4fa9b92987612c3d565b5061242d7fbf233dd2aafeb4d50879c4aa5c81e96d92f6e6945c906a58f9f2d1c1631b4b2687612c3d565b508a600160006101000a81548173ffffffffffffffffffffffffffffffffffffffff021916908373ffffffffffffffffffffffffffffffffffffffff16021790555089600260006101000a81548173ffffffffffffffffffffffffffffffffffffffff021916908373ffffffffffffffffffffffffffffffffffffffff16021790555088600360006101000a81548173ffffffffffffffffffffffffffffffffffffffff021916908373ffffffffffffffffffffffffffffffffffffffff16021790555087600460006101000a81548173ffffffffffffffffffffffffffffffffffffffff021916908373ffffffffffffffffffffffffffffffffffffffff16021790555086600560006101000a81548173ffffffffffffffffffffffffffffffffffffffff021916908373ffffffffffffffffffffffffffffffffffffffff1602179055506019600860008060ff16815260200190815260200160002081905550606460086000600160ff16815260200190815260200160002081905550604560086000600260ff16815260200190815260200160002081905550622255106009819055506000600b60006101000a81548160ff021916908315150217905550831561264a5760008560000160086101000a81548160ff0219169083151502179055507fc7f505b2f371ae2175ee4913f4499e1f2633a7b5936321eed1cdaeb6115181d260016040516126419190614ad2565b60405180910390a15b5050505050505050505050565b60008060008373ffffffffffffffffffffffffffffffffffffffff1673ffffffffffffffffffffffffffffffffffffffff168152602001908152602001600020805490509050919050565b6126aa613e03565b6000808473ffffffffffffffffffffffffffffffffffffffff1673ffffffffffffffffffffffffffffffffffffffff16815260200190815260200160002080549050821061277257816000808573ffffffffffffffffffffffffffffffffffffffff1673ffffffffffffffffffffffffffffffffffffffff168152602001908152602001600020805490506040517f886adff2000000000000000000000000000000000000000000000000000000008152600401612769929190614823565b60405180910390fd5b6000808473ffffffffffffffffffffffffffffffffffffffff1673ffffffffffffffffffffffffffffffffffffffff16815260200190815260200160002082815481106127c2576127c161484c565b5b90600052602060002090600602016040518060e00160405290816000820154815260200160018201548152602001600282015481526020016003820160009054906101000a900460ff1660ff1660ff168152602001600482015481526020016005820160009054906101000a900460ff161515151581526020016005820160019054906101000a900460ff161515151581525050905092915050565b61286782610bb9565b61287081612af9565b61287a8383612d46565b50505050565b600a5481565b60095481565b60008060008473ffffffffffffffffffffffffffffffffffffffff1673ffffffffffffffffffffffffffffffffffffffff16815260200190815260200160002080549050821061295657816000808573ffffffffffffffffffffffffffffffffffffffff1673ffffffffffffffffffffffffffffffffffffffff168152602001908152602001600020805490506040517f886adff200000000000000000000000000000000000000000000000000000000815260040161294d929190614823565b60405180910390fd5b612960838361370b565b905092915050565b6000801b61297581612af9565b6000600460009054906101000a900473ffffffffffffffffffffffffffffffffffffffff16905082600460006101000a81548173ffffffffffffffffffffffffffffffffffffffff021916908373ffffffffffffffffffffffffffffffffffffffff1602179055508273ffffffffffffffffffffffffffffffffffffffff168173ffffffffffffffffffffffffffffffffffffffff167faaacfd13fec096e700804ded812af382b8c10ef526ebefcefa79f78f70dc476760405160405180910390a3505050565b7f97667070c54ef182b0f5858b034beac1b6f3089aa2d3188bb1e8929f4fa9b92981565b62ed4e0081565b60007f01ffc9a7000000000000000000000000000000000000000000000000000000007bffffffffffffffffffffffffffffffffffffffffffffffffffffffff1916827bffffffffffffffffffffffffffffffffffffffffffffffffffffffff1916149050919050565b60007f02dd7bc7dec4dceedda775e58dd541e08a116c6c53815c0bd028192f7b626800905090565b612b0a81612b05612d3e565b613845565b50565b6000612b17613896565b90506002816000015403612b57576040517f3ee5aeb500000000000000000000000000000000000000000000000000000000815260040160405180910390fd5b6002816000018190555050565b612b6c611a1b565b15612ba3576040517fd93c066500000000000000000000000000000000000000000000000000000000815260040160405180910390fd5b565b612c1f838473ffffffffffffffffffffffffffffffffffffffff1663a9059cbb8585604051602401612bd8929190614aed565b604051602081830303815290604052915060e01b6020820180517bffffffffffffffffffffffffffffffffffffffffffffffffffffffff83818316178352505050506138be565b505050565b6000612c2e613896565b90506001816000018190555050565b600080612c48612ad1565b9050612c548484611e3d565b612d3257600181600001600086815260200190815260200160002060000160008573ffffffffffffffffffffffffffffffffffffffff1673ffffffffffffffffffffffffffffffffffffffff16815260200190815260200160002060006101000a81548160ff021916908315150217905550612cce612d3e565b73ffffffffffffffffffffffffffffffffffffffff168373ffffffffffffffffffffffffffffffffffffffff16857f2f8788117e7eff1d82e926ec794901d17c78024a50270940304540a733656f0d60405160405180910390a46001915050612d38565b60009150505b92915050565b600033905090565b600080612d51612ad1565b9050612d5d8484611e3d565b15612e3c57600081600001600086815260200190815260200160002060000160008573ffffffffffffffffffffffffffffffffffffffff1673ffffffffffffffffffffffffffffffffffffffff16815260200190815260200160002060006101000a81548160ff021916908315150217905550612dd8612d3e565b73ffffffffffffffffffffffffffffffffffffffff168373ffffffffffffffffffffffffffffffffffffffff16857ff6391f5c32d9c69d2a47ea670b442974b53935d1edc7fd64eb21e047a839171b60405160405180910390a46001915050612e42565b60009150505b92915050565b60008303612e82576040517f1f2a200500000000000000000000000000000000000000000000000000000000815260040160405180910390fd5b620f4240831015612ebf576040517f43d5819000000000000000000000000000000000000000000000000000000000815260040160405180910390fd5b60028260ff161115612f0857816040517f5fa674b7000000000000000000000000000000000000000000000000000000008152600401612eff9190614a31565b60405180910390fd5b600073ffffffffffffffffffffffffffffffffffffffff16600560009054906101000a900473ffffffffffffffffffffffffffffffffffffffff1673ffffffffffffffffffffffffffffffffffffffff161461303157600560009054906101000a900473ffffffffffffffffffffffffffffffffffffffff1673ffffffffffffffffffffffffffffffffffffffff16630c5aed57336040518263ffffffff1660e01b8152600401612fb991906145f1565b602060405180830381865afa158015612fd6573d6000803e3d6000fd5b505050506040513d601f19601f82011682018060405250810190612ffa9190614b2b565b613030576040517f1103b9d400000000000000000000000000000000000000000000000000000000815260040160405180910390fd5b5b60008161306057600160009054906101000a900473ffffffffffffffffffffffffffffffffffffffff16613084565b600260009054906101000a900473ffffffffffffffffffffffffffffffffffffffff165b90506130b33330868473ffffffffffffffffffffffffffffffffffffffff16613960909392919063ffffffff16565b60008215613132576000600954036130f6576040517ebfc92100000000000000000000000000000000000000000000000000000000815260040160405180910390fd5b600954620f4240866131089190614915565b6131129190614986565b9050846007600082825461312691906149ee565b9250508190555061314f565b849050846006600082825461314791906149ee565b925050819055505b60008060003373ffffffffffffffffffffffffffffffffffffffff1673ffffffffffffffffffffffffffffffffffffffff1681526020019081526020016000208054905090506000803373ffffffffffffffffffffffffffffffffffffffff1673ffffffffffffffffffffffffffffffffffffffff1681526020019081526020016000206040518060e001604052808881526020018481526020014281526020018760ff168152602001428152602001600115158152602001861515815250908060018154018082558091505060019003906000526020600020906006020160009091909190915060008201518160000155602082015181600101556040820151816002015560608201518160030160006101000a81548160ff021916908360ff1602179055506080820151816004015560a08201518160050160006101000a81548160ff02191690831515021790555060c08201518160050160016101000a81548160ff02191690831515021790555050503373ffffffffffffffffffffffffffffffffffffffff167f959b164fd247760130a5a44112fc30dfa06ddd42ff64c64159b55400e0b5b7818787848860405161330e9493929190614b58565b60405180910390a2505050505050565b6133266139e2565b600061333061362d565b905060008160000160006101000a81548160ff0219169083151502179055507f5db9ee0a495bf2e6ff9c91a7834c1ba4fdd244a5e8aa4e537bd38aeae4b073aa613378612d3e565b60405161338591906145f1565b60405180910390a150565b7f000000000000000000000000000000000000000000000000000000000000000073ffffffffffffffffffffffffffffffffffffffff163073ffffffffffffffffffffffffffffffffffffffff16148061343d57507f000000000000000000000000000000000000000000000000000000000000000073ffffffffffffffffffffffffffffffffffffffff16613424613a22565b73ffffffffffffffffffffffffffffffffffffffff1614155b15613474576040517fe07c8dba00000000000000000000000000000000000000000000000000000000815260040160405180910390fd5b565b6000801b61348381612af9565b5050565b8173ffffffffffffffffffffffffffffffffffffffff166352d1902d6040518163ffffffff1660e01b8152600401602060405180830381865afa9250505080156134ef57506040513d601f19601f820116820180604052508101906134ec9190614bb2565b60015b61353057816040517f4c9c8ce300000000000000000000000000000000000000000000000000000000815260040161352791906145f1565b60405180910390fd5b7f360894a13ba1a3210667c828492db98dca3e2076cc3735a920a3ca505d382bbc60001b811461359757806040517faa1d49a400000000000000000000000000000000000000000000000000000000815260040161358e9190613fc9565b60405180910390fd5b6135a18383613a79565b505050565b7f000000000000000000000000000000000000000000000000000000000000000073ffffffffffffffffffffffffffffffffffffffff163073ffffffffffffffffffffffffffffffffffffffff161461362b576040517fe07c8dba00000000000000000000000000000000000000000000000000000000815260040160405180910390fd5b565b60007fcd5ed15c6e187e77e9aee88184c21f4f2182ab5827cb3b7e07fbedcd63f03300905090565b61365d612b64565b600061366761362d565b905060018160000160006101000a81548160ff0219169083151502179055507f62e78cea01bee320cd4e420270b5ea74000d11b0c9f74754ebdbfc544b05a2586136af612d3e565b6040516136bc91906145f1565b60405180910390a150565b6000806136d2613aec565b90508091505090565b6136e3613b17565b565b6136ed613b17565b565b6136f7613b17565b6136ff613b57565b565b613709613b17565b565b6000806000808573ffffffffffffffffffffffffffffffffffffffff1673ffffffffffffffffffffffffffffffffffffffff168152602001908152602001600020838154811061375e5761375d61484c565b5b906000526020600020906006020190508060050160009054906101000a900460ff161580613790575060008160010154145b1561379f57600091505061383f565b60008160040154426137b191906148aa565b9050600081036137c65760009250505061383f565b6000600860008460030160009054906101000a900460ff1660ff1660ff16815260200190815260200160002054905060008103613809576000935050505061383f565b600063337f9800838386600101546138219190614915565b61382b9190614915565b6138359190614986565b9050809450505050505b92915050565b61384f8282611e3d565b6138925780826040517fe2517d3f000000000000000000000000000000000000000000000000000000008152600401613889929190614bdf565b60405180910390fd5b5050565b60007f9b779b17422d0df92223018b32b4d1fa46e071723d6817e2486d003becc55f00905090565b600080602060008451602086016000885af1806138e1576040513d6000823e3d81fd5b3d9250600051915050600082146138fc576001811415613918565b60008473ffffffffffffffffffffffffffffffffffffffff163b145b1561395a57836040517f5274afe700000000000000000000000000000000000000000000000000000000815260040161395191906145f1565b60405180910390fd5b50505050565b6139dc848573ffffffffffffffffffffffffffffffffffffffff166323b872dd86868660405160240161399593929190614c08565b604051602081830303815290604052915060e01b6020820180517bffffffffffffffffffffffffffffffffffffffffffffffffffffffff83818316178352505050506138be565b50505050565b6139ea611a1b565b613a20576040517f8dfc202b00000000000000000000000000000000000000000000000000000000815260040160405180910390fd5b565b6000613a507f360894a13ba1a3210667c828492db98dca3e2076cc3735a920a3ca505d382bbc60001b613b78565b60000160009054906101000a900473ffffffffffffffffffffffffffffffffffffffff16905090565b613a8282613b82565b8173ffffffffffffffffffffffffffffffffffffffff167fbc7cd75a20ee27fd9adebab32041f755214dbc6bffa90cc0225b39da2e5c2d3b60405160405180910390a2600081511115613adf57613ad98282613c4f565b50613ae8565b613ae7613cd3565b5b5050565b60007ff0c57e16840df040f15088dc2f81fe391c3923bec73e23a9662efc9c229c6a0060001b905090565b613b1f613d10565b613b55576040517fd7e6bcf800000000000000000000000000000000000000000000000000000000815260040160405180910390fd5b565b613b5f613b17565b6000613b69613896565b90506001816000018190555050565b6000819050919050565b60008173ffffffffffffffffffffffffffffffffffffffff163b03613bde57806040517f4c9c8ce3000000000000000000000000000000000000000000000000000000008152600401613bd591906145f1565b60405180910390fd5b80613c0b7f360894a13ba1a3210667c828492db98dca3e2076cc3735a920a3ca505d382bbc60001b613b78565b60000160006101000a81548173ffffffffffffffffffffffffffffffffffffffff021916908373ffffffffffffffffffffffffffffffffffffffff16021790555050565b60606000808473ffffffffffffffffffffffffffffffffffffffff1684604051613c799190614c86565b600060405180830381855af49150503d8060008114613cb4576040519150601f19603f3d011682016040523d82523d6000602084013e613cb9565b606091505b5091509150613cc9858383613d30565b9250505092915050565b6000341115613d0e576040517fb398979f00000000000000000000000000000000000000000000000000000000815260040160405180910390fd5b565b6000613d1a6136c7565b60000160089054906101000a900460ff16905090565b606082613d4557613d4082613dbf565b613db7565b60008251148015613d6d575060008473ffffffffffffffffffffffffffffffffffffffff163b145b15613daf57836040517f9996b315000000000000000000000000000000000000000000000000000000008152600401613da691906145f1565b60405180910390fd5b819050613db8565b5b9392505050565b600081511115613dd157805160208201fd5b6040517fd6bda27500000000000000000000000000000000000000000000000000000000815260040160405180910390fd5b6040518060e00160405280600081526020016000815260200160008152602001600060ff168152602001600081526020016000151581526020016000151581525090565b6000604051905090565b600080fd5b600080fd5b60007fffffffff0000000000000000000000000000000000000000000000000000000082169050919050565b613e9081613e5b565b8114613e9b57600080fd5b50565b600081359050613ead81613e87565b92915050565b600060208284031215613ec957613ec8613e51565b5b6000613ed784828501613e9e565b91505092915050565b60008115159050919050565b613ef581613ee0565b82525050565b6000602082019050613f106000830184613eec565b92915050565b600073ffffffffffffffffffffffffffffffffffffffff82169050919050565b6000819050919050565b6000613f5b613f56613f5184613f16565b613f36565b613f16565b9050919050565b6000613f6d82613f40565b9050919050565b6000613f7f82613f62565b9050919050565b613f8f81613f74565b82525050565b6000602082019050613faa6000830184613f86565b92915050565b6000819050919050565b613fc381613fb0565b82525050565b6000602082019050613fde6000830184613fba565b92915050565b613fed81613fb0565b8114613ff857600080fd5b50565b60008135905061400a81613fe4565b92915050565b60006020828403121561402657614025613e51565b5b600061403484828501613ffb565b91505092915050565b6000819050919050565b6140508161403d565b811461405b57600080fd5b50565b60008135905061406d81614047565b92915050565b60006020828403121561408957614088613e51565b5b60006140978482850161405e565b91505092915050565b60006140ab82613f16565b9050919050565b6140bb816140a0565b81146140c657600080fd5b50565b6000813590506140d8816140b2565b92915050565b600080604083850312156140f5576140f4613e51565b5b600061410385828601613ffb565b9250506020614114858286016140c9565b9150509250929050565b600060ff82169050919050565b6141348161411e565b811461413f57600080fd5b50565b6000813590506141518161412b565b92915050565b60006020828403121561416d5761416c613e51565b5b600061417b84828501614142565b91505092915050565b61418d8161403d565b82525050565b60006020820190506141a86000830184614184565b92915050565b600080604083850312156141c5576141c4613e51565b5b60006141d38582860161405e565b92505060206141e485828601614142565b9150509250929050565b6000806040838503121561420557614204613e51565b5b6000614213858286016140c9565b92505060206142248582860161405e565b9150509250929050565b600080fd5b600080fd5b6000601f19601f8301169050919050565b7f4e487b7100000000000000000000000000000000000000000000000000000000600052604160045260246000fd5b61428182614238565b810181811067ffffffffffffffff821117156142a05761429f614249565b5b80604052505050565b60006142b3613e47565b90506142bf8282614278565b919050565b600067ffffffffffffffff8211156142df576142de614249565b5b6142e882614238565b9050602081019050919050565b82818337600083830152505050565b6000614317614312846142c4565b6142a9565b90508281526020810184848401111561433357614332614233565b5b61433e8482856142f5565b509392505050565b600082601f83011261435b5761435a61422e565b5b813561436b848260208601614304565b91505092915050565b6000806040838503121561438b5761438a613e51565b5b6000614399858286016140c9565b925050602083013567ffffffffffffffff8111156143ba576143b9613e56565b5b6143c685828601614346565b9150509250929050565b6000602082840312156143e6576143e5613e51565b5b60006143f4848285016140c9565b91505092915050565b600081519050919050565b600082825260208201905092915050565b6000819050602082019050919050565b6144328161403d565b82525050565b6144418161411e565b82525050565b61445081613ee0565b82525050565b60e08201600082015161446c6000850182614429565b50602082015161447f6020850182614429565b5060408201516144926040850182614429565b5060608201516144a56060850182614438565b5060808201516144b86080850182614429565b5060a08201516144cb60a0850182614447565b5060c08201516144de60c0850182614447565b50505050565b60006144f08383614456565b60e08301905092915050565b6000602082019050919050565b6000614514826143fd565b61451e8185614408565b935061452983614419565b8060005b8381101561455a57815161454188826144e4565b975061454c836144fc565b92505060018101905061452d565b5085935050505092915050565b600060208201905081810360008301526145818184614509565b905092915050565b61459281613ee0565b811461459d57600080fd5b50565b6000813590506145af81614589565b92915050565b6000602082840312156145cb576145ca613e51565b5b60006145d9848285016145a0565b91505092915050565b6145eb816140a0565b82525050565b600060208201905061460660008301846145e2565b92915050565b6000806040838503121561462357614622613e51565b5b600061463185828601614142565b92505060206146428582860161405e565b9150509250929050565b600081519050919050565b600082825260208201905092915050565b60005b8381101561468657808201518184015260208101905061466b565b60008484015250505050565b600061469d8261464c565b6146a78185614657565b93506146b7818560208601614668565b6146c081614238565b840191505092915050565b600060208201905081810360008301526146e58184614692565b905092915050565b60008060008060008060c0878903121561470a57614709613e51565b5b600061471889828a016140c9565b965050602061472989828a016140c9565b955050604061473a89828a016140c9565b945050606061474b89828a016140c9565b935050608061475c89828a016140c9565b92505060a061476d89828a016140c9565b9150509295509295509295565b60e0820160008201516147906000850182614429565b5060208201516147a36020850182614429565b5060408201516147b66040850182614429565b5060608201516147c96060850182614438565b5060808201516147dc6080850182614429565b5060a08201516147ef60a0850182614447565b5060c082015161480260c0850182614447565b50505050565b600060e08201905061481d600083018461477a565b92915050565b60006040820190506148386000830185614184565b6148456020830184614184565b9392505050565b7f4e487b7100000000000000000000000000000000000000000000000000000000600052603260045260246000fd5b7f4e487b7100000000000000000000000000000000000000000000000000000000600052601160045260246000fd5b60006148b58261403d565b91506148c08361403d565b92508282039050818111156148d8576148d761487b565b5b92915050565b60006060820190506148f36000830186614184565b6149006020830185614184565b61490d6040830184613eec565b949350505050565b60006149208261403d565b915061492b8361403d565b92508282026149398161403d565b915082820484148315176149505761494f61487b565b5b5092915050565b7f4e487b7100000000000000000000000000000000000000000000000000000000600052601260045260246000fd5b60006149918261403d565b915061499c8361403d565b9250826149ac576149ab614957565b5b828204905092915050565b60006060820190506149cc6000830186614184565b6149d96020830185614184565b6149e66040830184614184565b949350505050565b60006149f98261403d565b9150614a048361403d565b9250828201905080821115614a1c57614a1b61487b565b5b92915050565b614a2b8161411e565b82525050565b6000602082019050614a466000830184614a22565b92915050565b6000606082019050614a616000830186614a22565b614a6e6020830185614184565b614a7b6040830184614184565b949350505050565b6000819050919050565b600067ffffffffffffffff82169050919050565b6000614abc614ab7614ab284614a83565b613f36565b614a8d565b9050919050565b614acc81614aa1565b82525050565b6000602082019050614ae76000830184614ac3565b92915050565b6000604082019050614b0260008301856145e2565b614b0f6020830184614184565b9392505050565b600081519050614b2581614589565b92915050565b600060208284031215614b4157614b40613e51565b5b6000614b4f84828501614b16565b91505092915050565b6000608082019050614b6d6000830187614184565b614b7a6020830186614a22565b614b876040830185614184565b614b946060830184613eec565b95945050505050565b600081519050614bac81613fe4565b92915050565b600060208284031215614bc857614bc7613e51565b5b6000614bd684828501614b9d565b91505092915050565b6000604082019050614bf460008301856145e2565b614c016020830184613fba565b9392505050565b6000606082019050614c1d60008301866145e2565b614c2a60208301856145e2565b614c376040830184614184565b949350505050565b600081519050919050565b600081905092915050565b6000614c6082614c3f565b614c6a8185614c4a565b9350614c7a818560208601614668565b80840191505092915050565b6000614c928284614c55565b91508190509291505056fea2646970667358221220ae7edec23a4f982262b43c9cef449273bf3726c361e9a71edfddf6b39060958264736f6c634300081b0033",
  "linkReferences": {},
  "deployedLinkReferences": {}
}