{
  "_format": "hh-sol-artifact-1",
  "contractName": "VestingPool",
  "sourceName": "contracts/VestingPool.sol",
  "abi": [
    {
      "inputs": [],
      "stateMutability": "nonpayable",
      "type": "constructor"
    },
    {
      "inputs": [],
      "name": "AccessControlBadConfirmation",
      "type": "error"
    },
    {
      "inputs": [
        {
          "internalType": "address",
          "name": "account",
          "type": "address"
        },
        {
          "internalType": "bytes32",
          "name": "neededRole",
          "type": "bytes32"
        }
      ],
      "name": "AccessControlUnauthorizedAccount",
      "type": "error"
    },
    {
      "inputs": [
        {
          "internalType": "address",
          "name": "target",
          "type": "address"
        }
      ],
      "name": "AddressEmptyCode",
      "type": "error"
    },
    {
      "inputs": [],
      "name": "DepositFullyReleased",
      "type": "error"
    },
    {
      "inputs": [
        {
          "internalType": "address",
          "name": "implementation",
          "type": "address"
        }
      ],
      "name": "ERC1967InvalidImplementation",
      "type": "error"
    },
    {
      "inputs": [],
      "name": "ERC1967NonPayable",
      "type": "error"
    },
    {
      "inputs": [],
      "name": "EarlyUnlockDisabled",
      "type": "error"
    },
    {
      "inputs": [],
      "name": "EnforcedPause",
      "type": "error"
    },
    {
      "inputs": [],
      "name": "ExpectedPause",
      "type": "error"
    },
    {
      "inputs": [],
      "name": "FailedCall",
      "type": "error"
    },
    {
      "inputs": [
        {
          "internalType": "uint256",
          "name": "index",
          "type": "uint256"
        },
        {
          "internalType": "uint256",
          "name": "length",
          "type": "uint256"
        }
      ],
      "name": "InvalidDepositIndex",
      "type": "error"
    },
    {
      "inputs": [],
      "name": "InvalidInitialization",
      "type": "error"
    },
    {
      "inputs": [],
      "name": "InvalidPercentage",
      "type": "error"
    },
    {
      "inputs": [],
      "name": "InvalidVestingType",
      "type": "error"
    },
    {
      "inputs": [],
      "name": "NotInitializing",
      "type": "error"
    },
    {
      "inputs": [],
      "name": "NotUserOrOperator",
      "type": "error"
    },
    {
      "inputs": [],
      "name": "NothingToRelease",
      "type": "error"
    },
    {
      "inputs": [],
      "name": "ReentrancyGuardReentrantCall",
      "type": "error"
    },
    {
      "inputs": [],
      "name": "ReserveFundNotSet",
      "type": "error"
    },
    {
      "inputs": [
        {
          "internalType": "address",
          "name": "token",
          "type": "address"
        }
      ],
      "name": "SafeERC20FailedOperation",
      "type": "error"
    },
    {
      "inputs": [],
      "name": "UUPSUnauthorizedCallContext",
      "type": "error"
    },
    {
      "inputs": [
        {
          "internalType": "bytes32",
          "name": "slot",
          "type": "bytes32"
        }
      ],
      "name": "UUPSUnsupportedProxiableUUID",
      "type": "error"
    },
    {
      "inputs": [],
      "name": "WithdrawalWalletNotSet",
      "type": "error"
    },
    {
      "inputs": [],
      "name": "ZeroAddress",
      "type": "error"
    },
    {
      "inputs": [],
      "name": "ZeroAmount",
      "type": "error"
    },
    {
      "anonymous": false,
      "inputs": [
        {
          "indexed": false,
          "internalType": "uint256",
          "name": "oldBps",
          "type": "uint256"
        },
        {
          "indexed": false,
          "internalType": "uint256",
          "name": "newBps",
          "type": "uint256"
        }
      ],
      "name": "EarlyUnlockPenaltyUpdated",
      "type": "event"
    },
    {
      "anonymous": false,
      "inputs": [
        {
          "indexed": false,
          "internalType": "bool",
          "name": "enabled",
          "type": "bool"
        }
      ],
      "name": "EarlyUnlockToggled",
      "type": "event"
    },
    {
      "anonymous": false,
      "inputs": [
        {
          "indexed": true,
          "internalType": "address",
          "name": "user",
          "type": "address"
        },
        {
          "indexed": false,
          "internalType": "uint256",
          "name": "netAmount",
          "type": "uint256"
        },
        {
          "indexed": false,
          "internalType": "uint256",
          "name": "penalty",
          "type": "uint256"
        },
        {
          "indexed": false,
          "internalType": "uint256",
          "name": "depositIndex",
          "type": "uint256"
        }
      ],
      "name": "EarlyUnlocked",
      "type": "event"
    },
    {
      "anonymous": false,
      "inputs": [
        {
          "indexed": false,
          "internalType": "uint64",
          "name": "version",
          "type": "uint64"
        }
      ],
      "name": "Initialized",
      "type": "event"
    },
    {
      "anonymous": false,
      "inputs": [
        {
          "indexed": false,
          "internalType": "address",
          "name": "account",
          "type": "address"
        }
      ],
      "name": "Paused",
      "type": "event"
    },
    {
      "anonymous": false,
      "inputs": [
        {
          "indexed": true,
          "internalType": "address",
          "name": "oldAddr",
          "type": "address"
        },
        {
          "indexed": true,
          "internalType": "address",
          "name": "newAddr",
          "type": "address"
        }
      ],
      "name": "ReserveFundUpdated",
      "type": "event"
    },
    {
      "anonymous": false,
      "inputs": [
        {
          "indexed": true,
          "internalType": "bytes32",
          "name": "role",
          "type": "bytes32"
        },
        {
          "indexed": true,
          "internalType": "bytes32",
          "name": "previousAdminRole",
          "type": "bytes32"
        },
        {
          "indexed": true,
          "internalType": "bytes32",
          "name": "newAdminRole",
          "type": "bytes32"
        }
      ],
      "name": "RoleAdminChanged",
      "type": "event"
    },
    {
      "anonymous": false,
      "inputs": [
        {
          "indexed": true,
          "internalType": "bytes32",
          "name": "role",
          "type": "bytes32"
        },
        {
          "indexed": true,
          "internalType": "address",
          "name": "account",
          "type": "address"
        },
        {
          "indexed": true,
          "internalType": "address",
          "name": "sender",
          "type": "address"
        }
      ],
      "name": "RoleGranted",
      "type": "event"
    },
    {
      "anonymous": false,
      "inputs": [
        {
          "indexed": true,
          "internalType": "bytes32",
          "name": "role",
          "type": "bytes32"
        },
        {
          "indexed": true,
          "internalType": "address",
          "name": "account",
          "type": "address"
        },
        {
          "indexed": true,
          "internalType": "address",
          "name": "sender",
          "type": "address"
        }
      ],
      "name": "RoleRevoked",
      "type": "event"
    },
    {
      "anonymous": false,
      "inputs": [
        {
          "indexed": false,
          "internalType": "address",
          "name": "account",
          "type": "address"
        }
      ],
      "name": "Unpaused",
      "type": "event"
    },
    {
      "anonymous": false,
      "inputs": [
        {
          "indexed": true,
          "internalType": "address",
          "name": "implementation",
          "type": "address"
        }
      ],
      "name": "Upgraded",
      "type": "event"
    },
    {
      "anonymous": false,
      "inputs": [
        {
          "indexed": true,
          "internalType": "address",
          "name": "user",
          "type": "address"
        },
        {
          "indexed": false,
          "internalType": "uint256",
          "name": "amount",
          "type": "uint256"
        },
        {
          "indexed": false,
          "internalType": "uint256",
          "name": "depositsProcessed",
          "type": "uint256"
        }
      ],
      "name": "VestedReleased",
      "type": "event"
    },
    {
      "anonymous": false,
      "inputs": [
        {
          "indexed": true,
          "internalType": "address",
          "name": "user",
          "type": "address"
        },
        {
          "indexed": false,
          "internalType": "uint256",
          "name": "amount",
          "type": "uint256"
        },
        {
          "indexed": false,
          "internalType": "uint8",
          "name": "vestingType",
          "type": "uint8"
        },
        {
          "indexed": false,
          "internalType": "uint256",
          "name": "depositIndex",
          "type": "uint256"
        }
      ],
      "name": "VestingAdded",
      "type": "event"
    },
    {
      "anonymous": false,
      "inputs": [
        {
          "indexed": true,
          "internalType": "address",
          "name": "oldAddr",
          "type": "address"
        },
        {
          "indexed": true,
          "internalType": "address",
          "name": "newAddr",
          "type": "address"
        }
      ],
      "name": "WithdrawalWalletUpdated",
      "type": "event"
    },
    {
      "inputs": [],
      "name": "DEFAULT_ADMIN_ROLE",
      "outputs": [
        {
          "internalType": "bytes32",
          "name": "",
          "type": "bytes32"
        }
      ],
      "stateMutability": "view",
      "type": "function"
    },
    {
      "inputs": [],
      "name": "EMERGENCY_ROLE",
      "outputs": [
        {
          "internalType": "bytes32",
          "name": "",
          "type": "bytes32"
        }
      ],
      "stateMutability": "view",
      "type": "function"
    },
    {
      "inputs": [],
      "name": "LONG_FREEZE",
      "outputs": [
        {
          "internalType": "uint256",
          "name": "",
          "type": "uint256"
        }
      ],
      "stateMutability": "view",
      "type": "function"
    },
    {
      "inputs": [],
      "name": "LONG_LINEAR",
      "outputs": [
        {
          "internalType": "uint256",
          "name": "",
          "type": "uint256"
        }
      ],
      "stateMutability": "view",
      "type": "function"
    },
    {
      "inputs": [],
      "name": "OPERATOR_ROLE",
      "outputs": [
        {
          "internalType": "bytes32",
          "name": "",
          "type": "bytes32"
        }
      ],
      "stateMutability": "view",
      "type": "function"
    },
    {
      "inputs": [],
      "name": "SHORT_FREEZE",
      "outputs": [
        {
          "internalType": "uint256",
          "name": "",
          "type": "uint256"
        }
      ],
      "stateMutability": "view",
      "type": "function"
    },
    {
      "inputs": [],
      "name": "SHORT_LINEAR",
      "outputs": [
        {
          "internalType": "uint256",
          "name": "",
          "type": "uint256"
        }
      ],
      "stateMutability": "view",
      "type": "function"
    },
    {
      "inputs": [],
      "name": "UPGRADE_INTERFACE_VERSION",
      "outputs": [
        {
          "internalType": "string",
          "name": "",
          "type": "string"
        }
      ],
      "stateMutability": "view",
      "type": "function"
    },
    {
      "inputs": [
        {
          "internalType": "address",
          "name": "user",
          "type": "address"
        },
        {
          "internalType": "uint256",
          "name": "amount",
          "type": "uint256"
        },
        {
          "internalType": "uint8",
          "name": "vestingType",
          "type": "uint8"
        }
      ],
      "name": "addVesting",
      "outputs": [],
      "stateMutability": "nonpayable",
      "type": "function"
    },
    {
      "inputs": [],
      "name": "btnToken",
      "outputs": [
        {
          "internalType": "contract IERC20",
          "name": "",
          "type": "address"
        }
      ],
      "stateMutability": "view",
      "type": "function"
    },
    {
      "inputs": [
        {
          "internalType": "uint256",
          "name": "depositIndex",
          "type": "uint256"
        }
      ],
      "name": "earlyUnlock",
      "outputs": [],
      "stateMutability": "nonpayable",
      "type": "function"
    },
    {
      "inputs": [],
      "name": "earlyUnlockEnabled",
      "outputs": [
        {
          "internalType": "bool",
          "name": "",
          "type": "bool"
        }
      ],
      "stateMutability": "view",
      "type": "function"
    },
    {
      "inputs": [],
      "name": "earlyUnlockPenaltyBps",
      "outputs": [
        {
          "internalType": "uint256",
          "name": "",
          "type": "uint256"
        }
      ],
      "stateMutability": "view",
      "type": "function"
    },
    {
      "inputs": [
        {
          "internalType": "address",
          "name": "user",
          "type": "address"
        },
        {
          "internalType": "uint256",
          "name": "index",
          "type": "uint256"
        }
      ],
      "name": "getDeposit",
      "outputs": [
        {
          "components": [
            {
              "internalType": "uint256",
              "name": "amount",
              "type": "uint256"
            },
            {
              "internalType": "uint256",
              "name": "depositTime",
              "type": "uint256"
            },
            {
              "internalType": "uint8",
              "name": "vestingType",
              "type": "uint8"
            },
            {
              "internalType": "uint256",
              "name": "released",
              "type": "uint256"
            },
            {
              "internalType": "bool",
              "name": "fullyReleased",
              "type": "bool"
            }
          ],
          "internalType": "struct VestingPool.VestingDeposit",
          "name": "",
          "type": "tuple"
        }
      ],
      "stateMutability": "view",
      "type": "function"
    },
    {
      "inputs": [
        {
          "internalType": "address",
          "name": "user",
          "type": "address"
        }
      ],
      "name": "getDepositCount",
      "outputs": [
        {
          "internalType": "uint256",
          "name": "",
          "type": "uint256"
        }
      ],
      "stateMutability": "view",
      "type": "function"
    },
    {
      "inputs": [
        {
          "internalType": "address",
          "name": "user",
          "type": "address"
        }
      ],
      "name": "getPendingRelease",
      "outputs": [
        {
          "internalType": "uint256",
          "name": "",
          "type": "uint256"
        }
      ],
      "stateMutability": "view",
      "type": "function"
    },
    {
      "inputs": [
        {
          "internalType": "bytes32",
          "name": "role",
          "type": "bytes32"
        }
      ],
      "name": "getRoleAdmin",
      "outputs": [
        {
          "internalType": "bytes32",
          "name": "",
          "type": "bytes32"
        }
      ],
      "stateMutability": "view",
      "type": "function"
    },
    {
      "inputs": [
        {
          "internalType": "address",
          "name": "user",
          "type": "address"
        }
      ],
      "name": "getVestedBalance",
      "outputs": [
        {
          "internalType": "uint256",
          "name": "",
          "type": "uint256"
        }
      ],
      "stateMutability": "view",
      "type": "function"
    },
    {
      "inputs": [
        {
          "internalType": "bytes32",
          "name": "role",
          "type": "bytes32"
        },
        {
          "internalType": "address",
          "name": "account",
          "type": "address"
        }
      ],
      "name": "grantRole",
      "outputs": [],
      "stateMutability": "nonpayable",
      "type": "function"
    },
    {
      "inputs": [
        {
          "internalType": "bytes32",
          "name": "role",
          "type": "bytes32"
        },
        {
          "internalType": "address",
          "name": "account",
          "type": "address"
        }
      ],
      "name": "hasRole",
      "outputs": [
        {
          "internalType": "bool",
          "name": "",
          "type": "bool"
        }
      ],
      "stateMutability": "view",
      "type": "function"
    },
    {
      "inputs": [
        {
          "internalType": "address",
          "name": "_btnToken",
          "type": "address"
        },
        {
          "internalType": "address",
          "name": "_withdrawalWallet",
          "type": "address"
        },
        {
          "internalType": "address",
          "name": "_reserveFund",
          "type": "address"
        },
        {
          "internalType": "address",
          "name": "_admin",
          "type": "address"
        }
      ],
      "name": "initialize",
      "outputs": [],
      "stateMutability": "nonpayable",
      "type": "function"
    },
    {
      "inputs": [],
      "name": "pause",
      "outputs": [],
      "stateMutability": "nonpayable",
      "type": "function"
    },
    {
      "inputs": [],
      "name": "paused",
      "outputs": [
        {
          "internalType": "bool",
          "name": "",
          "type": "bool"
        }
      ],
      "stateMutability": "view",
      "type": "function"
    },
    {
      "inputs": [],
      "name": "proxiableUUID",
      "outputs": [
        {
          "internalType": "bytes32",
          "name": "",
          "type": "bytes32"
        }
      ],
      "stateMutability": "view",
      "type": "function"
    },
    {
      "inputs": [
        {
          "internalType": "address",
          "name": "user",
          "type": "address"
        }
      ],
      "name": "release",
      "outputs": [],
      "stateMutability": "nonpayable",
      "type": "function"
    },
    {
      "inputs": [
        {
          "internalType": "bytes32",
          "name": "role",
          "type": "bytes32"
        },
        {
          "internalType": "address",
          "name": "callerConfirmation",
          "type": "address"
        }
      ],
      "name": "renounceRole",
      "outputs": [],
      "stateMutability": "nonpayable",
      "type": "function"
    },
    {
      "inputs": [],
      "name": "reserveFund",
      "outputs": [
        {
          "internalType": "address",
          "name": "",
          "type": "address"
        }
      ],
      "stateMutability": "view",
      "type": "function"
    },
    {
      "inputs": [
        {
          "internalType": "bytes32",
          "name": "role",
          "type": "bytes32"
        },
        {
          "internalType": "address",
          "name": "account",
          "type": "address"
        }
      ],
      "name": "revokeRole",
      "outputs": [],
      "stateMutability": "nonpayable",
      "type": "function"
    },
    {
      "inputs": [
        {
          "internalType": "bool",
          "name": "enabled",
          "type": "bool"
        }
      ],
      "name": "setEarlyUnlockEnabled",
      "outputs": [],
      "stateMutability": "nonpayable",
      "type": "function"
    },
    {
      "inputs": [
        {
          "internalType": "uint256",
          "name": "bps",
          "type": "uint256"
        }
      ],
      "name": "setEarlyUnlockPenaltyBps",
      "outputs": [],
      "stateMutability": "nonpayable",
      "type": "function"
    },
    {
      "inputs": [
        {
          "internalType": "address",
          "name": "_reserveFund",
          "type": "address"
        }
      ],
      "name": "setReserveFund",
      "outputs": [],
      "stateMutability": "nonpayable",
      "type": "function"
    },
    {
      "inputs": [
        {
          "internalType": "address",
          "name": "_withdrawalWallet",
          "type": "address"
        }
      ],
      "name": "setWithdrawalWallet",
      "outputs": [],
      "stateMutability": "nonpayable",
      "type": "function"
    },
    {
      "inputs": [
        {
          "internalType": "bytes4",
          "name": "interfaceId",
          "type": "bytes4"
        }
      ],
      "name": "supportsInterface",
      "outputs": [
        {
          "internalType": "bool",
          "name": "",
          "type": "bool"
        }
      ],
      "stateMutability": "view",
      "type": "function"
    },
    {
      "inputs": [],
      "name": "unpause",
      "outputs": [],
      "stateMutability": "nonpayable",
      "type": "function"
    },
    {
      "inputs": [
        {
          "internalType": "address",
          "name": "newImplementation",
          "type": "address"
        },
        {
          "internalType": "bytes",
          "name": "data",
          "type": "bytes"
        }
      ],
      "name": "upgradeToAndCall",
      "outputs": [],
      "stateMutability": "payable",
      "type": "function"
    },
    {
      "inputs": [],
      "name": "withdrawalWallet",
      "outputs": [
        {
          "internalType": "address",
          "name": "",
          "type": "address"
        }
      ],
      "stateMutability": "view",
      "type": "function"
    }
  ],
  "bytecode": "0x60a06040523073ffffffffffffffffffffffffffffffffffffffff1660809073ffffffffffffffffffffffffffffffffffffffff1681525034801561004357600080fd5b5061005261005760201b60201c565b6101de565b600061006761015b60201b60201c565b90508060000160089054906101000a900460ff16156100b2576040517ff92ee8a900000000000000000000000000000000000000000000000000000000815260040160405180910390fd5b67ffffffffffffffff80168160000160009054906101000a900467ffffffffffffffff1667ffffffffffffffff16146101585767ffffffffffffffff8160000160006101000a81548167ffffffffffffffff021916908367ffffffffffffffff1602179055507fc7f505b2f371ae2175ee4913f4499e1f2633a7b5936321eed1cdaeb6115181d267ffffffffffffffff60405161014f91906101c3565b60405180910390a15b50565b60008061016c61017560201b60201c565b90508091505090565b60007ff0c57e16840df040f15088dc2f81fe391c3923bec73e23a9662efc9c229c6a0060001b905090565b600067ffffffffffffffff82169050919050565b6101bd816101a0565b82525050565b60006020820190506101d860008301846101b4565b92915050565b608051613c226102076000396000818161277a015281816127cf01526129900152613c226000f3fe60806040526004361061020f5760003560e01c80636535ec0611610118578063ad3cb1cc116100a0578063d547741f1161006f578063d547741f14610780578063f498d8a6146107a9578063f5b541a6146107d2578063f8c8765e146107fd578063f989324f146108265761020f565b8063ad3cb1cc146106d4578063ae68ae28146106ff578063b7f92b711461072a578063bbf45c92146107555761020f565b80638456cb59116100e75780638456cb59146105ff5780638ded8a441461061657806391d1485414610641578063995ae7b71461067e578063a217fddf146106a95761020f565b80636535ec0614610533578063664c27711461057057806375796f76146105995780637f58b9d3146105c25761020f565b806336085c511161019b5780634a7d80b31161016a5780634a7d80b31461046d5780634f1ef2861461049857806352d1902d146104b45780635c975abb146104df5780635ded81581461050a5761020f565b806336085c51146103db57806336568abe1461040457806336aec4791461042d5780633f4ba83a146104565761020f565b806320df4359116101e257806320df4359146102e2578063248a9ca31461030d5780632726b5061461034a5780632f2ff15d1461038757806332fdfa79146103b05761020f565b806301ffc9a71461021457806313fcaf5414610251578063170208a11461028e57806319165587146102b9575b600080fd5b34801561022057600080fd5b5061023b600480360381019061023691906130cf565b610851565b6040516102489190613117565b60405180910390f35b34801561025d57600080fd5b5061027860048036038101906102739190613190565b6108cb565b60405161028591906131d6565b60405180910390f35b34801561029a57600080fd5b506102a3610917565b6040516102b091906131d6565b60405180910390f35b3480156102c557600080fd5b506102e060048036038101906102db9190613190565b61091e565b005b3480156102ee57600080fd5b506102f7610d9a565b604051610304919061320a565b60405180910390f35b34801561031957600080fd5b50610334600480360381019061032f9190613251565b610dbe565b604051610341919061320a565b60405180910390f35b34801561035657600080fd5b50610371600480360381019061036c91906132aa565b610dec565b60405161037e919061338c565b60405180910390f35b34801561039357600080fd5b506103ae60048036038101906103a991906133a7565b610f86565b005b3480156103bc57600080fd5b506103c5610fa8565b6040516103d291906131d6565b60405180910390f35b3480156103e757600080fd5b5061040260048036038101906103fd91906133e7565b610faf565b005b34801561041057600080fd5b5061042b600480360381019061042691906133a7565b61148e565b005b34801561043957600080fd5b50610454600480360381019061044f91906133e7565b611509565b005b34801561046257600080fd5b5061046b61159e565b005b34801561047957600080fd5b506104826115b6565b60405161048f9190613423565b60405180910390f35b6104b260048036038101906104ad9190613584565b6115dc565b005b3480156104c057600080fd5b506104c96115fb565b6040516104d6919061320a565b60405180910390f35b3480156104eb57600080fd5b506104f461162e565b6040516105019190613117565b60405180910390f35b34801561051657600080fd5b50610531600480360381019061052c919061360c565b611653565b005b34801561053f57600080fd5b5061055a60048036038101906105559190613190565b6118f2565b60405161056791906131d6565b60405180910390f35b34801561057c57600080fd5b506105976004803603810190610592919061368b565b6119d0565b005b3480156105a557600080fd5b506105c060048036038101906105bb9190613190565b611a32565b005b3480156105ce57600080fd5b506105e960048036038101906105e49190613190565b611b06565b6040516105f691906131d6565b60405180910390f35b34801561060b57600080fd5b50610614611c0f565b005b34801561062257600080fd5b5061062b611c44565b6040516106389190613117565b60405180910390f35b34801561064d57600080fd5b50610668600480360381019061066391906133a7565b611c57565b6040516106759190613117565b60405180910390f35b34801561068a57600080fd5b50610693611cd0565b6040516106a091906131d6565b60405180910390f35b3480156106b557600080fd5b506106be611cd6565b6040516106cb919061320a565b60405180910390f35b3480156106e057600080fd5b506106e9611cdd565b6040516106f69190613737565b60405180910390f35b34801561070b57600080fd5b50610714611d16565b60405161072191906131d6565b60405180910390f35b34801561073657600080fd5b5061073f611d1d565b60405161074c9190613423565b60405180910390f35b34801561076157600080fd5b5061076a611d43565b60405161077791906137b8565b60405180910390f35b34801561078c57600080fd5b506107a760048036038101906107a291906133a7565b611d67565b005b3480156107b557600080fd5b506107d060048036038101906107cb9190613190565b611d89565b005b3480156107de57600080fd5b506107e7611e5d565b6040516107f4919061320a565b60405180910390f35b34801561080957600080fd5b50610824600480360381019061081f91906137d3565b611e81565b005b34801561083257600080fd5b5061083b612240565b60405161084891906131d6565b60405180910390f35b60007f7965db0b000000000000000000000000000000000000000000000000000000007bffffffffffffffffffffffffffffffffffffffffffffffffffffffff1916827bffffffffffffffffffffffffffffffffffffffffffffffffffffffff191614806108c457506108c382612247565b5b9050919050565b6000600360008373ffffffffffffffffffffffffffffffffffffffff1673ffffffffffffffffffffffffffffffffffffffff168152602001908152602001600020805490509050919050565b624f1a0081565b6109266122b1565b61092e612308565b8073ffffffffffffffffffffffffffffffffffffffff163373ffffffffffffffffffffffffffffffffffffffff1614158015610991575061098f7f97667070c54ef182b0f5858b034beac1b6f3089aa2d3188bb1e8929f4fa9b92933611c57565b155b156109c8576040517fe22a1c4800000000000000000000000000000000000000000000000000000000815260040160405180910390fd5b600073ffffffffffffffffffffffffffffffffffffffff16600160009054906101000a900473ffffffffffffffffffffffffffffffffffffffff1673ffffffffffffffffffffffffffffffffffffffff1603610a50576040517f08a46ecc00000000000000000000000000000000000000000000000000000000815260040160405180910390fd5b6000806000600360008573ffffffffffffffffffffffffffffffffffffffff1673ffffffffffffffffffffffffffffffffffffffff168152602001908152602001600020905060005b8180549050811015610c0557818181548110610ab857610ab761383a565b5b906000526020600020906005020160040160009054906101000a900460ff16610bf8576000610b06838381548110610af357610af261383a565b5b9060005260206000209060050201612349565b90506000811115610bf65780838381548110610b2557610b2461383a565b5b90600052602060002090600502016003016000828254610b459190613898565b925050819055508085610b589190613898565b94508380610b65906138cc565b945050828281548110610b7b57610b7a61383a565b5b906000526020600020906005020160000154838381548110610ba057610b9f61383a565b5b90600052602060002090600502016003015410610bf5576001838381548110610bcc57610bcb61383a565b5b906000526020600020906005020160040160006101000a81548160ff0219169083151502179055505b5b505b8080600101915050610a99565b5060008303610c40576040517fb10205ed00000000000000000000000000000000000000000000000000000000815260040160405180910390fd5b610cad600160009054906101000a900473ffffffffffffffffffffffffffffffffffffffff168460008054906101000a900473ffffffffffffffffffffffffffffffffffffffff1673ffffffffffffffffffffffffffffffffffffffff166124279092919063ffffffff16565b600160009054906101000a900473ffffffffffffffffffffffffffffffffffffffff1673ffffffffffffffffffffffffffffffffffffffff16638d780bf585856040518363ffffffff1660e01b8152600401610d0a929190613914565b600060405180830381600087803b158015610d2457600080fd5b505af1158015610d38573d6000803e3d6000fd5b505050508373ffffffffffffffffffffffffffffffffffffffff167f35dea35c2550d6ed2d1110a1cd42dcd963b22cf983f3531719c85d818b12340e8484604051610d8492919061393d565b60405180910390a2505050610d976124a6565b50565b7fbf233dd2aafeb4d50879c4aa5c81e96d92f6e6945c906a58f9f2d1c1631b4b2681565b600080610dc96124bf565b905080600001600084815260200190815260200160002060010154915050919050565b610df461302f565b600360008473ffffffffffffffffffffffffffffffffffffffff1673ffffffffffffffffffffffffffffffffffffffff168152602001908152602001600020805490508210610ebe5781600360008573ffffffffffffffffffffffffffffffffffffffff1673ffffffffffffffffffffffffffffffffffffffff168152602001908152602001600020805490506040517fe7dc9758000000000000000000000000000000000000000000000000000000008152600401610eb592919061393d565b60405180910390fd5b600360008473ffffffffffffffffffffffffffffffffffffffff1673ffffffffffffffffffffffffffffffffffffffff1681526020019081526020016000208281548110610f0f57610f0e61383a565b5b90600052602060002090600502016040518060a001604052908160008201548152602001600182015481526020016002820160009054906101000a900460ff1660ff1660ff168152602001600382015481526020016004820160009054906101000a900460ff161515151581525050905092915050565b610f8f82610dbe565b610f98816124e7565b610fa283836124fb565b50505050565b62ed4e0081565b610fb76122b1565b610fbf612308565b600460009054906101000a900460ff16611005576040517f0229e12400000000000000000000000000000000000000000000000000000000815260040160405180910390fd5b6000600360003373ffffffffffffffffffffffffffffffffffffffff1673ffffffffffffffffffffffffffffffffffffffff168152602001908152602001600020905080805490508210611096578181805490506040517fe7dc975800000000000000000000000000000000000000000000000000000000815260040161108d92919061393d565b60405180910390fd5b60008183815481106110ab576110aa61383a565b5b906000526020600020906005020190508060040160009054906101000a900460ff1615611104576040517fcf22430900000000000000000000000000000000000000000000000000000000815260040160405180910390fd5b600073ffffffffffffffffffffffffffffffffffffffff16600160009054906101000a900473ffffffffffffffffffffffffffffffffffffffff1673ffffffffffffffffffffffffffffffffffffffff160361118c576040517f08a46ecc00000000000000000000000000000000000000000000000000000000815260040160405180910390fd5b600073ffffffffffffffffffffffffffffffffffffffff16600260009054906101000a900473ffffffffffffffffffffffffffffffffffffffff1673ffffffffffffffffffffffffffffffffffffffff1603611214576040517fd8c6a71200000000000000000000000000000000000000000000000000000000815260040160405180910390fd5b600061121f82612349565b9050600081836003015484600001546112389190613966565b6112429190613966565b9050600061271060055483611257919061399a565b6112619190613a0b565b9050600081836112719190613966565b9050600081856112819190613898565b90508560000154866003018190555060018660040160006101000a81548160ff021916908315150217905550600083111561132457611323600260009054906101000a900473ffffffffffffffffffffffffffffffffffffffff168460008054906101000a900473ffffffffffffffffffffffffffffffffffffffff1673ffffffffffffffffffffffffffffffffffffffff166124279092919063ffffffff16565b5b600081111561142a5761139a600160009054906101000a900473ffffffffffffffffffffffffffffffffffffffff168260008054906101000a900473ffffffffffffffffffffffffffffffffffffffff1673ffffffffffffffffffffffffffffffffffffffff166124279092919063ffffffff16565b600160009054906101000a900473ffffffffffffffffffffffffffffffffffffffff1673ffffffffffffffffffffffffffffffffffffffff16638d780bf533836040518363ffffffff1660e01b81526004016113f7929190613914565b600060405180830381600087803b15801561141157600080fd5b505af1158015611425573d6000803e3d6000fd5b505050505b3373ffffffffffffffffffffffffffffffffffffffff167f6c542a1e9735ac902c5166d7d2c26d4b25644dc1b4a2330757d5208cc741283682858b60405161147493929190613a3c565b60405180910390a25050505050505061148b6124a6565b50565b6114966125fc565b73ffffffffffffffffffffffffffffffffffffffff168173ffffffffffffffffffffffffffffffffffffffff16146114fa576040517f6697b23200000000000000000000000000000000000000000000000000000000815260040160405180910390fd5b6115048282612604565b505050565b6000801b611516816124e7565b611388821115611552576040517f1f3b85d300000000000000000000000000000000000000000000000000000000815260040160405180910390fd5b60006005549050826005819055507fe421b2f3988de2f8047abdf530044ef800b66d1b4b5c7ee2217a317a18d93b08818460405161159192919061393d565b60405180910390a1505050565b6000801b6115ab816124e7565b6115b3612706565b50565b600160009054906101000a900473ffffffffffffffffffffffffffffffffffffffff1681565b6115e4612778565b6115ed8261285e565b6115f7828261286f565b5050565b600061160561298e565b7f360894a13ba1a3210667c828492db98dca3e2076cc3735a920a3ca505d382bbc60001b905090565b600080611639612a15565b90508060000160009054906101000a900460ff1691505090565b7f97667070c54ef182b0f5858b034beac1b6f3089aa2d3188bb1e8929f4fa9b92961167d816124e7565b600073ffffffffffffffffffffffffffffffffffffffff168473ffffffffffffffffffffffffffffffffffffffff16036116e3576040517fd92e233d00000000000000000000000000000000000000000000000000000000815260040160405180910390fd5b6000830361171d576040517f1f2a200500000000000000000000000000000000000000000000000000000000815260040160405180910390fd5b60018260ff16111561175b576040517ff7b19ede00000000000000000000000000000000000000000000000000000000815260040160405180910390fd5b6000600360008673ffffffffffffffffffffffffffffffffffffffff1673ffffffffffffffffffffffffffffffffffffffff168152602001908152602001600020805490509050600360008673ffffffffffffffffffffffffffffffffffffffff1673ffffffffffffffffffffffffffffffffffffffff1681526020019081526020016000206040518060a001604052808681526020014281526020018560ff16815260200160008152602001600015158152509080600181540180825580915050600190039060005260206000209060050201600090919091909150600082015181600001556020820151816001015560408201518160020160006101000a81548160ff021916908360ff1602179055506060820151816003015560808201518160040160006101000a81548160ff02191690831515021790555050508473ffffffffffffffffffffffffffffffffffffffff167fec0746a0f07f756b2b8d3e84867c293aa753fa995e86c4f638e1846473e4d8a58585846040516118e393929190613a82565b60405180910390a25050505050565b600080600090506000600360008573ffffffffffffffffffffffffffffffffffffffff1673ffffffffffffffffffffffffffffffffffffffff168152602001908152602001600020905060005b81805490508110156119c55781818154811061195e5761195d61383a565b5b906000526020600020906005020160040160009054906101000a900460ff166119b8576119aa8282815481106119975761199661383a565b5b9060005260206000209060050201612349565b836119b59190613898565b92505b808060010191505061193f565b508192505050919050565b6000801b6119dd816124e7565b81600460006101000a81548160ff0219169083151502179055507f76d68e18eafc939f312bb4aa07d836f13d5a1bc8f770876cd51899be2998362882604051611a269190613117565b60405180910390a15050565b6000801b611a3f816124e7565b6000600160009054906101000a900473ffffffffffffffffffffffffffffffffffffffff16905082600160006101000a81548173ffffffffffffffffffffffffffffffffffffffff021916908373ffffffffffffffffffffffffffffffffffffffff1602179055508273ffffffffffffffffffffffffffffffffffffffff168173ffffffffffffffffffffffffffffffffffffffff167f4a19ec3f0b447f69733fc71ae5de1a2747f99590b576d59f94cf1141d920bcb360405160405180910390a3505050565b600080600090506000600360008573ffffffffffffffffffffffffffffffffffffffff1673ffffffffffffffffffffffffffffffffffffffff168152602001908152602001600020905060005b8180549050811015611c0457818181548110611b7257611b7161383a565b5b906000526020600020906005020160040160009054906101000a900460ff16611bf757818181548110611ba857611ba761383a565b5b906000526020600020906005020160030154828281548110611bcd57611bcc61383a565b5b906000526020600020906005020160000154611be99190613966565b83611bf49190613898565b92505b8080600101915050611b53565b508192505050919050565b7fbf233dd2aafeb4d50879c4aa5c81e96d92f6e6945c906a58f9f2d1c1631b4b26611c39816124e7565b611c41612a3d565b50565b600460009054906101000a900460ff1681565b600080611c626124bf565b905080600001600085815260200190815260200160002060000160008473ffffffffffffffffffffffffffffffffffffffff1673ffffffffffffffffffffffffffffffffffffffff16815260200190815260200160002060009054906101000a900460ff1691505092915050565b60055481565b6000801b81565b6040518060400160405280600581526020017f352e302e3000000000000000000000000000000000000000000000000000000081525081565b62ed4e0081565b600260009054906101000a900473ffffffffffffffffffffffffffffffffffffffff1681565b60008054906101000a900473ffffffffffffffffffffffffffffffffffffffff1681565b611d7082610dbe565b611d79816124e7565b611d838383612604565b50505050565b6000801b611d96816124e7565b6000600260009054906101000a900473ffffffffffffffffffffffffffffffffffffffff16905082600260006101000a81548173ffffffffffffffffffffffffffffffffffffffff021916908373ffffffffffffffffffffffffffffffffffffffff1602179055508273ffffffffffffffffffffffffffffffffffffffff168173ffffffffffffffffffffffffffffffffffffffff167faaacfd13fec096e700804ded812af382b8c10ef526ebefcefa79f78f70dc476760405160405180910390a3505050565b7f97667070c54ef182b0f5858b034beac1b6f3089aa2d3188bb1e8929f4fa9b92981565b6000611e8b612aaf565b905060008160000160089054906101000a900460ff1615905060008260000160009054906101000a900467ffffffffffffffff1690506000808267ffffffffffffffff16148015611ed95750825b9050600060018367ffffffffffffffff16148015611f0e575060003073ffffffffffffffffffffffffffffffffffffffff163b145b905081158015611f1c575080155b15611f53576040517ff92ee8a900000000000000000000000000000000000000000000000000000000815260040160405180910390fd5b60018560000160006101000a81548167ffffffffffffffff021916908367ffffffffffffffff1602179055508315611fa35760018560000160086101000a81548160ff0219169083151502179055505b600073ffffffffffffffffffffffffffffffffffffffff168973ffffffffffffffffffffffffffffffffffffffff1603612009576040517fd92e233d00000000000000000000000000000000000000000000000000000000815260040160405180910390fd5b600073ffffffffffffffffffffffffffffffffffffffff168673ffffffffffffffffffffffffffffffffffffffff160361206f576040517fd92e233d00000000000000000000000000000000000000000000000000000000815260040160405180910390fd5b612077612ac3565b61207f612acd565b612087612ad7565b61208f612ae9565b61209c6000801b876124fb565b506120c77f97667070c54ef182b0f5858b034beac1b6f3089aa2d3188bb1e8929f4fa9b929876124fb565b506120f27fbf233dd2aafeb4d50879c4aa5c81e96d92f6e6945c906a58f9f2d1c1631b4b26876124fb565b50886000806101000a81548173ffffffffffffffffffffffffffffffffffffffff021916908373ffffffffffffffffffffffffffffffffffffffff16021790555087600160006101000a81548173ffffffffffffffffffffffffffffffffffffffff021916908373ffffffffffffffffffffffffffffffffffffffff16021790555086600260006101000a81548173ffffffffffffffffffffffffffffffffffffffff021916908373ffffffffffffffffffffffffffffffffffffffff1602179055506000600460006101000a81548160ff021916908315150217905550610bb860058190555083156122355760008560000160086101000a81548160ff0219169083151502179055507fc7f505b2f371ae2175ee4913f4499e1f2633a7b5936321eed1cdaeb6115181d2600160405161222c9190613b08565b60405180910390a15b505050505050505050565b62278d0081565b60007f01ffc9a7000000000000000000000000000000000000000000000000000000007bffffffffffffffffffffffffffffffffffffffffffffffffffffffff1916827bffffffffffffffffffffffffffffffffffffffffffffffffffffffff1916149050919050565b60006122bb612af3565b905060028160000154036122fb576040517f3ee5aeb500000000000000000000000000000000000000000000000000000000815260040160405180910390fd5b6002816000018190555050565b61231061162e565b15612347576040517fd93c066500000000000000000000000000000000000000000000000000000000815260040160405180910390fd5b565b60008082600101544261235c9190613966565b905060008060008560020160009054906101000a900460ff1660ff160361238e5762278d009150624f1a00905061239b565b62ed4e00915062ed4e0090505b8183116123ae5760009350505050612422565b600082846123bc9190613966565b905060008282106123d357866000015490506123f1565b828288600001546123e4919061399a565b6123ee9190613a0b565b90505b8660030154811161240a57600095505050505050612422565b86600301548161241a9190613966565b955050505050505b919050565b6124a1838473ffffffffffffffffffffffffffffffffffffffff1663a9059cbb858560405160240161245a929190613914565b604051602081830303815290604052915060e01b6020820180517bffffffffffffffffffffffffffffffffffffffffffffffffffffffff8381831617835250505050612b1b565b505050565b60006124b0612af3565b90506001816000018190555050565b60007f02dd7bc7dec4dceedda775e58dd541e08a116c6c53815c0bd028192f7b626800905090565b6124f8816124f36125fc565b612bbd565b50565b6000806125066124bf565b90506125128484611c57565b6125f057600181600001600086815260200190815260200160002060000160008573ffffffffffffffffffffffffffffffffffffffff1673ffffffffffffffffffffffffffffffffffffffff16815260200190815260200160002060006101000a81548160ff02191690831515021790555061258c6125fc565b73ffffffffffffffffffffffffffffffffffffffff168373ffffffffffffffffffffffffffffffffffffffff16857f2f8788117e7eff1d82e926ec794901d17c78024a50270940304540a733656f0d60405160405180910390a460019150506125f6565b60009150505b92915050565b600033905090565b60008061260f6124bf565b905061261b8484611c57565b156126fa57600081600001600086815260200190815260200160002060000160008573ffffffffffffffffffffffffffffffffffffffff1673ffffffffffffffffffffffffffffffffffffffff16815260200190815260200160002060006101000a81548160ff0219169083151502179055506126966125fc565b73ffffffffffffffffffffffffffffffffffffffff168373ffffffffffffffffffffffffffffffffffffffff16857ff6391f5c32d9c69d2a47ea670b442974b53935d1edc7fd64eb21e047a839171b60405160405180910390a46001915050612700565b60009150505b92915050565b61270e612c0e565b6000612718612a15565b905060008160000160006101000a81548160ff0219169083151502179055507f5db9ee0a495bf2e6ff9c91a7834c1ba4fdd244a5e8aa4e537bd38aeae4b073aa6127606125fc565b60405161276d9190613423565b60405180910390a150565b7f000000000000000000000000000000000000000000000000000000000000000073ffffffffffffffffffffffffffffffffffffffff163073ffffffffffffffffffffffffffffffffffffffff16148061282557507f000000000000000000000000000000000000000000000000000000000000000073ffffffffffffffffffffffffffffffffffffffff1661280c612c4e565b73ffffffffffffffffffffffffffffffffffffffff1614155b1561285c576040517fe07c8dba00000000000000000000000000000000000000000000000000000000815260040160405180910390fd5b565b6000801b61286b816124e7565b5050565b8173ffffffffffffffffffffffffffffffffffffffff166352d1902d6040518163ffffffff1660e01b8152600401602060405180830381865afa9250505080156128d757506040513d601f19601f820116820180604052508101906128d49190613b38565b60015b61291857816040517f4c9c8ce300000000000000000000000000000000000000000000000000000000815260040161290f9190613423565b60405180910390fd5b7f360894a13ba1a3210667c828492db98dca3e2076cc3735a920a3ca505d382bbc60001b811461297f57806040517faa1d49a4000000000000000000000000000000000000000000000000000000008152600401612976919061320a565b60405180910390fd5b6129898383612ca5565b505050565b7f000000000000000000000000000000000000000000000000000000000000000073ffffffffffffffffffffffffffffffffffffffff163073ffffffffffffffffffffffffffffffffffffffff1614612a13576040517fe07c8dba00000000000000000000000000000000000000000000000000000000815260040160405180910390fd5b565b60007fcd5ed15c6e187e77e9aee88184c21f4f2182ab5827cb3b7e07fbedcd63f03300905090565b612a45612308565b6000612a4f612a15565b905060018160000160006101000a81548160ff0219169083151502179055507f62e78cea01bee320cd4e420270b5ea74000d11b0c9f74754ebdbfc544b05a258612a976125fc565b604051612aa49190613423565b60405180910390a150565b600080612aba612d18565b90508091505090565b612acb612d43565b565b612ad5612d43565b565b612adf612d43565b612ae7612d83565b565b612af1612d43565b565b60007f9b779b17422d0df92223018b32b4d1fa46e071723d6817e2486d003becc55f00905090565b600080602060008451602086016000885af180612b3e576040513d6000823e3d81fd5b3d925060005191505060008214612b59576001811415612b75565b60008473ffffffffffffffffffffffffffffffffffffffff163b145b15612bb757836040517f5274afe7000000000000000000000000000000000000000000000000000000008152600401612bae9190613423565b60405180910390fd5b50505050565b612bc78282611c57565b612c0a5780826040517fe2517d3f000000000000000000000000000000000000000000000000000000008152600401612c01929190613b65565b60405180910390fd5b5050565b612c1661162e565b612c4c576040517f8dfc202b00000000000000000000000000000000000000000000000000000000815260040160405180910390fd5b565b6000612c7c7f360894a13ba1a3210667c828492db98dca3e2076cc3735a920a3ca505d382bbc60001b612da4565b60000160009054906101000a900473ffffffffffffffffffffffffffffffffffffffff16905090565b612cae82612dae565b8173ffffffffffffffffffffffffffffffffffffffff167fbc7cd75a20ee27fd9adebab32041f755214dbc6bffa90cc0225b39da2e5c2d3b60405160405180910390a2600081511115612d0b57612d058282612e7b565b50612d14565b612d13612eff565b5b5050565b60007ff0c57e16840df040f15088dc2f81fe391c3923bec73e23a9662efc9c229c6a0060001b905090565b612d4b612f3c565b612d81576040517fd7e6bcf800000000000000000000000000000000000000000000000000000000815260040160405180910390fd5b565b612d8b612d43565b6000612d95612af3565b90506001816000018190555050565b6000819050919050565b60008173ffffffffffffffffffffffffffffffffffffffff163b03612e0a57806040517f4c9c8ce3000000000000000000000000000000000000000000000000000000008152600401612e019190613423565b60405180910390fd5b80612e377f360894a13ba1a3210667c828492db98dca3e2076cc3735a920a3ca505d382bbc60001b612da4565b60000160006101000a81548173ffffffffffffffffffffffffffffffffffffffff021916908373ffffffffffffffffffffffffffffffffffffffff16021790555050565b60606000808473ffffffffffffffffffffffffffffffffffffffff1684604051612ea59190613bd5565b600060405180830381855af49150503d8060008114612ee0576040519150601f19603f3d011682016040523d82523d6000602084013e612ee5565b606091505b5091509150612ef5858383612f5c565b9250505092915050565b6000341115612f3a576040517fb398979f00000000000000000000000000000000000000000000000000000000815260040160405180910390fd5b565b6000612f46612aaf565b60000160089054906101000a900460ff16905090565b606082612f7157612f6c82612feb565b612fe3565b60008251148015612f99575060008473ffffffffffffffffffffffffffffffffffffffff163b145b15612fdb57836040517f9996b315000000000000000000000000000000000000000000000000000000008152600401612fd29190613423565b60405180910390fd5b819050612fe4565b5b9392505050565b600081511115612ffd57805160208201fd5b6040517fd6bda27500000000000000000000000000000000000000000000000000000000815260040160405180910390fd5b6040518060a001604052806000815260200160008152602001600060ff168152602001600081526020016000151581525090565b6000604051905090565b600080fd5b600080fd5b60007fffffffff0000000000000000000000000000000000000000000000000000000082169050919050565b6130ac81613077565b81146130b757600080fd5b50565b6000813590506130c9816130a3565b92915050565b6000602082840312156130e5576130e461306d565b5b60006130f3848285016130ba565b91505092915050565b60008115159050919050565b613111816130fc565b82525050565b600060208201905061312c6000830184613108565b92915050565b600073ffffffffffffffffffffffffffffffffffffffff82169050919050565b600061315d82613132565b9050919050565b61316d81613152565b811461317857600080fd5b50565b60008135905061318a81613164565b92915050565b6000602082840312156131a6576131a561306d565b5b60006131b48482850161317b565b91505092915050565b6000819050919050565b6131d0816131bd565b82525050565b60006020820190506131eb60008301846131c7565b92915050565b6000819050919050565b613204816131f1565b82525050565b600060208201905061321f60008301846131fb565b92915050565b61322e816131f1565b811461323957600080fd5b50565b60008135905061324b81613225565b92915050565b6000602082840312156132675761326661306d565b5b60006132758482850161323c565b91505092915050565b613287816131bd565b811461329257600080fd5b50565b6000813590506132a48161327e565b92915050565b600080604083850312156132c1576132c061306d565b5b60006132cf8582860161317b565b92505060206132e085828601613295565b9150509250929050565b6132f3816131bd565b82525050565b600060ff82169050919050565b61330f816132f9565b82525050565b61331e816130fc565b82525050565b60a08201600082015161333a60008501826132ea565b50602082015161334d60208501826132ea565b5060408201516133606040850182613306565b50606082015161337360608501826132ea565b5060808201516133866080850182613315565b50505050565b600060a0820190506133a16000830184613324565b92915050565b600080604083850312156133be576133bd61306d565b5b60006133cc8582860161323c565b92505060206133dd8582860161317b565b9150509250929050565b6000602082840312156133fd576133fc61306d565b5b600061340b84828501613295565b91505092915050565b61341d81613152565b82525050565b60006020820190506134386000830184613414565b92915050565b600080fd5b600080fd5b6000601f19601f8301169050919050565b7f4e487b7100000000000000000000000000000000000000000000000000000000600052604160045260246000fd5b61349182613448565b810181811067ffffffffffffffff821117156134b0576134af613459565b5b80604052505050565b60006134c3613063565b90506134cf8282613488565b919050565b600067ffffffffffffffff8211156134ef576134ee613459565b5b6134f882613448565b9050602081019050919050565b82818337600083830152505050565b6000613527613522846134d4565b6134b9565b90508281526020810184848401111561354357613542613443565b5b61354e848285613505565b509392505050565b600082601f83011261356b5761356a61343e565b5b813561357b848260208601613514565b91505092915050565b6000806040838503121561359b5761359a61306d565b5b60006135a98582860161317b565b925050602083013567ffffffffffffffff8111156135ca576135c9613072565b5b6135d685828601613556565b9150509250929050565b6135e9816132f9565b81146135f457600080fd5b50565b600081359050613606816135e0565b92915050565b6000806000606084860312156136255761362461306d565b5b60006136338682870161317b565b935050602061364486828701613295565b9250506040613655868287016135f7565b9150509250925092565b613668816130fc565b811461367357600080fd5b50565b6000813590506136858161365f565b92915050565b6000602082840312156136a1576136a061306d565b5b60006136af84828501613676565b91505092915050565b600081519050919050565b600082825260208201905092915050565b60005b838110156136f25780820151818401526020810190506136d7565b60008484015250505050565b6000613709826136b8565b61371381856136c3565b93506137238185602086016136d4565b61372c81613448565b840191505092915050565b6000602082019050818103600083015261375181846136fe565b905092915050565b6000819050919050565b600061377e61377961377484613132565b613759565b613132565b9050919050565b600061379082613763565b9050919050565b60006137a282613785565b9050919050565b6137b281613797565b82525050565b60006020820190506137cd60008301846137a9565b92915050565b600080600080608085870312156137ed576137ec61306d565b5b60006137fb8782880161317b565b945050602061380c8782880161317b565b935050604061381d8782880161317b565b925050606061382e8782880161317b565b91505092959194509250565b7f4e487b7100000000000000000000000000000000000000000000000000000000600052603260045260246000fd5b7f4e487b7100000000000000000000000000000000000000000000000000000000600052601160045260246000fd5b60006138a3826131bd565b91506138ae836131bd565b92508282019050808211156138c6576138c5613869565b5b92915050565b60006138d7826131bd565b91507fffffffffffffffffffffffffffffffffffffffffffffffffffffffffffffffff820361390957613908613869565b5b600182019050919050565b60006040820190506139296000830185613414565b61393660208301846131c7565b9392505050565b600060408201905061395260008301856131c7565b61395f60208301846131c7565b9392505050565b6000613971826131bd565b915061397c836131bd565b925082820390508181111561399457613993613869565b5b92915050565b60006139a5826131bd565b91506139b0836131bd565b92508282026139be816131bd565b915082820484148315176139d5576139d4613869565b5b5092915050565b7f4e487b7100000000000000000000000000000000000000000000000000000000600052601260045260246000fd5b6000613a16826131bd565b9150613a21836131bd565b925082613a3157613a306139dc565b5b828204905092915050565b6000606082019050613a5160008301866131c7565b613a5e60208301856131c7565b613a6b60408301846131c7565b949350505050565b613a7c816132f9565b82525050565b6000606082019050613a9760008301866131c7565b613aa46020830185613a73565b613ab160408301846131c7565b949350505050565b6000819050919050565b600067ffffffffffffffff82169050919050565b6000613af2613aed613ae884613ab9565b613759565b613ac3565b9050919050565b613b0281613ad7565b82525050565b6000602082019050613b1d6000830184613af9565b92915050565b600081519050613b3281613225565b92915050565b600060208284031215613b4e57613b4d61306d565b5b6000613b5c84828501613b23565b91505092915050565b6000604082019050613b7a6000830185613414565b613b8760208301846131fb565b9392505050565b600081519050919050565b600081905092915050565b6000613baf82613b8e565b613bb98185613b99565b9350613bc98185602086016136d4565b80840191505092915050565b6000613be18284613ba4565b91508190509291505056fea26469706673582212201b3ce37a65fb5ba83c6fddd41c17d2b6a07ee4e6aad4fcde4718b4d5272b0a8e64736f6c634300081b0033",
  "linkReferences": {},
  "deployedLinkReferences": {}
}