{
  "_format": "hh-sol-artifact-1",
  "contractName": "WithdrawalWallet",
  "sourceName": "contracts/WithdrawalWallet.sol",
  "abi": [
    {
      "inputs": [],
      "stateMutability": "nonpayable",
      "type": "constructor"
    },
    {
      "inputs": [],
      "name": "AccessControlBadConfirmation",
      "type": "error"
    },
    {
      "inputs": [
        {
          "internalType": "address",
          "name": "account",
          "type": "address"
        },
        {
          "internalType": "bytes32",
          "name": "neededRole",
          "type": "bytes32"
        }
      ],
      "name": "AccessControlUnauthorizedAccount",
      "type": "error"
    },
    {
      "inputs": [
        {
          "internalType": "address",
          "name": "target",
          "type": "address"
        }
      ],
      "name": "AddressEmptyCode",
      "type": "error"
    },
    {
      "inputs": [
        {
          "internalType": "address",
          "name": "implementation",
          "type": "address"
        }
      ],
      "name": "ERC1967InvalidImplementation",
      "type": "error"
    },
    {
      "inputs": [],
      "name": "ERC1967NonPayable",
      "type": "error"
    },
    {
      "inputs": [],
      "name": "EnforcedPause",
      "type": "error"
    },
    {
      "inputs": [],
      "name": "ExpectedPause",
      "type": "error"
    },
    {
      "inputs": [],
      "name": "FailedCall",
      "type": "error"
    },
    {
      "inputs": [
        {
          "internalType": "uint256",
          "name": "requested",
          "type": "uint256"
        },
        {
          "internalType": "uint256",
          "name": "available",
          "type": "uint256"
        }
      ],
      "name": "InsufficientBalance",
      "type": "error"
    },
    {
      "inputs": [
        {
          "internalType": "uint256",
          "name": "required",
          "type": "uint256"
        },
        {
          "internalType": "uint256",
          "name": "available",
          "type": "uint256"
        }
      ],
      "name": "InsufficientUSDCReserve",
      "type": "error"
    },
    {
      "inputs": [],
      "name": "InvalidInitialization",
      "type": "error"
    },
    {
      "inputs": [],
      "name": "InvalidPrice",
      "type": "error"
    },
    {
      "inputs": [],
      "name": "NotInitializing",
      "type": "error"
    },
    {
      "inputs": [],
      "name": "ReentrancyGuardReentrantCall",
      "type": "error"
    },
    {
      "inputs": [
        {
          "internalType": "address",
          "name": "token",
          "type": "address"
        }
      ],
      "name": "SafeERC20FailedOperation",
      "type": "error"
    },
    {
      "inputs": [],
      "name": "UUPSUnauthorizedCallContext",
      "type": "error"
    },
    {
      "inputs": [
        {
          "internalType": "bytes32",
          "name": "slot",
          "type": "bytes32"
        }
      ],
      "name": "UUPSUnsupportedProxiableUUID",
      "type": "error"
    },
    {
      "inputs": [
        {
          "internalType": "uint256",
          "name": "requested",
          "type": "uint256"
        },
        {
          "internalType": "uint256",
          "name": "remainingCap",
          "type": "uint256"
        }
      ],
      "name": "WeeklyCapExceeded",
      "type": "error"
    },
    {
      "inputs": [],
      "name": "ZeroAddress",
      "type": "error"
    },
    {
      "inputs": [],
      "name": "ZeroAmount",
      "type": "error"
    },
    {
      "anonymous": false,
      "inputs": [
        {
          "indexed": false,
          "internalType": "uint256",
          "name": "oldPrice",
          "type": "uint256"
        },
        {
          "indexed": false,
          "internalType": "uint256",
          "name": "newPrice",
          "type": "uint256"
        }
      ],
      "name": "BtnPriceUpdated",
      "type": "event"
    },
    {
      "anonymous": false,
      "inputs": [
        {
          "indexed": false,
          "internalType": "uint64",
          "name": "version",
          "type": "uint64"
        }
      ],
      "name": "Initialized",
      "type": "event"
    },
    {
      "anonymous": false,
      "inputs": [
        {
          "indexed": false,
          "internalType": "address",
          "name": "account",
          "type": "address"
        }
      ],
      "name": "Paused",
      "type": "event"
    },
    {
      "anonymous": false,
      "inputs": [
        {
          "indexed": true,
          "internalType": "bytes32",
          "name": "role",
          "type": "bytes32"
        },
        {
          "indexed": true,
          "internalType": "bytes32",
          "name": "previousAdminRole",
          "type": "bytes32"
        },
        {
          "indexed": true,
          "internalType": "bytes32",
          "name": "newAdminRole",
          "type": "bytes32"
        }
      ],
      "name": "RoleAdminChanged",
      "type": "event"
    },
    {
      "anonymous": false,
      "inputs": [
        {
          "indexed": true,
          "internalType": "bytes32",
          "name": "role",
          "type": "bytes32"
        },
        {
          "indexed": true,
          "internalType": "address",
          "name": "account",
          "type": "address"
        },
        {
          "indexed": true,
          "internalType": "address",
          "name": "sender",
          "type": "address"
        }
      ],
      "name": "RoleGranted",
      "type": "event"
    },
    {
      "anonymous": false,
      "inputs": [
        {
          "indexed": true,
          "internalType": "bytes32",
          "name": "role",
          "type": "bytes32"
        },
        {
          "indexed": true,
          "internalType": "address",
          "name": "account",
          "type": "address"
        },
        {
          "indexed": true,
          "internalType": "address",
          "name": "sender",
          "type": "address"
        }
      ],
      "name": "RoleRevoked",
      "type": "event"
    },
    {
      "anonymous": false,
      "inputs": [
        {
          "indexed": true,
          "internalType": "address",
          "name": "funder",
          "type": "address"
        },
        {
          "indexed": false,
          "internalType": "uint256",
          "name": "amount",
          "type": "uint256"
        }
      ],
      "name": "USDCFunded",
      "type": "event"
    },
    {
      "anonymous": false,
      "inputs": [
        {
          "indexed": false,
          "internalType": "address",
          "name": "account",
          "type": "address"
        }
      ],
      "name": "Unpaused",
      "type": "event"
    },
    {
      "anonymous": false,
      "inputs": [
        {
          "indexed": true,
          "internalType": "address",
          "name": "implementation",
          "type": "address"
        }
      ],
      "name": "Upgraded",
      "type": "event"
    },
    {
      "anonymous": false,
      "inputs": [
        {
          "indexed": false,
          "internalType": "uint256",
          "name": "oldCap",
          "type": "uint256"
        },
        {
          "indexed": false,
          "internalType": "uint256",
          "name": "newCap",
          "type": "uint256"
        }
      ],
      "name": "WeeklyWithdrawalCapUpdated",
      "type": "event"
    },
    {
      "anonymous": false,
      "inputs": [
        {
          "indexed": true,
          "internalType": "address",
          "name": "user",
          "type": "address"
        },
        {
          "indexed": false,
          "internalType": "uint256",
          "name": "amount",
          "type": "uint256"
        }
      ],
      "name": "WithdrawableAdded",
      "type": "event"
    },
    {
      "anonymous": false,
      "inputs": [
        {
          "indexed": true,
          "internalType": "address",
          "name": "user",
          "type": "address"
        },
        {
          "indexed": false,
          "internalType": "uint256",
          "name": "btnAmount",
          "type": "uint256"
        }
      ],
      "name": "WithdrawnAsBTN",
      "type": "event"
    },
    {
      "anonymous": false,
      "inputs": [
        {
          "indexed": true,
          "internalType": "address",
          "name": "user",
          "type": "address"
        },
        {
          "indexed": false,
          "internalType": "uint256",
          "name": "btnAmount",
          "type": "uint256"
        },
        {
          "indexed": false,
          "internalType": "uint256",
          "name": "usdcAmount",
          "type": "uint256"
        }
      ],
      "name": "WithdrawnAsUSDC",
      "type": "event"
    },
    {
      "inputs": [],
      "name": "DEFAULT_ADMIN_ROLE",
      "outputs": [
        {
          "internalType": "bytes32",
          "name": "",
          "type": "bytes32"
        }
      ],
      "stateMutability": "view",
      "type": "function"
    },
    {
      "inputs": [],
      "name": "EMERGENCY_ROLE",
      "outputs": [
        {
          "internalType": "bytes32",
          "name": "",
          "type": "bytes32"
        }
      ],
      "stateMutability": "view",
      "type": "function"
    },
    {
      "inputs": [],
      "name": "OPERATOR_ROLE",
      "outputs": [
        {
          "internalType": "bytes32",
          "name": "",
          "type": "bytes32"
        }
      ],
      "stateMutability": "view",
      "type": "function"
    },
    {
      "inputs": [],
      "name": "UPGRADE_INTERFACE_VERSION",
      "outputs": [
        {
          "internalType": "string",
          "name": "",
          "type": "string"
        }
      ],
      "stateMutability": "view",
      "type": "function"
    },
    {
      "inputs": [
        {
          "internalType": "address",
          "name": "user",
          "type": "address"
        },
        {
          "internalType": "uint256",
          "name": "amount",
          "type": "uint256"
        }
      ],
      "name": "addWithdrawable",
      "outputs": [],
      "stateMutability": "nonpayable",
      "type": "function"
    },
    {
      "inputs": [],
      "name": "btnPriceUSD",
      "outputs": [
        {
          "internalType": "uint256",
          "name": "",
          "type": "uint256"
        }
      ],
      "stateMutability": "view",
      "type": "function"
    },
    {
      "inputs": [],
      "name": "btnToken",
      "outputs": [
        {
          "internalType": "contract IERC20",
          "name": "",
          "type": "address"
        }
      ],
      "stateMutability": "view",
      "type": "function"
    },
    {
      "inputs": [
        {
          "internalType": "address",
          "name": "",
          "type": "address"
        }
      ],
      "name": "currentWeekStart",
      "outputs": [
        {
          "internalType": "uint256",
          "name": "",
          "type": "uint256"
        }
      ],
      "stateMutability": "view",
      "type": "function"
    },
    {
      "inputs": [
        {
          "internalType": "uint256",
          "name": "amount",
          "type": "uint256"
        }
      ],
      "name": "fundUSDC",
      "outputs": [],
      "stateMutability": "nonpayable",
      "type": "function"
    },
    {
      "inputs": [
        {
          "internalType": "address",
          "name": "user",
          "type": "address"
        }
      ],
      "name": "getRemainingWeeklyAllowance",
      "outputs": [
        {
          "internalType": "uint256",
          "name": "",
          "type": "uint256"
        }
      ],
      "stateMutability": "view",
      "type": "function"
    },
    {
      "inputs": [
        {
          "internalType": "bytes32",
          "name": "role",
          "type": "bytes32"
        }
      ],
      "name": "getRoleAdmin",
      "outputs": [
        {
          "internalType": "bytes32",
          "name": "",
          "type": "bytes32"
        }
      ],
      "stateMutability": "view",
      "type": "function"
    },
    {
      "inputs": [],
      "name": "getUSDCReserve",
      "outputs": [
        {
          "internalType": "uint256",
          "name": "",
          "type": "uint256"
        }
      ],
      "stateMutability": "view",
      "type": "function"
    },
    {
      "inputs": [
        {
          "internalType": "address",
          "name": "user",
          "type": "address"
        }
      ],
      "name": "getWithdrawableBalance",
      "outputs": [
        {
          "internalType": "uint256",
          "name": "",
          "type": "uint256"
        }
      ],
      "stateMutability": "view",
      "type": "function"
    },
    {
      "inputs": [
        {
          "internalType": "address",
          "name": "user",
          "type": "address"
        }
      ],
      "name": "getWithdrawableInUSDC",
      "outputs": [
        {
          "internalType": "uint256",
          "name": "",
          "type": "uint256"
        }
      ],
      "stateMutability": "view",
      "type": "function"
    },
    {
      "inputs": [
        {
          "internalType": "bytes32",
          "name": "role",
          "type": "bytes32"
        },
        {
          "internalType": "address",
          "name": "account",
          "type": "address"
        }
      ],
      "name": "grantRole",
      "outputs": [],
      "stateMutability": "nonpayable",
      "type": "function"
    },
    {
      "inputs": [
        {
          "internalType": "bytes32",
          "name": "role",
          "type": "bytes32"
        },
        {
          "internalType": "address",
          "name": "account",
          "type": "address"
        }
      ],
      "name": "hasRole",
      "outputs": [
        {
          "internalType": "bool",
          "name": "",
          "type": "bool"
        }
      ],
      "stateMutability": "view",
      "type": "function"
    },
    {
      "inputs": [
        {
          "internalType": "address",
          "name": "_btnToken",
          "type": "address"
        },
        {
          "internalType": "address",
          "name": "_usdcToken",
          "type": "address"
        },
        {
          "internalType": "address",
          "name": "_admin",
          "type": "address"
        }
      ],
      "name": "initialize",
      "outputs": [],
      "stateMutability": "nonpayable",
      "type": "function"
    },
    {
      "inputs": [],
      "name": "pause",
      "outputs": [],
      "stateMutability": "nonpayable",
      "type": "function"
    },
    {
      "inputs": [],
      "name": "paused",
      "outputs": [
        {
          "internalType": "bool",
          "name": "",
          "type": "bool"
        }
      ],
      "stateMutability": "view",
      "type": "function"
    },
    {
      "inputs": [],
      "name": "proxiableUUID",
      "outputs": [
        {
          "internalType": "bytes32",
          "name": "",
          "type": "bytes32"
        }
      ],
      "stateMutability": "view",
      "type": "function"
    },
    {
      "inputs": [
        {
          "internalType": "bytes32",
          "name": "role",
          "type": "bytes32"
        },
        {
          "internalType": "address",
          "name": "callerConfirmation",
          "type": "address"
        }
      ],
      "name": "renounceRole",
      "outputs": [],
      "stateMutability": "nonpayable",
      "type": "function"
    },
    {
      "inputs": [
        {
          "internalType": "bytes32",
          "name": "role",
          "type": "bytes32"
        },
        {
          "internalType": "address",
          "name": "account",
          "type": "address"
        }
      ],
      "name": "revokeRole",
      "outputs": [],
      "stateMutability": "nonpayable",
      "type": "function"
    },
    {
      "inputs": [
        {
          "internalType": "uint256",
          "name": "price",
          "type": "uint256"
        }
      ],
      "name": "setBtnPriceUSD",
      "outputs": [],
      "stateMutability": "nonpayable",
      "type": "function"
    },
    {
      "inputs": [
        {
          "internalType": "uint256",
          "name": "cap",
          "type": "uint256"
        }
      ],
      "name": "setWeeklyWithdrawalCap",
      "outputs": [],
      "stateMutability": "nonpayable",
      "type": "function"
    },
    {
      "inputs": [
        {
          "internalType": "bytes4",
          "name": "interfaceId",
          "type": "bytes4"
        }
      ],
      "name": "supportsInterface",
      "outputs": [
        {
          "internalType": "bool",
          "name": "",
          "type": "bool"
        }
      ],
      "stateMutability": "view",
      "type": "function"
    },
    {
      "inputs": [],
      "name": "unpause",
      "outputs": [],
      "stateMutability": "nonpayable",
      "type": "function"
    },
    {
      "inputs": [
        {
          "internalType": "address",
          "name": "newImplementation",
          "type": "address"
        },
        {
          "internalType": "bytes",
          "name": "data",
          "type": "bytes"
        }
      ],
      "name": "upgradeToAndCall",
      "outputs": [],
      "stateMutability": "payable",
      "type": "function"
    },
    {
      "inputs": [],
      "name": "usdcToken",
      "outputs": [
        {
          "internalType": "contract IERC20",
          "name": "",
          "type": "address"
        }
      ],
      "stateMutability": "view",
      "type": "function"
    },
    {
      "inputs": [],
      "name": "weeklyWithdrawalCap",
      "outputs": [
        {
          "internalType": "uint256",
          "name": "",
          "type": "uint256"
        }
      ],
      "stateMutability": "view",
      "type": "function"
    },
    {
      "inputs": [
        {
          "internalType": "address",
          "name": "",
          "type": "address"
        }
      ],
      "name": "weeklyWithdrawn",
      "outputs": [
        {
          "internalType": "uint256",
          "name": "",
          "type": "uint256"
        }
      ],
      "stateMutability": "view",
      "type": "function"
    },
    {
      "inputs": [
        {
          "internalType": "uint256",
          "name": "amount",
          "type": "uint256"
        }
      ],
      "name": "withdrawAsBTN",
      "outputs": [],
      "stateMutability": "nonpayable",
      "type": "function"
    },
    {
      "inputs": [
        {
          "internalType": "uint256",
          "name": "btnAmount",
          "type": "uint256"
        }
      ],
      "name": "withdrawAsUSDC",
      "outputs": [],
      "stateMutability": "nonpayable",
      "type": "function"
    },
    {
      "inputs": [
        {
          "internalType": "address",
          "name": "",
          "type": "address"
        }
      ],
      "name": "withdrawableBalance",
      "outputs": [
        {
          "internalType": "uint256",
          "name": "",
          "type": "uint256"
        }
      ],
      "stateMutability": "view",
      "type": "function"
    }
  ],
  "bytecode": "0x60a06040523073ffffffffffffffffffffffffffffffffffffffff1660809073ffffffffffffffffffffffffffffffffffffffff1681525034801561004357600080fd5b5061005261005760201b60201c565b6101de565b600061006761015b60201b60201c565b90508060000160089054906101000a900460ff16156100b2576040517ff92ee8a900000000000000000000000000000000000000000000000000000000815260040160405180910390fd5b67ffffffffffffffff80168160000160009054906101000a900467ffffffffffffffff1667ffffffffffffffff16146101585767ffffffffffffffff8160000160006101000a81548167ffffffffffffffff021916908367ffffffffffffffff1602179055507fc7f505b2f371ae2175ee4913f4499e1f2633a7b5936321eed1cdaeb6115181d267ffffffffffffffff60405161014f91906101c3565b60405180910390a15b50565b60008061016c61017560201b60201c565b90508091505090565b60007ff0c57e16840df040f15088dc2f81fe391c3923bec73e23a9662efc9c229c6a0060001b905090565b600067ffffffffffffffff82169050919050565b6101bd816101a0565b82525050565b60006020820190506101d860008301846101b4565b92915050565b60805161344161020760003960008181611f3001528181611f85015261214601526134416000f3fe6080604052600436106101ee5760003560e01c8063748f3e2e1161010d578063bba68038116100a0578063d547741f1161006f578063d547741f146106dc578063dd57315d14610705578063de58441f14610742578063f5b541a61461076d578063f83754f914610798576101ee565b8063bba6803814610622578063bbf45c921461065f578063c0c53b8b1461068a578063c4517dae146106b3576101ee565b806391d14854116100dc57806391d148541461056457806399d47339146105a1578063a217fddf146105cc578063ad3cb1cc146105f7576101ee565b8063748f3e2e146104aa578063843592d3146104e75780638456cb59146105245780638d780bf51461053b576101ee565b806336568abe116101855780634f1ef286116101545780634f1ef2861461040f57806352d1902d1461042b5780635c975abb146104565780636532334c14610481576101ee565b806336568abe1461037d5780633f4ba83a146103a657806347c63733146103bd57806347f26817146103e6576101ee565b8063248a9ca3116101c1578063248a9ca3146102c35780632747f5161461030057806328d175851461032b5780632f2ff15d14610354576101ee565b806301ffc9a7146101f357806302b629381461023057806311eac8551461026d57806320df435914610298575b600080fd5b3480156101ff57600080fd5b5061021a60048036038101906102159190612b12565b6107d5565b6040516102279190612b5a565b60405180910390f35b34801561023c57600080fd5b5061025760048036038101906102529190612bd3565b61084f565b6040516102649190612c19565b60405180910390f35b34801561027957600080fd5b50610282610867565b60405161028f9190612c93565b60405180910390f35b3480156102a457600080fd5b506102ad61088d565b6040516102ba9190612cc7565b60405180910390f35b3480156102cf57600080fd5b506102ea60048036038101906102e59190612d0e565b6108b1565b6040516102f79190612cc7565b60405180910390f35b34801561030c57600080fd5b506103156108df565b6040516103229190612c19565b60405180910390f35b34801561033757600080fd5b50610352600480360381019061034d9190612d67565b6108e5565b005b34801561036057600080fd5b5061037b60048036038101906103769190612d94565b610977565b005b34801561038957600080fd5b506103a4600480360381019061039f9190612d94565b610999565b005b3480156103b257600080fd5b506103bb610a14565b005b3480156103c957600080fd5b506103e460048036038101906103df9190612d67565b610a2c565b005b3480156103f257600080fd5b5061040d60048036038101906104089190612d67565b610b1e565b005b61042960048036038101906104249190612f1a565b610b77565b005b34801561043757600080fd5b50610440610b96565b60405161044d9190612cc7565b60405180910390f35b34801561046257600080fd5b5061046b610bc9565b6040516104789190612b5a565b60405180910390f35b34801561048d57600080fd5b506104a860048036038101906104a39190612d67565b610bee565b005b3480156104b657600080fd5b506104d160048036038101906104cc9190612bd3565b610e0d565b6040516104de9190612c19565b60405180910390f35b3480156104f357600080fd5b5061050e60048036038101906105099190612bd3565b610f0a565b60405161051b9190612c19565b60405180910390f35b34801561053057600080fd5b50610539610f53565b005b34801561054757600080fd5b50610562600480360381019061055d9190612f76565b610f88565b005b34801561057057600080fd5b5061058b60048036038101906105869190612d94565b6110fb565b6040516105989190612b5a565b60405180910390f35b3480156105ad57600080fd5b506105b6611174565b6040516105c39190612c19565b60405180910390f35b3480156105d857600080fd5b506105e1611217565b6040516105ee9190612cc7565b60405180910390f35b34801561060357600080fd5b5061060c61121e565b6040516106199190613035565b60405180910390f35b34801561062e57600080fd5b5061064960048036038101906106449190612bd3565b611257565b6040516106569190612c19565b60405180910390f35b34801561066b57600080fd5b5061067461126f565b6040516106819190612c93565b60405180910390f35b34801561069657600080fd5b506106b160048036038101906106ac9190613057565b611293565b005b3480156106bf57600080fd5b506106da60048036038101906106d59190612d67565b61165c565b005b3480156106e857600080fd5b5061070360048036038101906106fe9190612d94565b6119fd565b005b34801561071157600080fd5b5061072c60048036038101906107279190612bd3565b611a1f565b6040516107399190612c19565b60405180910390f35b34801561074e57600080fd5b50610757611a37565b6040516107649190612c19565b60405180910390f35b34801561077957600080fd5b50610782611a3d565b60405161078f9190612cc7565b60405180910390f35b3480156107a457600080fd5b506107bf60048036038101906107ba9190612bd3565b611a61565b6040516107cc9190612c19565b60405180910390f35b60007f7965db0b000000000000000000000000000000000000000000000000000000007bffffffffffffffffffffffffffffffffffffffffffffffffffffffff1916827bffffffffffffffffffffffffffffffffffffffffffffffffffffffff19161480610848575061084782611ad8565b5b9050919050565b60026020528060005260406000206000915090505481565b600160009054906101000a900473ffffffffffffffffffffffffffffffffffffffff1681565b7fbf233dd2aafeb4d50879c4aa5c81e96d92f6e6945c906a58f9f2d1c1631b4b2681565b6000806108bc611b42565b905080600001600084815260200190815260200160002060010154915050919050565b60035481565b6000801b6108f281611b6a565b6000820361092b576040517ebfc92100000000000000000000000000000000000000000000000000000000815260040160405180910390fd5b60006006549050826006819055507f833e49e8716b45d344c5792ea0377f984d4a12a1cf13f24f0b0fd497491d24ee818460405161096a9291906130aa565b60405180910390a1505050565b610980826108b1565b61098981611b6a565b6109938383611b7e565b50505050565b6109a1611c7f565b73ffffffffffffffffffffffffffffffffffffffff168173ffffffffffffffffffffffffffffffffffffffff1614610a05576040517f6697b23200000000000000000000000000000000000000000000000000000000815260040160405180910390fd5b610a0f8282611c87565b505050565b6000801b610a2181611b6a565b610a29611d89565b50565b610a34611dfb565b610a3c611e52565b60008103610a76576040517f1f2a200500000000000000000000000000000000000000000000000000000000815260040160405180910390fd5b610ac5333083600160009054906101000a900473ffffffffffffffffffffffffffffffffffffffff1673ffffffffffffffffffffffffffffffffffffffff16611e93909392919063ffffffff16565b3373ffffffffffffffffffffffffffffffffffffffff167f31a6a48e30331723682632f9cbe2eaa1811c925abd69ed2fc96054ec7539b64a82604051610b0b9190612c19565b60405180910390a2610b1b611f15565b50565b6000801b610b2b81611b6a565b60006003549050826003819055507f51ba211438f7cac7f7dcc64be01a67eb5430cf420152c7c8ade340c14ae0122d8184604051610b6a9291906130aa565b60405180910390a1505050565b610b7f611f2e565b610b8882612014565b610b928282612025565b5050565b6000610ba0612144565b7f360894a13ba1a3210667c828492db98dca3e2076cc3735a920a3ca505d382bbc60001b905090565b600080610bd46121cb565b90508060000160009054906101000a900460ff1691505090565b610bf6611dfb565b610bfe611e52565b60008103610c38576040517f1f2a200500000000000000000000000000000000000000000000000000000000815260040160405180910390fd5b600260003373ffffffffffffffffffffffffffffffffffffffff1673ffffffffffffffffffffffffffffffffffffffff16815260200190815260200160002054811115610cfd5780600260003373ffffffffffffffffffffffffffffffffffffffff1673ffffffffffffffffffffffffffffffffffffffff168152602001908152602001600020546040517fcf479181000000000000000000000000000000000000000000000000000000008152600401610cf49291906130aa565b60405180910390fd5b60006003541115610d1357610d1233826121f3565b5b80600260003373ffffffffffffffffffffffffffffffffffffffff1673ffffffffffffffffffffffffffffffffffffffff1681526020019081526020016000206000828254610d629190613102565b92505081905550610db4338260008054906101000a900473ffffffffffffffffffffffffffffffffffffffff1673ffffffffffffffffffffffffffffffffffffffff166124149092919063ffffffff16565b3373ffffffffffffffffffffffffffffffffffffffff167fe2b8748b3971636bdd043cdb5ebc12ec0902299aaff61761ad2dbea490e8cc8b82604051610dfa9190612c19565b60405180910390a2610e0a611f15565b50565b60008060035403610e40577fffffffffffffffffffffffffffffffffffffffffffffffffffffffffffffffff9050610f05565b6000610e4a612493565b9050600081600560008673ffffffffffffffffffffffffffffffffffffffff1673ffffffffffffffffffffffffffffffffffffffff1681526020019081526020016000205414610e9b576000610edc565b600460008573ffffffffffffffffffffffffffffffffffffffff1673ffffffffffffffffffffffffffffffffffffffff168152602001908152602001600020545b90506003548110610ef257600092505050610f05565b80600354610f009190613102565b925050505b919050565b6000600260008373ffffffffffffffffffffffffffffffffffffffff1673ffffffffffffffffffffffffffffffffffffffff168152602001908152602001600020549050919050565b7fbf233dd2aafeb4d50879c4aa5c81e96d92f6e6945c906a58f9f2d1c1631b4b26610f7d81611b6a565b610f856124b4565b50565b7f97667070c54ef182b0f5858b034beac1b6f3089aa2d3188bb1e8929f4fa9b929610fb281611b6a565b600073ffffffffffffffffffffffffffffffffffffffff168373ffffffffffffffffffffffffffffffffffffffff1603611018576040517fd92e233d00000000000000000000000000000000000000000000000000000000815260040160405180910390fd5b60008203611052576040517f1f2a200500000000000000000000000000000000000000000000000000000000815260040160405180910390fd5b81600260008573ffffffffffffffffffffffffffffffffffffffff1673ffffffffffffffffffffffffffffffffffffffff16815260200190815260200160002060008282546110a19190613136565b925050819055508273ffffffffffffffffffffffffffffffffffffffff167f42168dda46c03d4d904db69872048bc455e80f7f0ed317ffdcdd28b53545f56b836040516110ee9190612c19565b60405180910390a2505050565b600080611106611b42565b905080600001600085815260200190815260200160002060000160008473ffffffffffffffffffffffffffffffffffffffff1673ffffffffffffffffffffffffffffffffffffffff16815260200190815260200160002060009054906101000a900460ff1691505092915050565b6000600160009054906101000a900473ffffffffffffffffffffffffffffffffffffffff1673ffffffffffffffffffffffffffffffffffffffff166370a08231306040518263ffffffff1660e01b81526004016111d19190613179565b602060405180830381865afa1580156111ee573d6000803e3d6000fd5b505050506040513d601f19601f8201168201806040525081019061121291906131a9565b905090565b6000801b81565b6040518060400160405280600581526020017f352e302e3000000000000000000000000000000000000000000000000000000081525081565b60056020528060005260406000206000915090505481565b60008054906101000a900473ffffffffffffffffffffffffffffffffffffffff1681565b600061129d612526565b905060008160000160089054906101000a900460ff1615905060008260000160009054906101000a900467ffffffffffffffff1690506000808267ffffffffffffffff161480156112eb5750825b9050600060018367ffffffffffffffff16148015611320575060003073ffffffffffffffffffffffffffffffffffffffff163b145b90508115801561132e575080155b15611365576040517ff92ee8a900000000000000000000000000000000000000000000000000000000815260040160405180910390fd5b60018560000160006101000a81548167ffffffffffffffff021916908367ffffffffffffffff16021790555083156113b55760018560000160086101000a81548160ff0219169083151502179055505b600073ffffffffffffffffffffffffffffffffffffffff168873ffffffffffffffffffffffffffffffffffffffff160361141b576040517fd92e233d00000000000000000000000000000000000000000000000000000000815260040160405180910390fd5b600073ffffffffffffffffffffffffffffffffffffffff168773ffffffffffffffffffffffffffffffffffffffff1603611481576040517fd92e233d00000000000000000000000000000000000000000000000000000000815260040160405180910390fd5b600073ffffffffffffffffffffffffffffffffffffffff168673ffffffffffffffffffffffffffffffffffffffff16036114e7576040517fd92e233d00000000000000000000000000000000000000000000000000000000815260040160405180910390fd5b6114ef61253a565b6114f7612544565b6114ff61254e565b611507612560565b6115146000801b87611b7e565b5061153f7f97667070c54ef182b0f5858b034beac1b6f3089aa2d3188bb1e8929f4fa9b92987611b7e565b5061156a7fbf233dd2aafeb4d50879c4aa5c81e96d92f6e6945c906a58f9f2d1c1631b4b2687611b7e565b50876000806101000a81548173ffffffffffffffffffffffffffffffffffffffff021916908373ffffffffffffffffffffffffffffffffffffffff16021790555086600160006101000a81548173ffffffffffffffffffffffffffffffffffffffff021916908373ffffffffffffffffffffffffffffffffffffffff1602179055506222551060068190555083156116525760008560000160086101000a81548160ff0219169083151502179055507fc7f505b2f371ae2175ee4913f4499e1f2633a7b5936321eed1cdaeb6115181d260016040516116499190613225565b60405180910390a15b5050505050505050565b611664611dfb565b61166c611e52565b600081036116a6576040517f1f2a200500000000000000000000000000000000000000000000000000000000815260040160405180910390fd5b600260003373ffffffffffffffffffffffffffffffffffffffff1673ffffffffffffffffffffffffffffffffffffffff1681526020019081526020016000205481111561176b5780600260003373ffffffffffffffffffffffffffffffffffffffff1673ffffffffffffffffffffffffffffffffffffffff168152602001908152602001600020546040517fcf4791810000000000000000000000000000000000000000000000000000000081526004016117629291906130aa565b60405180910390fd5b6000600654036117a6576040517ebfc92100000000000000000000000000000000000000000000000000000000815260040160405180910390fd5b6000620f4240600654836117ba9190613240565b6117c491906132b1565b905060008103611800576040517f1f2a200500000000000000000000000000000000000000000000000000000000815260040160405180910390fd5b6000600160009054906101000a900473ffffffffffffffffffffffffffffffffffffffff1673ffffffffffffffffffffffffffffffffffffffff166370a08231306040518263ffffffff1660e01b815260040161185d9190613179565b602060405180830381865afa15801561187a573d6000803e3d6000fd5b505050506040513d601f19601f8201168201806040525081019061189e91906131a9565b9050808211156118e75781816040517f8ca1906e0000000000000000000000000000000000000000000000000000000081526004016118de9291906130aa565b60405180910390fd5b600060035411156118fd576118fc33846121f3565b5b82600260003373ffffffffffffffffffffffffffffffffffffffff1673ffffffffffffffffffffffffffffffffffffffff168152602001908152602001600020600082825461194c9190613102565b925050819055506119a03383600160009054906101000a900473ffffffffffffffffffffffffffffffffffffffff1673ffffffffffffffffffffffffffffffffffffffff166124149092919063ffffffff16565b3373ffffffffffffffffffffffffffffffffffffffff167fecf2b11d6c4be67d5e1a080420d4249e79f705b6ac4de9720e2163630c225c5084846040516119e89291906130aa565b60405180910390a250506119fa611f15565b50565b611a06826108b1565b611a0f81611b6a565b611a198383611c87565b50505050565b60046020528060005260406000206000915090505481565b60065481565b7f97667070c54ef182b0f5858b034beac1b6f3089aa2d3188bb1e8929f4fa9b92981565b60008060065403611a755760009050611ad3565b620f4240600654600260008573ffffffffffffffffffffffffffffffffffffffff1673ffffffffffffffffffffffffffffffffffffffff16815260200190815260200160002054611ac69190613240565b611ad091906132b1565b90505b919050565b60007f01ffc9a7000000000000000000000000000000000000000000000000000000007bffffffffffffffffffffffffffffffffffffffffffffffffffffffff1916827bffffffffffffffffffffffffffffffffffffffffffffffffffffffff1916149050919050565b60007f02dd7bc7dec4dceedda775e58dd541e08a116c6c53815c0bd028192f7b626800905090565b611b7b81611b76611c7f565b61256a565b50565b600080611b89611b42565b9050611b9584846110fb565b611c7357600181600001600086815260200190815260200160002060000160008573ffffffffffffffffffffffffffffffffffffffff1673ffffffffffffffffffffffffffffffffffffffff16815260200190815260200160002060006101000a81548160ff021916908315150217905550611c0f611c7f565b73ffffffffffffffffffffffffffffffffffffffff168373ffffffffffffffffffffffffffffffffffffffff16857f2f8788117e7eff1d82e926ec794901d17c78024a50270940304540a733656f0d60405160405180910390a46001915050611c79565b60009150505b92915050565b600033905090565b600080611c92611b42565b9050611c9e84846110fb565b15611d7d57600081600001600086815260200190815260200160002060000160008573ffffffffffffffffffffffffffffffffffffffff1673ffffffffffffffffffffffffffffffffffffffff16815260200190815260200160002060006101000a81548160ff021916908315150217905550611d19611c7f565b73ffffffffffffffffffffffffffffffffffffffff168373ffffffffffffffffffffffffffffffffffffffff16857ff6391f5c32d9c69d2a47ea670b442974b53935d1edc7fd64eb21e047a839171b60405160405180910390a46001915050611d83565b60009150505b92915050565b611d916125bb565b6000611d9b6121cb565b905060008160000160006101000a81548160ff0219169083151502179055507f5db9ee0a495bf2e6ff9c91a7834c1ba4fdd244a5e8aa4e537bd38aeae4b073aa611de3611c7f565b604051611df09190613179565b60405180910390a150565b6000611e056125fb565b90506002816000015403611e45576040517f3ee5aeb500000000000000000000000000000000000000000000000000000000815260040160405180910390fd5b6002816000018190555050565b611e5a610bc9565b15611e91576040517fd93c066500000000000000000000000000000000000000000000000000000000815260040160405180910390fd5b565b611f0f848573ffffffffffffffffffffffffffffffffffffffff166323b872dd868686604051602401611ec8939291906132e2565b604051602081830303815290604052915060e01b6020820180517bffffffffffffffffffffffffffffffffffffffffffffffffffffffff8381831617835250505050612623565b50505050565b6000611f1f6125fb565b90506001816000018190555050565b7f000000000000000000000000000000000000000000000000000000000000000073ffffffffffffffffffffffffffffffffffffffff163073ffffffffffffffffffffffffffffffffffffffff161480611fdb57507f000000000000000000000000000000000000000000000000000000000000000073ffffffffffffffffffffffffffffffffffffffff16611fc26126c5565b73ffffffffffffffffffffffffffffffffffffffff1614155b15612012576040517fe07c8dba00000000000000000000000000000000000000000000000000000000815260040160405180910390fd5b565b6000801b61202181611b6a565b5050565b8173ffffffffffffffffffffffffffffffffffffffff166352d1902d6040518163ffffffff1660e01b8152600401602060405180830381865afa92505050801561208d57506040513d601f19601f8201168201806040525081019061208a919061332e565b60015b6120ce57816040517f4c9c8ce30000000000000000000000000000000000000000000000000000000081526004016120c59190613179565b60405180910390fd5b7f360894a13ba1a3210667c828492db98dca3e2076cc3735a920a3ca505d382bbc60001b811461213557806040517faa1d49a400000000000000000000000000000000000000000000000000000000815260040161212c9190612cc7565b60405180910390fd5b61213f838361271c565b505050565b7f000000000000000000000000000000000000000000000000000000000000000073ffffffffffffffffffffffffffffffffffffffff163073ffffffffffffffffffffffffffffffffffffffff16146121c9576040517fe07c8dba00000000000000000000000000000000000000000000000000000000815260040160405180910390fd5b565b60007fcd5ed15c6e187e77e9aee88184c21f4f2182ab5827cb3b7e07fbedcd63f03300905090565b60006121fd612493565b905080600560008573ffffffffffffffffffffffffffffffffffffffff1673ffffffffffffffffffffffffffffffffffffffff16815260200190815260200160002054146122cf5780600560008573ffffffffffffffffffffffffffffffffffffffff1673ffffffffffffffffffffffffffffffffffffffff168152602001908152602001600020819055506000600460008573ffffffffffffffffffffffffffffffffffffffff1673ffffffffffffffffffffffffffffffffffffffff168152602001908152602001600020819055505b6000600354600460008673ffffffffffffffffffffffffffffffffffffffff1673ffffffffffffffffffffffffffffffffffffffff16815260200190815260200160002054101561236c57600460008573ffffffffffffffffffffffffffffffffffffffff1673ffffffffffffffffffffffffffffffffffffffff168152602001908152602001600020546003546123679190613102565b61236f565b60005b9050808311156123b85782816040517fe03671a00000000000000000000000000000000000000000000000000000000081526004016123af9291906130aa565b60405180910390fd5b82600460008673ffffffffffffffffffffffffffffffffffffffff1673ffffffffffffffffffffffffffffffffffffffff16815260200190815260200160002060008282546124079190613136565b9250508190555050505050565b61248e838473ffffffffffffffffffffffffffffffffffffffff1663a9059cbb858560405160240161244792919061335b565b604051602081830303815290604052915060e01b6020820180517bffffffffffffffffffffffffffffffffffffffffffffffffffffffff8381831617835250505050612623565b505050565b600062093a8080426124a591906132b1565b6124af9190613240565b905090565b6124bc611e52565b60006124c66121cb565b905060018160000160006101000a81548160ff0219169083151502179055507f62e78cea01bee320cd4e420270b5ea74000d11b0c9f74754ebdbfc544b05a25861250e611c7f565b60405161251b9190613179565b60405180910390a150565b60008061253161278f565b90508091505090565b6125426127ba565b565b61254c6127ba565b565b6125566127ba565b61255e6127fa565b565b6125686127ba565b565b61257482826110fb565b6125b75780826040517fe2517d3f0000000000000000000000000000000000000000000000000000000081526004016125ae929190613384565b60405180910390fd5b5050565b6125c3610bc9565b6125f9576040517f8dfc202b00000000000000000000000000000000000000000000000000000000815260040160405180910390fd5b565b60007f9b779b17422d0df92223018b32b4d1fa46e071723d6817e2486d003becc55f00905090565b600080602060008451602086016000885af180612646576040513d6000823e3d81fd5b3d92506000519150506000821461266157600181141561267d565b60008473ffffffffffffffffffffffffffffffffffffffff163b145b156126bf57836040517f5274afe70000000000000000000000000000000000000000000000000000000081526004016126b69190613179565b60405180910390fd5b50505050565b60006126f37f360894a13ba1a3210667c828492db98dca3e2076cc3735a920a3ca505d382bbc60001b61281b565b60000160009054906101000a900473ffffffffffffffffffffffffffffffffffffffff16905090565b61272582612825565b8173ffffffffffffffffffffffffffffffffffffffff167fbc7cd75a20ee27fd9adebab32041f755214dbc6bffa90cc0225b39da2e5c2d3b60405160405180910390a26000815111156127825761277c82826128f2565b5061278b565b61278a612976565b5b5050565b60007ff0c57e16840df040f15088dc2f81fe391c3923bec73e23a9662efc9c229c6a0060001b905090565b6127c26129b3565b6127f8576040517fd7e6bcf800000000000000000000000000000000000000000000000000000000815260040160405180910390fd5b565b6128026127ba565b600061280c6125fb565b90506001816000018190555050565b6000819050919050565b60008173ffffffffffffffffffffffffffffffffffffffff163b0361288157806040517f4c9c8ce30000000000000000000000000000000000000000000000000000000081526004016128789190613179565b60405180910390fd5b806128ae7f360894a13ba1a3210667c828492db98dca3e2076cc3735a920a3ca505d382bbc60001b61281b565b60000160006101000a81548173ffffffffffffffffffffffffffffffffffffffff021916908373ffffffffffffffffffffffffffffffffffffffff16021790555050565b60606000808473ffffffffffffffffffffffffffffffffffffffff168460405161291c91906133f4565b600060405180830381855af49150503d8060008114612957576040519150601f19603f3d011682016040523d82523d6000602084013e61295c565b606091505b509150915061296c8583836129d3565b9250505092915050565b60003411156129b1576040517fb398979f00000000000000000000000000000000000000000000000000000000815260040160405180910390fd5b565b60006129bd612526565b60000160089054906101000a900460ff16905090565b6060826129e8576129e382612a62565b612a5a565b60008251148015612a10575060008473ffffffffffffffffffffffffffffffffffffffff163b145b15612a5257836040517f9996b315000000000000000000000000000000000000000000000000000000008152600401612a499190613179565b60405180910390fd5b819050612a5b565b5b9392505050565b600081511115612a7457805160208201fd5b6040517fd6bda27500000000000000000000000000000000000000000000000000000000815260040160405180910390fd5b6000604051905090565b600080fd5b600080fd5b60007fffffffff0000000000000000000000000000000000000000000000000000000082169050919050565b612aef81612aba565b8114612afa57600080fd5b50565b600081359050612b0c81612ae6565b92915050565b600060208284031215612b2857612b27612ab0565b5b6000612b3684828501612afd565b91505092915050565b60008115159050919050565b612b5481612b3f565b82525050565b6000602082019050612b6f6000830184612b4b565b92915050565b600073ffffffffffffffffffffffffffffffffffffffff82169050919050565b6000612ba082612b75565b9050919050565b612bb081612b95565b8114612bbb57600080fd5b50565b600081359050612bcd81612ba7565b92915050565b600060208284031215612be957612be8612ab0565b5b6000612bf784828501612bbe565b91505092915050565b6000819050919050565b612c1381612c00565b82525050565b6000602082019050612c2e6000830184612c0a565b92915050565b6000819050919050565b6000612c59612c54612c4f84612b75565b612c34565b612b75565b9050919050565b6000612c6b82612c3e565b9050919050565b6000612c7d82612c60565b9050919050565b612c8d81612c72565b82525050565b6000602082019050612ca86000830184612c84565b92915050565b6000819050919050565b612cc181612cae565b82525050565b6000602082019050612cdc6000830184612cb8565b92915050565b612ceb81612cae565b8114612cf657600080fd5b50565b600081359050612d0881612ce2565b92915050565b600060208284031215612d2457612d23612ab0565b5b6000612d3284828501612cf9565b91505092915050565b612d4481612c00565b8114612d4f57600080fd5b50565b600081359050612d6181612d3b565b92915050565b600060208284031215612d7d57612d7c612ab0565b5b6000612d8b84828501612d52565b91505092915050565b60008060408385031215612dab57612daa612ab0565b5b6000612db985828601612cf9565b9250506020612dca85828601612bbe565b9150509250929050565b600080fd5b600080fd5b6000601f19601f8301169050919050565b7f4e487b7100000000000000000000000000000000000000000000000000000000600052604160045260246000fd5b612e2782612dde565b810181811067ffffffffffffffff82111715612e4657612e45612def565b5b80604052505050565b6000612e59612aa6565b9050612e658282612e1e565b919050565b600067ffffffffffffffff821115612e8557612e84612def565b5b612e8e82612dde565b9050602081019050919050565b82818337600083830152505050565b6000612ebd612eb884612e6a565b612e4f565b905082815260208101848484011115612ed957612ed8612dd9565b5b612ee4848285612e9b565b509392505050565b600082601f830112612f0157612f00612dd4565b5b8135612f11848260208601612eaa565b91505092915050565b60008060408385031215612f3157612f30612ab0565b5b6000612f3f85828601612bbe565b925050602083013567ffffffffffffffff811115612f6057612f5f612ab5565b5b612f6c85828601612eec565b9150509250929050565b60008060408385031215612f8d57612f8c612ab0565b5b6000612f9b85828601612bbe565b9250506020612fac85828601612d52565b9150509250929050565b600081519050919050565b600082825260208201905092915050565b60005b83811015612ff0578082015181840152602081019050612fd5565b60008484015250505050565b600061300782612fb6565b6130118185612fc1565b9350613021818560208601612fd2565b61302a81612dde565b840191505092915050565b6000602082019050818103600083015261304f8184612ffc565b905092915050565b6000806000606084860312156130705761306f612ab0565b5b600061307e86828701612bbe565b935050602061308f86828701612bbe565b92505060406130a086828701612bbe565b9150509250925092565b60006040820190506130bf6000830185612c0a565b6130cc6020830184612c0a565b9392505050565b7f4e487b7100000000000000000000000000000000000000000000000000000000600052601160045260246000fd5b600061310d82612c00565b915061311883612c00565b92508282039050818111156131305761312f6130d3565b5b92915050565b600061314182612c00565b915061314c83612c00565b9250828201905080821115613164576131636130d3565b5b92915050565b61317381612b95565b82525050565b600060208201905061318e600083018461316a565b92915050565b6000815190506131a381612d3b565b92915050565b6000602082840312156131bf576131be612ab0565b5b60006131cd84828501613194565b91505092915050565b6000819050919050565b600067ffffffffffffffff82169050919050565b600061320f61320a613205846131d6565b612c34565b6131e0565b9050919050565b61321f816131f4565b82525050565b600060208201905061323a6000830184613216565b92915050565b600061324b82612c00565b915061325683612c00565b925082820261326481612c00565b9150828204841483151761327b5761327a6130d3565b5b5092915050565b7f4e487b7100000000000000000000000000000000000000000000000000000000600052601260045260246000fd5b60006132bc82612c00565b91506132c783612c00565b9250826132d7576132d6613282565b5b828204905092915050565b60006060820190506132f7600083018661316a565b613304602083018561316a565b6133116040830184612c0a565b949350505050565b60008151905061332881612ce2565b92915050565b60006020828403121561334457613343612ab0565b5b600061335284828501613319565b91505092915050565b6000604082019050613370600083018561316a565b61337d6020830184612c0a565b9392505050565b6000604082019050613399600083018561316a565b6133a66020830184612cb8565b9392505050565b600081519050919050565b600081905092915050565b60006133ce826133ad565b6133d881856133b8565b93506133e8818560208601612fd2565b80840191505092915050565b600061340082846133c3565b91508190509291505056fea2646970667358221220464e128c99f2b86383423b966750271f855bc65c72f1fc2840a44512990ec12364736f6c634300081b0033",
  "linkReferences": {},
  "deployedLinkReferences": {}
}